{
  "contractName": "FAerc20",
  "abi": [
    {
      "inputs": [
        {
          "internalType": "string",
          "name": "tokenName",
          "type": "string"
        },
        {
          "internalType": "string",
          "name": "tokenSymbol",
          "type": "string"
        }
      ],
      "stateMutability": "nonpayable",
      "type": "constructor"
    },
    {
      "anonymous": false,
      "inputs": [
        {
          "indexed": true,
          "internalType": "address",
          "name": "owner",
          "type": "address"
        },
        {
          "indexed": true,
          "internalType": "address",
          "name": "spender",
          "type": "address"
        },
        {
          "indexed": false,
          "internalType": "uint256",
          "name": "value",
          "type": "uint256"
        }
      ],
      "name": "Approval",
      "type": "event"
    },
    {
      "anonymous": false,
      "inputs": [
        {
          "indexed": true,
          "internalType": "address",
          "name": "from",
          "type": "address"
        },
        {
          "indexed": true,
          "internalType": "address",
          "name": "to",
          "type": "address"
        },
        {
          "indexed": false,
          "internalType": "uint256",
          "name": "value",
          "type": "uint256"
        }
      ],
      "name": "Transfer",
      "type": "event"
    },
    {
      "inputs": [
        {
          "internalType": "address",
          "name": "owner",
          "type": "address"
        },
        {
          "internalType": "address",
          "name": "spender",
          "type": "address"
        }
      ],
      "name": "allowance",
      "outputs": [
        {
          "internalType": "uint256",
          "name": "",
          "type": "uint256"
        }
      ],
      "stateMutability": "view",
      "type": "function",
      "constant": true
    },
    {
      "inputs": [
        {
          "internalType": "address",
          "name": "spender",
          "type": "address"
        },
        {
          "internalType": "uint256",
          "name": "amount",
          "type": "uint256"
        }
      ],
      "name": "approve",
      "outputs": [
        {
          "internalType": "bool",
          "name": "",
          "type": "bool"
        }
      ],
      "stateMutability": "nonpayable",
      "type": "function"
    },
    {
      "inputs": [
        {
          "internalType": "address",
          "name": "account",
          "type": "address"
        }
      ],
      "name": "balanceOf",
      "outputs": [
        {
          "internalType": "uint256",
          "name": "",
          "type": "uint256"
        }
      ],
      "stateMutability": "view",
      "type": "function",
      "constant": true
    },
    {
      "inputs": [],
      "name": "decimals",
      "outputs": [
        {
          "internalType": "uint8",
          "name": "",
          "type": "uint8"
        }
      ],
      "stateMutability": "view",
      "type": "function",
      "constant": true
    },
    {
      "inputs": [
        {
          "internalType": "address",
          "name": "spender",
          "type": "address"
        },
        {
          "internalType": "uint256",
          "name": "subtractedValue",
          "type": "uint256"
        }
      ],
      "name": "decreaseAllowance",
      "outputs": [
        {
          "internalType": "bool",
          "name": "",
          "type": "bool"
        }
      ],
      "stateMutability": "nonpayable",
      "type": "function"
    },
    {
      "inputs": [
        {
          "internalType": "address",
          "name": "spender",
          "type": "address"
        },
        {
          "internalType": "uint256",
          "name": "addedValue",
          "type": "uint256"
        }
      ],
      "name": "increaseAllowance",
      "outputs": [
        {
          "internalType": "bool",
          "name": "",
          "type": "bool"
        }
      ],
      "stateMutability": "nonpayable",
      "type": "function"
    },
    {
      "inputs": [],
      "name": "name",
      "outputs": [
        {
          "internalType": "string",
          "name": "",
          "type": "string"
        }
      ],
      "stateMutability": "view",
      "type": "function",
      "constant": true
    },
    {
      "inputs": [],
      "name": "symbol",
      "outputs": [
        {
          "internalType": "string",
          "name": "",
          "type": "string"
        }
      ],
      "stateMutability": "view",
      "type": "function",
      "constant": true
    },
    {
      "inputs": [],
      "name": "totalSupply",
      "outputs": [
        {
          "internalType": "uint256",
          "name": "",
          "type": "uint256"
        }
      ],
      "stateMutability": "view",
      "type": "function",
      "constant": true
    },
    {
      "inputs": [
        {
          "internalType": "address",
          "name": "to",
          "type": "address"
        },
        {
          "internalType": "uint256",
          "name": "amount",
          "type": "uint256"
        }
      ],
      "name": "transfer",
      "outputs": [
        {
          "internalType": "bool",
          "name": "",
          "type": "bool"
        }
      ],
      "stateMutability": "nonpayable",
      "type": "function"
    },
    {
      "inputs": [
        {
          "internalType": "address",
          "name": "from",
          "type": "address"
        },
        {
          "internalType": "address",
          "name": "to",
          "type": "address"
        },
        {
          "internalType": "uint256",
          "name": "amount",
          "type": "uint256"
        }
      ],
      "name": "transferFrom",
      "outputs": [
        {
          "internalType": "bool",
          "name": "",
          "type": "bool"
        }
      ],
      "stateMutability": "nonpayable",
      "type": "function"
    },
    {
      "inputs": [
        {
          "internalType": "uint256",
          "name": "_totalSupply",
          "type": "uint256"
        },
        {
          "internalType": "address",
          "name": "_address",
          "type": "address"
        }
      ],
      "name": "mint",
      "outputs": [],
      "stateMutability": "nonpayable",
      "type": "function"
    },
    {
      "inputs": [
        {
          "internalType": "uint256",
          "name": "_total",
          "type": "uint256"
        },
        {
          "internalType": "address",
          "name": "_address",
          "type": "address"
        }
      ],
      "name": "burn",
      "outputs": [],
      "stateMutability": "nonpayable",
      "type": "function"
    }
  ],
  "bytecode": "0x608060405260016005553480156200001657600080fd5b506040516200207a3803806200207a83398181016040528101906200003c919062000268565b818181600390816200004f919062000538565b50806004908162000061919062000538565b5050506001600760003373ffffffffffffffffffffffffffffffffffffffff1673ffffffffffffffffffffffffffffffffffffffff16815260200190815260200160002060006101000a81548160ff0219169083151502179055504260068190555050506200061f565b6000604051905090565b600080fd5b600080fd5b600080fd5b600080fd5b6000601f19601f8301169050919050565b7f4e487b7100000000000000000000000000000000000000000000000000000000600052604160045260246000fd5b6200013482620000e9565b810181811067ffffffffffffffff82111715620001565762000155620000fa565b5b80604052505050565b60006200016b620000cb565b905062000179828262000129565b919050565b600067ffffffffffffffff8211156200019c576200019b620000fa565b5b620001a782620000e9565b9050602081019050919050565b60005b83811015620001d4578082015181840152602081019050620001b7565b83811115620001e4576000848401525b50505050565b600062000201620001fb846200017e565b6200015f565b90508281526020810184848401111562000220576200021f620000e4565b5b6200022d848285620001b4565b509392505050565b600082601f8301126200024d576200024c620000df565b5b81516200025f848260208601620001ea565b91505092915050565b60008060408385031215620002825762000281620000d5565b5b600083015167ffffffffffffffff811115620002a357620002a2620000da565b5b620002b18582860162000235565b925050602083015167ffffffffffffffff811115620002d557620002d4620000da565b5b620002e38582860162000235565b9150509250929050565b600081519050919050565b7f4e487b7100000000000000000000000000000000000000000000000000000000600052602260045260246000fd5b600060028204905060018216806200034057607f821691505b602082108103620003565762000355620002f8565b5b50919050565b60008190508160005260206000209050919050565b60006020601f8301049050919050565b600082821b905092915050565b600060088302620003c07fffffffffffffffffffffffffffffffffffffffffffffffffffffffffffffffff8262000381565b620003cc868362000381565b95508019841693508086168417925050509392505050565b6000819050919050565b6000819050919050565b600062000419620004136200040d84620003e4565b620003ee565b620003e4565b9050919050565b6000819050919050565b6200043583620003f8565b6200044d620004448262000420565b8484546200038e565b825550505050565b600090565b6200046462000455565b620004718184846200042a565b505050565b5b8181101562000499576200048d6000826200045a565b60018101905062000477565b5050565b601f821115620004e857620004b2816200035c565b620004bd8462000371565b81016020851015620004cd578190505b620004e5620004dc8562000371565b83018262000476565b50505b505050565b600082821c905092915050565b60006200050d60001984600802620004ed565b1980831691505092915050565b6000620005288383620004fa565b9150826002028217905092915050565b6200054382620002ed565b67ffffffffffffffff8111156200055f576200055e620000fa565b5b6200056b825462000327565b620005788282856200049d565b600060209050601f831160018114620005b057600084156200059b578287015190505b620005a785826200051a565b86555062000617565b601f198416620005c0866200035c565b60005b82811015620005ea57848901518255600182019150602085019450602081019050620005c3565b868310156200060a578489015162000606601f891682620004fa565b8355505b6001600288020188555050505b505050505050565b611a4b806200062f6000396000f3fe608060405234801561001057600080fd5b50600436106100cf5760003560e01c806370a082311161008c578063a457c2d711610066578063a457c2d714610228578063a9059cbb14610258578063dd62ed3e14610288578063fcd3533c146102b8576100cf565b806370a08231146101be57806394bf804d146101ee57806395d89b411461020a576100cf565b806306fdde03146100d4578063095ea7b3146100f257806318160ddd1461012257806323b872dd14610140578063313ce56714610170578063395093511461018e575b600080fd5b6100dc6102d4565b6040516100e99190610fd0565b60405180910390f35b61010c6004803603810190610107919061108b565b610366565b60405161011991906110e6565b60405180910390f35b61012a610389565b6040516101379190611110565b60405180910390f35b61015a6004803603810190610155919061112b565b610393565b60405161016791906110e6565b60405180910390f35b6101786103c2565b604051610185919061119a565b60405180910390f35b6101a860048036038101906101a3919061108b565b6103cb565b6040516101b591906110e6565b60405180910390f35b6101d860048036038101906101d391906111b5565b610402565b6040516101e59190611110565b60405180910390f35b610208600480360381019061020391906111e2565b61044a565b005b610212610538565b60405161021f9190610fd0565b60405180910390f35b610242600480360381019061023d919061108b565b6105ca565b60405161024f91906110e6565b60405180910390f35b610272600480360381019061026d919061108b565b610641565b60405161027f91906110e6565b60405180910390f35b6102a2600480360381019061029d9190611222565b610664565b6040516102af9190611110565b60405180910390f35b6102d260048036038101906102cd91906111e2565b6106eb565b005b6060600380546102e390611291565b80601f016020809104026020016040519081016040528092919081815260200182805461030f90611291565b801561035c5780601f106103315761010080835404028352916020019161035c565b820191906000526020600020905b81548152906001019060200180831161033f57829003601f168201915b5050505050905090565b6000806103716106f9565b905061037e818585610701565b600191505092915050565b6000600254905090565b60008061039e6106f9565b90506103ab8582856108ca565b6103b6858585610956565b60019150509392505050565b60006012905090565b6000806103d66106f9565b90506103f78185856103e88589610664565b6103f291906112f1565b610701565b600191505092915050565b60008060008373ffffffffffffffffffffffffffffffffffffffff1673ffffffffffffffffffffffffffffffffffffffff168152602001908152602001600020549050919050565b426006541061048e576040517f08c379a000000000000000000000000000000000000000000000000000000000815260040161048590611393565b60405180910390fd5b33600760008273ffffffffffffffffffffffffffffffffffffffff1673ffffffffffffffffffffffffffffffffffffffff16815260200190815260200160002060009054906101000a900460ff1661051b576040517f08c379a0000000000000000000000000000000000000000000000000000000008152600401610512906113ff565b60405180910390fd5b610523610bd5565b6006819055506105338284610bf8565b505050565b60606004805461054790611291565b80601f016020809104026020016040519081016040528092919081815260200182805461057390611291565b80156105c05780601f10610595576101008083540402835291602001916105c0565b820191906000526020600020905b8154815290600101906020018083116105a357829003601f168201915b5050505050905090565b6000806105d56106f9565b905060006105e38286610664565b905083811015610628576040517f08c379a000000000000000000000000000000000000000000000000000000000815260040161061f90611491565b60405180910390fd5b6106358286868403610701565b60019250505092915050565b60008061064c6106f9565b9050610659818585610956565b600191505092915050565b6000600160008473ffffffffffffffffffffffffffffffffffffffff1673ffffffffffffffffffffffffffffffffffffffff16815260200190815260200160002060008373ffffffffffffffffffffffffffffffffffffffff1673ffffffffffffffffffffffffffffffffffffffff16815260200190815260200160002054905092915050565b6106f58183610d57565b5050565b600033905090565b600073ffffffffffffffffffffffffffffffffffffffff168373ffffffffffffffffffffffffffffffffffffffff1603610770576040517f08c379a000000000000000000000000000000000000000000000000000000000815260040161076790611523565b60405180910390fd5b600073ffffffffffffffffffffffffffffffffffffffff168273ffffffffffffffffffffffffffffffffffffffff16036107df576040517f08c379a00000000000000000000000000000000000000000000000000000000081526004016107d6906115b5565b60405180910390fd5b80600160008573ffffffffffffffffffffffffffffffffffffffff1673ffffffffffffffffffffffffffffffffffffffff16815260200190815260200160002060008473ffffffffffffffffffffffffffffffffffffffff1673ffffffffffffffffffffffffffffffffffffffff168152602001908152602001600020819055508173ffffffffffffffffffffffffffffffffffffffff168373ffffffffffffffffffffffffffffffffffffffff167f8c5be1e5ebec7d5bd14f71427d1e84f3dd0314c0f7b2291e5b200ac8c7c3b925836040516108bd9190611110565b60405180910390a3505050565b60006108d68484610664565b90507fffffffffffffffffffffffffffffffffffffffffffffffffffffffffffffffff81146109505781811015610942576040517f08c379a000000000000000000000000000000000000000000000000000000000815260040161093990611621565b60405180910390fd5b61094f8484848403610701565b5b50505050565b600073ffffffffffffffffffffffffffffffffffffffff168373ffffffffffffffffffffffffffffffffffffffff16036109c5576040517f08c379a00000000000000000000000000000000000000000000000000000000081526004016109bc906116b3565b60405180910390fd5b600073ffffffffffffffffffffffffffffffffffffffff168273ffffffffffffffffffffffffffffffffffffffff1603610a34576040517f08c379a0000000000000000000000000000000000000000000000000000000008152600401610a2b90611745565b60405180910390fd5b610a3f838383610f2d565b60008060008573ffffffffffffffffffffffffffffffffffffffff1673ffffffffffffffffffffffffffffffffffffffff16815260200190815260200160002054905081811015610ac5576040517f08c379a0000000000000000000000000000000000000000000000000000000008152600401610abc906117d7565b60405180910390fd5b8181036000808673ffffffffffffffffffffffffffffffffffffffff1673ffffffffffffffffffffffffffffffffffffffff16815260200190815260200160002081905550816000808573ffffffffffffffffffffffffffffffffffffffff1673ffffffffffffffffffffffffffffffffffffffff1681526020019081526020016000206000828254610b5891906112f1565b925050819055508273ffffffffffffffffffffffffffffffffffffffff168473ffffffffffffffffffffffffffffffffffffffff167fddf252ad1be2c89b69c2b068fc378daa952ba7f163c4a11628f55a4df523b3ef84604051610bbc9190611110565b60405180910390a3610bcf848484610f32565b50505050565b600062015180600554610be891906117f7565b42610bf391906112f1565b905090565b600073ffffffffffffffffffffffffffffffffffffffff168273ffffffffffffffffffffffffffffffffffffffff1603610c67576040517f08c379a0000000000000000000000000000000000000000000000000000000008152600401610c5e9061189d565b60405180910390fd5b610c7360008383610f2d565b8060026000828254610c8591906112f1565b92505081905550806000808473ffffffffffffffffffffffffffffffffffffffff1673ffffffffffffffffffffffffffffffffffffffff1681526020019081526020016000206000828254610cda91906112f1565b925050819055508173ffffffffffffffffffffffffffffffffffffffff16600073ffffffffffffffffffffffffffffffffffffffff167fddf252ad1be2c89b69c2b068fc378daa952ba7f163c4a11628f55a4df523b3ef83604051610d3f9190611110565b60405180910390a3610d5360008383610f32565b5050565b600073ffffffffffffffffffffffffffffffffffffffff168273ffffffffffffffffffffffffffffffffffffffff1603610dc6576040517f08c379a0000000000000000000000000000000000000000000000000000000008152600401610dbd9061192f565b60405180910390fd5b610dd282600083610f2d565b60008060008473ffffffffffffffffffffffffffffffffffffffff1673ffffffffffffffffffffffffffffffffffffffff16815260200190815260200160002054905081811015610e58576040517f08c379a0000000000000000000000000000000000000000000000000000000008152600401610e4f906119c1565b60405180910390fd5b8181036000808573ffffffffffffffffffffffffffffffffffffffff1673ffffffffffffffffffffffffffffffffffffffff168152602001908152602001600020819055508160026000828254610eaf91906119e1565b92505081905550600073ffffffffffffffffffffffffffffffffffffffff168373ffffffffffffffffffffffffffffffffffffffff167fddf252ad1be2c89b69c2b068fc378daa952ba7f163c4a11628f55a4df523b3ef84604051610f149190611110565b60405180910390a3610f2883600084610f32565b505050565b505050565b505050565b600081519050919050565b600082825260208201905092915050565b60005b83811015610f71578082015181840152602081019050610f56565b83811115610f80576000848401525b50505050565b6000601f19601f8301169050919050565b6000610fa282610f37565b610fac8185610f42565b9350610fbc818560208601610f53565b610fc581610f86565b840191505092915050565b60006020820190508181036000830152610fea8184610f97565b905092915050565b600080fd5b600073ffffffffffffffffffffffffffffffffffffffff82169050919050565b600061102282610ff7565b9050919050565b61103281611017565b811461103d57600080fd5b50565b60008135905061104f81611029565b92915050565b6000819050919050565b61106881611055565b811461107357600080fd5b50565b6000813590506110858161105f565b92915050565b600080604083850312156110a2576110a1610ff2565b5b60006110b085828601611040565b92505060206110c185828601611076565b9150509250929050565b60008115159050919050565b6110e0816110cb565b82525050565b60006020820190506110fb60008301846110d7565b92915050565b61110a81611055565b82525050565b60006020820190506111256000830184611101565b92915050565b60008060006060848603121561114457611143610ff2565b5b600061115286828701611040565b935050602061116386828701611040565b925050604061117486828701611076565b9150509250925092565b600060ff82169050919050565b6111948161117e565b82525050565b60006020820190506111af600083018461118b565b92915050565b6000602082840312156111cb576111ca610ff2565b5b60006111d984828501611040565b91505092915050565b600080604083850312156111f9576111f8610ff2565b5b600061120785828601611076565b925050602061121885828601611040565b9150509250929050565b6000806040838503121561123957611238610ff2565b5b600061124785828601611040565b925050602061125885828601611040565b9150509250929050565b7f4e487b7100000000000000000000000000000000000000000000000000000000600052602260045260246000fd5b600060028204905060018216806112a957607f821691505b6020821081036112bc576112bb611262565b5b50919050565b7f4e487b7100000000000000000000000000000000000000000000000000000000600052601160045260246000fd5b60006112fc82611055565b915061130783611055565b9250827fffffffffffffffffffffffffffffffffffffffffffffffffffffffffffffffff0382111561133c5761133b6112c2565b5b828201905092915050565b7f43616e6e6f74206d696e74207269676874206e6f770000000000000000000000600082015250565b600061137d601583610f42565b915061138882611347565b602082019050919050565b600060208201905081810360008301526113ac81611370565b9050919050565b7f4f6e6c792061646d696e2063616e206163636573730000000000000000000000600082015250565b60006113e9601583610f42565b91506113f4826113b3565b602082019050919050565b60006020820190508181036000830152611418816113dc565b9050919050565b7f45524332303a2064656372656173656420616c6c6f77616e63652062656c6f7760008201527f207a65726f000000000000000000000000000000000000000000000000000000602082015250565b600061147b602583610f42565b91506114868261141f565b604082019050919050565b600060208201905081810360008301526114aa8161146e565b9050919050565b7f45524332303a20617070726f76652066726f6d20746865207a65726f2061646460008201527f7265737300000000000000000000000000000000000000000000000000000000602082015250565b600061150d602483610f42565b9150611518826114b1565b604082019050919050565b6000602082019050818103600083015261153c81611500565b9050919050565b7f45524332303a20617070726f766520746f20746865207a65726f20616464726560008201527f7373000000000000000000000000000000000000000000000000000000000000602082015250565b600061159f602283610f42565b91506115aa82611543565b604082019050919050565b600060208201905081810360008301526115ce81611592565b9050919050565b7f45524332303a20696e73756666696369656e7420616c6c6f77616e6365000000600082015250565b600061160b601d83610f42565b9150611616826115d5565b602082019050919050565b6000602082019050818103600083015261163a816115fe565b9050919050565b7f45524332303a207472616e736665722066726f6d20746865207a65726f20616460008201527f6472657373000000000000000000000000000000000000000000000000000000602082015250565b600061169d602583610f42565b91506116a882611641565b604082019050919050565b600060208201905081810360008301526116cc81611690565b9050919050565b7f45524332303a207472616e7366657220746f20746865207a65726f206164647260008201527f6573730000000000000000000000000000000000000000000000000000000000602082015250565b600061172f602383610f42565b915061173a826116d3565b604082019050919050565b6000602082019050818103600083015261175e81611722565b9050919050565b7f45524332303a207472616e7366657220616d6f756e742065786365656473206260008201527f616c616e63650000000000000000000000000000000000000000000000000000602082015250565b60006117c1602683610f42565b91506117cc82611765565b604082019050919050565b600060208201905081810360008301526117f0816117b4565b9050919050565b600061180282611055565b915061180d83611055565b9250817fffffffffffffffffffffffffffffffffffffffffffffffffffffffffffffffff0483118215151615611846576118456112c2565b5b828202905092915050565b7f45524332303a206d696e7420746f20746865207a65726f206164647265737300600082015250565b6000611887601f83610f42565b915061189282611851565b602082019050919050565b600060208201905081810360008301526118b68161187a565b9050919050565b7f45524332303a206275726e2066726f6d20746865207a65726f2061646472657360008201527f7300000000000000000000000000000000000000000000000000000000000000602082015250565b6000611919602183610f42565b9150611924826118bd565b604082019050919050565b600060208201905081810360008301526119488161190c565b9050919050565b7f45524332303a206275726e20616d6f756e7420657863656564732062616c616e60008201527f6365000000000000000000000000000000000000000000000000000000000000602082015250565b60006119ab602283610f42565b91506119b68261194f565b604082019050919050565b600060208201905081810360008301526119da8161199e565b9050919050565b60006119ec82611055565b91506119f783611055565b925082821015611a0a57611a096112c2565b5b82820390509291505056fea26469706673582212200c3715afe1c5a66dc03cc4e70cb8be1a6c124c46ee091fdee6ece453ecca1f7764736f6c634300080f0033",
  "immutableReferences": {},
  "source": "// SPDX-License-Identifier: GPL-3.0\n\npragma solidity ^0.8.1;\n\nimport \"@openzeppelin/contracts/token/ERC20/ERC20.sol\";\n\n/**\n * @title SampleERC20\n * @dev Create a sample ERC20 standard token\n */\ncontract FAerc20 is ERC20 {\n    uint256 timeInterval = 1;\n    uint256 expiryTime;\n\n    mapping(address => bool) isAdmin;\n\n    modifier checkAdmin(address _address) {\n        require(isAdmin[_address], \"Only admin can access\");\n        _;\n    }\n\n    modifier checkExpiryTime() {\n        require(expiryTime < block.timestamp, \"Cannot mint right now\");\n        _;\n    }\n\n    constructor(string memory tokenName, string memory tokenSymbol)\n        ERC20(tokenName, tokenSymbol)\n    {\n        isAdmin[msg.sender] = true;\n        expiryTime = block.timestamp;\n    }\n\n    function mint(uint256 _totalSupply, address _address)\n        public\n        checkExpiryTime\n        checkAdmin(msg.sender)\n    {\n        expiryTime = _calculateTimeStamp();\n        _mint(_address, _totalSupply);\n    }\n\n    function burn(uint256 _total, address _address) public {\n        _burn(_address, _total);\n    }\n\n    function _calculateTimeStamp() internal view returns (uint256) {\n        return (block.timestamp + timeInterval * 1 days);\n    }\n}\n",
  "sourcePath": "/media/iambks/Disk 3/esatya/blockchain-materials/blockchain/GFA/client-side/src/contracts/ERC20.sol",
  "compiler": {
    "name": "solc",
    "version": "0.8.15+commit.e14f2714.Emscripten.clang"
  },
  "schemaVersion": "3.4.7",
  "updatedAt": "2022-07-19T10:39:57.728Z",
  "networkType": "ethereum",
  "devdoc": {
    "details": "Create a sample ERC20 standard token",
    "kind": "dev",
    "methods": {
      "allowance(address,address)": {
        "details": "See {IERC20-allowance}."
      },
      "approve(address,uint256)": {
        "details": "See {IERC20-approve}. NOTE: If `amount` is the maximum `uint256`, the allowance is not updated on `transferFrom`. This is semantically equivalent to an infinite approval. Requirements: - `spender` cannot be the zero address."
      },
      "balanceOf(address)": {
        "details": "See {IERC20-balanceOf}."
      },
      "decimals()": {
        "details": "Returns the number of decimals used to get its user representation. For example, if `decimals` equals `2`, a balance of `505` tokens should be displayed to a user as `5.05` (`505 / 10 ** 2`). Tokens usually opt for a value of 18, imitating the relationship between Ether and Wei. This is the value {ERC20} uses, unless this function is overridden; NOTE: This information is only used for _display_ purposes: it in no way affects any of the arithmetic of the contract, including {IERC20-balanceOf} and {IERC20-transfer}."
      },
      "decreaseAllowance(address,uint256)": {
        "details": "Atomically decreases the allowance granted to `spender` by the caller. This is an alternative to {approve} that can be used as a mitigation for problems described in {IERC20-approve}. Emits an {Approval} event indicating the updated allowance. Requirements: - `spender` cannot be the zero address. - `spender` must have allowance for the caller of at least `subtractedValue`."
      },
      "increaseAllowance(address,uint256)": {
        "details": "Atomically increases the allowance granted to `spender` by the caller. This is an alternative to {approve} that can be used as a mitigation for problems described in {IERC20-approve}. Emits an {Approval} event indicating the updated allowance. Requirements: - `spender` cannot be the zero address."
      },
      "name()": {
        "details": "Returns the name of the token."
      },
      "symbol()": {
        "details": "Returns the symbol of the token, usually a shorter version of the name."
      },
      "totalSupply()": {
        "details": "See {IERC20-totalSupply}."
      },
      "transfer(address,uint256)": {
        "details": "See {IERC20-transfer}. Requirements: - `to` cannot be the zero address. - the caller must have a balance of at least `amount`."
      },
      "transferFrom(address,address,uint256)": {
        "details": "See {IERC20-transferFrom}. Emits an {Approval} event indicating the updated allowance. This is not required by the EIP. See the note at the beginning of {ERC20}. NOTE: Does not update the allowance if the current allowance is the maximum `uint256`. Requirements: - `from` and `to` cannot be the zero address. - `from` must have a balance of at least `amount`. - the caller must have allowance for ``from``'s tokens of at least `amount`."
      }
    },
    "title": "SampleERC20",
    "version": 1
  },
  "userdoc": {
    "kind": "user",
    "methods": {},
    "version": 1
  }
}