{
  "contractName": "FundAllocation",
  "abi": [
    {
      "inputs": [],
      "stateMutability": "nonpayable",
      "type": "constructor"
    },
    {
      "inputs": [],
      "name": "contractorIndex",
      "outputs": [
        {
          "internalType": "uint256",
          "name": "",
          "type": "uint256"
        }
      ],
      "stateMutability": "view",
      "type": "function",
      "constant": true
    },
    {
      "inputs": [
        {
          "internalType": "uint256",
          "name": "",
          "type": "uint256"
        }
      ],
      "name": "contractorList",
      "outputs": [
        {
          "internalType": "address",
          "name": "",
          "type": "address"
        }
      ],
      "stateMutability": "view",
      "type": "function",
      "constant": true
    },
    {
      "inputs": [],
      "name": "provinceIndex",
      "outputs": [
        {
          "internalType": "uint256",
          "name": "",
          "type": "uint256"
        }
      ],
      "stateMutability": "view",
      "type": "function",
      "constant": true
    },
    {
      "inputs": [
        {
          "internalType": "uint256",
          "name": "",
          "type": "uint256"
        }
      ],
      "name": "provinceList",
      "outputs": [
        {
          "internalType": "address",
          "name": "",
          "type": "address"
        }
      ],
      "stateMutability": "view",
      "type": "function",
      "constant": true
    },
    {
      "inputs": [
        {
          "internalType": "address",
          "name": "_address",
          "type": "address"
        }
      ],
      "name": "findUserRole",
      "outputs": [
        {
          "internalType": "string",
          "name": "user",
          "type": "string"
        }
      ],
      "stateMutability": "view",
      "type": "function",
      "constant": true
    },
    {
      "inputs": [
        {
          "internalType": "string",
          "name": "_name",
          "type": "string"
        },
        {
          "internalType": "uint256",
          "name": "_stateNo",
          "type": "uint256"
        },
        {
          "internalType": "string",
          "name": "_capital",
          "type": "string"
        }
      ],
      "name": "registerProvince",
      "outputs": [
        {
          "internalType": "bool",
          "name": "",
          "type": "bool"
        }
      ],
      "stateMutability": "nonpayable",
      "type": "function"
    },
    {
      "inputs": [
        {
          "internalType": "address",
          "name": "_address",
          "type": "address"
        }
      ],
      "name": "verifyProvince",
      "outputs": [
        {
          "internalType": "bool",
          "name": "",
          "type": "bool"
        }
      ],
      "stateMutability": "nonpayable",
      "type": "function"
    },
    {
      "inputs": [
        {
          "internalType": "uint256",
          "name": "_id",
          "type": "uint256"
        }
      ],
      "name": "allProvince",
      "outputs": [
        {
          "internalType": "string",
          "name": "",
          "type": "string"
        },
        {
          "internalType": "uint256",
          "name": "",
          "type": "uint256"
        },
        {
          "internalType": "string",
          "name": "",
          "type": "string"
        },
        {
          "internalType": "address",
          "name": "",
          "type": "address"
        },
        {
          "internalType": "bool",
          "name": "",
          "type": "bool"
        },
        {
          "internalType": "bool",
          "name": "",
          "type": "bool"
        }
      ],
      "stateMutability": "view",
      "type": "function",
      "constant": true
    },
    {
      "inputs": [],
      "name": "myProvince",
      "outputs": [
        {
          "internalType": "uint256",
          "name": "",
          "type": "uint256"
        },
        {
          "internalType": "string",
          "name": "",
          "type": "string"
        },
        {
          "internalType": "uint256",
          "name": "",
          "type": "uint256"
        },
        {
          "internalType": "string",
          "name": "",
          "type": "string"
        }
      ],
      "stateMutability": "view",
      "type": "function",
      "constant": true
    },
    {
      "inputs": [
        {
          "internalType": "string",
          "name": "_name",
          "type": "string"
        }
      ],
      "name": "registerContractor",
      "outputs": [],
      "stateMutability": "nonpayable",
      "type": "function"
    },
    {
      "inputs": [
        {
          "internalType": "address",
          "name": "_address",
          "type": "address"
        }
      ],
      "name": "verifyContractor",
      "outputs": [
        {
          "internalType": "bool",
          "name": "",
          "type": "bool"
        }
      ],
      "stateMutability": "nonpayable",
      "type": "function"
    }
  ],
  "bytecode": "0x608060405260008055600060015534801561001957600080fd5b5033600260006101000a81548173ffffffffffffffffffffffffffffffffffffffff021916908373ffffffffffffffffffffffffffffffffffffffff160217905550611fa78061006a6000396000f3fe608060405234801561001057600080fd5b50600436106100a95760003560e01c80639e7f9103116100715780639e7f91031461017d578063bf1f237f1461019e578063d39e55d5146101bc578063d8d77461146101ec578063dc7a72e71461021c578063e1b44d2b1461024c576100a9565b80630701fb5b146100ae57806317a25988146100cc57806330445b48146100fc57806370fb7d19146101185780639455d1f214610148575b600080fd5b6100b661027c565b6040516100c391906113c6565b60405180910390f35b6100e660048036038101906100e19190611421565b610282565b6040516100f3919061148f565b60405180910390f35b610116600480360381019061011191906115f0565b6102c1565b005b610132600480360381019061012d9190611665565b6104e9565b60405161013f919061171a565b60405180910390f35b610162600480360381019061015d9190611421565b6106e5565b60405161017496959493929190611757565b60405180910390f35b610185610979565b60405161019594939291906117c6565b60405180910390f35b6101a6610c9f565b6040516101b391906113c6565b60405180910390f35b6101d660048036038101906101d19190611421565b610ca5565b6040516101e3919061148f565b60405180910390f35b61020660048036038101906102019190611665565b610ce4565b6040516102139190611819565b60405180910390f35b61023660048036038101906102319190611665565b610e6c565b6040516102439190611819565b60405180910390f35b61026660048036038101906102619190611834565b611048565b6040516102739190611819565b60405180910390f35b60005481565b6004818154811061029257600080fd5b906000526020600020016000915054906101000a900473ffffffffffffffffffffffffffffffffffffffff1681565b33600260009054906101000a900473ffffffffffffffffffffffffffffffffffffffff1673ffffffffffffffffffffffffffffffffffffffff168173ffffffffffffffffffffffffffffffffffffffff1603610352576040517f08c379a000000000000000000000000000000000000000000000000000000000815260040161034990611931565b60405180910390fd5b600082511161036057600080fd5b60003390506004819080600181540180825580915050600190039060005260206000200160009091909190916101000a81548173ffffffffffffffffffffffffffffffffffffffff021916908373ffffffffffffffffffffffffffffffffffffffff16021790555060018060008282546103da9190611980565b9250508190555082600660008373ffffffffffffffffffffffffffffffffffffffff1673ffffffffffffffffffffffffffffffffffffffff16815260200190815260200160002060010190816104309190611be2565b506001600660008373ffffffffffffffffffffffffffffffffffffffff1673ffffffffffffffffffffffffffffffffffffffff16815260200190815260200160002060020160016101000a81548160ff0219169083151502179055506001600860008373ffffffffffffffffffffffffffffffffffffffff1673ffffffffffffffffffffffffffffffffffffffff16815260200190815260200160002060006101000a81548160ff021916908315150217905550505050565b6060600260009054906101000a900473ffffffffffffffffffffffffffffffffffffffff1673ffffffffffffffffffffffffffffffffffffffff168273ffffffffffffffffffffffffffffffffffffffff160361057d576040518060400160405280600581526020017f61646d696e00000000000000000000000000000000000000000000000000000081525090506106e0565b60011515600760008473ffffffffffffffffffffffffffffffffffffffff1673ffffffffffffffffffffffffffffffffffffffff16815260200190815260200160002060009054906101000a900460ff16151503610612576040518060400160405280600881526020017f70726f76696e636500000000000000000000000000000000000000000000000081525090506106e0565b60011515600860008473ffffffffffffffffffffffffffffffffffffffff1673ffffffffffffffffffffffffffffffffffffffff16815260200190815260200160002060009054906101000a900460ff161515036106a7576040518060400160405280600a81526020017f636f6e74726163746f720000000000000000000000000000000000000000000081525090506106e0565b6040518060400160405280600c81526020017f756e417574686f72697a6564000000000000000000000000000000000000000081525090505b919050565b6060600060606000806000806003888154811061070557610704611cb4565b5b9060005260206000200160009054906101000a900473ffffffffffffffffffffffffffffffffffffffff1690506000600560008373ffffffffffffffffffffffffffffffffffffffff1673ffffffffffffffffffffffffffffffffffffffff1681526020019081526020016000206040518060e00160405290816000820154815260200160018201805461079890611a05565b80601f01602080910402602001604051908101604052809291908181526020018280546107c490611a05565b80156108115780601f106107e657610100808354040283529160200191610811565b820191906000526020600020905b8154815290600101906020018083116107f457829003601f168201915b505050505081526020016002820154815260200160038201805461083490611a05565b80601f016020809104026020016040519081016040528092919081815260200182805461086090611a05565b80156108ad5780601f10610882576101008083540402835291602001916108ad565b820191906000526020600020905b81548152906001019060200180831161089057829003601f168201915b505050505081526020016004820160009054906101000a900473ffffffffffffffffffffffffffffffffffffffff1673ffffffffffffffffffffffffffffffffffffffff1673ffffffffffffffffffffffffffffffffffffffff1681526020016004820160149054906101000a900460ff161515151581526020016004820160159054906101000a900460ff161515151581525050905080602001518160400151826060015183608001518460c001518560a00151975097509750975097509750505091939550919395565b600060606000606033600560008273ffffffffffffffffffffffffffffffffffffffff1673ffffffffffffffffffffffffffffffffffffffff16815260200190815260200160002060040160159054906101000a900460ff168015610a2a5750600560008273ffffffffffffffffffffffffffffffffffffffff1673ffffffffffffffffffffffffffffffffffffffff16815260200190815260200160002060040160149054906101000a900460ff165b610a69576040517f08c379a0000000000000000000000000000000000000000000000000000000008152600401610a6090611d55565b60405180910390fd5b6000600560003373ffffffffffffffffffffffffffffffffffffffff1673ffffffffffffffffffffffffffffffffffffffff1681526020019081526020016000206040518060e001604052908160008201548152602001600182018054610acf90611a05565b80601f0160208091040260200160405190810160405280929190818152602001828054610afb90611a05565b8015610b485780601f10610b1d57610100808354040283529160200191610b48565b820191906000526020600020905b815481529060010190602001808311610b2b57829003601f168201915b5050505050815260200160028201548152602001600382018054610b6b90611a05565b80601f0160208091040260200160405190810160405280929190818152602001828054610b9790611a05565b8015610be45780601f10610bb957610100808354040283529160200191610be4565b820191906000526020600020905b815481529060010190602001808311610bc757829003601f168201915b505050505081526020016004820160009054906101000a900473ffffffffffffffffffffffffffffffffffffffff1673ffffffffffffffffffffffffffffffffffffffff1673ffffffffffffffffffffffffffffffffffffffff1681526020016004820160149054906101000a900460ff161515151581526020016004820160159054906101000a900460ff161515151581525050905080600001518160200151826040015183606001519550955095509550505090919293565b60015481565b60038181548110610cb557600080fd5b906000526020600020016000915054906101000a900473ffffffffffffffffffffffffffffffffffffffff1681565b600033600260009054906101000a900473ffffffffffffffffffffffffffffffffffffffff1673ffffffffffffffffffffffffffffffffffffffff168173ffffffffffffffffffffffffffffffffffffffff1614610d77576040517f08c379a0000000000000000000000000000000000000000000000000000000008152600401610d6e90611dc1565b60405180910390fd5b600560008473ffffffffffffffffffffffffffffffffffffffff1673ffffffffffffffffffffffffffffffffffffffff16815260200190815260200160002060040160149054906101000a900460ff1615610e07576040517f08c379a0000000000000000000000000000000000000000000000000000000008152600401610dfe90611e2d565b60405180910390fd5b6001600560008573ffffffffffffffffffffffffffffffffffffffff1673ffffffffffffffffffffffffffffffffffffffff16815260200190815260200160002060040160146101000a81548160ff0219169083151502179055506001915050919050565b600033600760008273ffffffffffffffffffffffffffffffffffffffff1673ffffffffffffffffffffffffffffffffffffffff16815260200190815260200160002060009054906101000a900460ff168015610f145750600560008273ffffffffffffffffffffffffffffffffffffffff1673ffffffffffffffffffffffffffffffffffffffff16815260200190815260200160002060040160149054906101000a900460ff165b610f53576040517f08c379a0000000000000000000000000000000000000000000000000000000008152600401610f4a90611ebf565b60405180910390fd5b600660008473ffffffffffffffffffffffffffffffffffffffff1673ffffffffffffffffffffffffffffffffffffffff16815260200190815260200160002060020160009054906101000a900460ff1615610fe3576040517f08c379a0000000000000000000000000000000000000000000000000000000008152600401610fda90611f51565b60405180910390fd5b6001600560008573ffffffffffffffffffffffffffffffffffffffff1673ffffffffffffffffffffffffffffffffffffffff16815260200190815260200160002060040160146101000a81548160ff0219169083151502179055506001915050919050565b600033600260009054906101000a900473ffffffffffffffffffffffffffffffffffffffff1673ffffffffffffffffffffffffffffffffffffffff168173ffffffffffffffffffffffffffffffffffffffff16036110db576040517f08c379a00000000000000000000000000000000000000000000000000000000081526004016110d290611931565b60405180910390fd5b60008551116110e957600080fd5b600084116110f657600080fd5b600083511161110457600080fd5b60003390506003819080600181540180825580915050600190039060005260206000200160009091909190916101000a81548173ffffffffffffffffffffffffffffffffffffffff021916908373ffffffffffffffffffffffffffffffffffffffff160217905550600160008082825461117e9190611980565b9250508190555085600560008373ffffffffffffffffffffffffffffffffffffffff1673ffffffffffffffffffffffffffffffffffffffff16815260200190815260200160002060010190816111d49190611be2565b5084600560008373ffffffffffffffffffffffffffffffffffffffff1673ffffffffffffffffffffffffffffffffffffffff1681526020019081526020016000206002018190555083600560008373ffffffffffffffffffffffffffffffffffffffff1673ffffffffffffffffffffffffffffffffffffffff168152602001908152602001600020600301908161126b9190611be2565b5080600560008373ffffffffffffffffffffffffffffffffffffffff1673ffffffffffffffffffffffffffffffffffffffff16815260200190815260200160002060040160006101000a81548173ffffffffffffffffffffffffffffffffffffffff021916908373ffffffffffffffffffffffffffffffffffffffff1602179055506001600560008373ffffffffffffffffffffffffffffffffffffffff1673ffffffffffffffffffffffffffffffffffffffff16815260200190815260200160002060040160156101000a81548160ff0219169083151502179055506001600760008373ffffffffffffffffffffffffffffffffffffffff1673ffffffffffffffffffffffffffffffffffffffff16815260200190815260200160002060006101000a81548160ff0219169083151502179055506001925050509392505050565b6000819050919050565b6113c0816113ad565b82525050565b60006020820190506113db60008301846113b7565b92915050565b6000604051905090565b600080fd5b600080fd5b6113fe816113ad565b811461140957600080fd5b50565b60008135905061141b816113f5565b92915050565b600060208284031215611437576114366113eb565b5b60006114458482850161140c565b91505092915050565b600073ffffffffffffffffffffffffffffffffffffffff82169050919050565b60006114798261144e565b9050919050565b6114898161146e565b82525050565b60006020820190506114a46000830184611480565b92915050565b600080fd5b600080fd5b6000601f19601f8301169050919050565b7f4e487b7100000000000000000000000000000000000000000000000000000000600052604160045260246000fd5b6114fd826114b4565b810181811067ffffffffffffffff8211171561151c5761151b6114c5565b5b80604052505050565b600061152f6113e1565b905061153b82826114f4565b919050565b600067ffffffffffffffff82111561155b5761155a6114c5565b5b611564826114b4565b9050602081019050919050565b82818337600083830152505050565b600061159361158e84611540565b611525565b9050828152602081018484840111156115af576115ae6114af565b5b6115ba848285611571565b509392505050565b600082601f8301126115d7576115d66114aa565b5b81356115e7848260208601611580565b91505092915050565b600060208284031215611606576116056113eb565b5b600082013567ffffffffffffffff811115611624576116236113f0565b5b611630848285016115c2565b91505092915050565b6116428161146e565b811461164d57600080fd5b50565b60008135905061165f81611639565b92915050565b60006020828403121561167b5761167a6113eb565b5b600061168984828501611650565b91505092915050565b600081519050919050565b600082825260208201905092915050565b60005b838110156116cc5780820151818401526020810190506116b1565b838111156116db576000848401525b50505050565b60006116ec82611692565b6116f6818561169d565b93506117068185602086016116ae565b61170f816114b4565b840191505092915050565b6000602082019050818103600083015261173481846116e1565b905092915050565b60008115159050919050565b6117518161173c565b82525050565b600060c082019050818103600083015261177181896116e1565b905061178060208301886113b7565b818103604083015261179281876116e1565b90506117a16060830186611480565b6117ae6080830185611748565b6117bb60a0830184611748565b979650505050505050565b60006080820190506117db60008301876113b7565b81810360208301526117ed81866116e1565b90506117fc60408301856113b7565b818103606083015261180e81846116e1565b905095945050505050565b600060208201905061182e6000830184611748565b92915050565b60008060006060848603121561184d5761184c6113eb565b5b600084013567ffffffffffffffff81111561186b5761186a6113f0565b5b611877868287016115c2565b93505060206118888682870161140c565b925050604084013567ffffffffffffffff8111156118a9576118a86113f0565b5b6118b5868287016115c2565b9150509250925092565b7f41646d696e2063616e6e6f74206265207265676973746572656420617320507260008201527f6f76696e63650000000000000000000000000000000000000000000000000000602082015250565b600061191b60268361169d565b9150611926826118bf565b604082019050919050565b6000602082019050818103600083015261194a8161190e565b9050919050565b7f4e487b7100000000000000000000000000000000000000000000000000000000600052601160045260246000fd5b600061198b826113ad565b9150611996836113ad565b9250827fffffffffffffffffffffffffffffffffffffffffffffffffffffffffffffffff038211156119cb576119ca611951565b5b828201905092915050565b7f4e487b7100000000000000000000000000000000000000000000000000000000600052602260045260246000fd5b60006002820490506001821680611a1d57607f821691505b602082108103611a3057611a2f6119d6565b5b50919050565b60008190508160005260206000209050919050565b60006020601f8301049050919050565b600082821b905092915050565b600060088302611a987fffffffffffffffffffffffffffffffffffffffffffffffffffffffffffffffff82611a5b565b611aa28683611a5b565b95508019841693508086168417925050509392505050565b6000819050919050565b6000611adf611ada611ad5846113ad565b611aba565b6113ad565b9050919050565b6000819050919050565b611af983611ac4565b611b0d611b0582611ae6565b848454611a68565b825550505050565b600090565b611b22611b15565b611b2d818484611af0565b505050565b5b81811015611b5157611b46600082611b1a565b600181019050611b33565b5050565b601f821115611b9657611b6781611a36565b611b7084611a4b565b81016020851015611b7f578190505b611b93611b8b85611a4b565b830182611b32565b50505b505050565b600082821c905092915050565b6000611bb960001984600802611b9b565b1980831691505092915050565b6000611bd28383611ba8565b9150826002028217905092915050565b611beb82611692565b67ffffffffffffffff811115611c0457611c036114c5565b5b611c0e8254611a05565b611c19828285611b55565b600060209050601f831160018114611c4c5760008415611c3a578287015190505b611c448582611bc6565b865550611cac565b601f198416611c5a86611a36565b60005b82811015611c8257848901518255600182019150602085019450602081019050611c5d565b86831015611c9f5784890151611c9b601f891682611ba8565b8355505b6001600288020188555050505b505050505050565b7f4e487b7100000000000000000000000000000000000000000000000000000000600052603260045260246000fd5b7f596f7520617265206e6f742072656769737465726564206f7220617070726f7660008201527f65642070726f76696e6365000000000000000000000000000000000000000000602082015250565b6000611d3f602b8361169d565b9150611d4a82611ce3565b604082019050919050565b60006020820190508181036000830152611d6e81611d32565b9050919050565b7f4f6e6c792041646d696e2063616e207665726966792e00000000000000000000600082015250565b6000611dab60168361169d565b9150611db682611d75565b602082019050919050565b60006020820190508181036000830152611dda81611d9e565b9050919050565b7f5468652070726f76696e636520697320616c726561647920617070726f766564600082015250565b6000611e1760208361169d565b9150611e2282611de1565b602082019050919050565b60006020820190508181036000830152611e4681611e0a565b9050919050565b7f4f6e6c7920617070726f7665642050726f76696e63652063616e20766572696660008201527f792e000000000000000000000000000000000000000000000000000000000000602082015250565b6000611ea960228361169d565b9150611eb482611e4d565b604082019050919050565b60006020820190508181036000830152611ed881611e9c565b9050919050565b7f54686520436f6e74726163746f7220697320616c726561647920617070726f7660008201527f6564000000000000000000000000000000000000000000000000000000000000602082015250565b6000611f3b60228361169d565b9150611f4682611edf565b604082019050919050565b60006020820190508181036000830152611f6a81611f2e565b905091905056fea26469706673582212203ada04834fab89828c81e0eca94c2004c26b58e5e50fda9a041ee840e0fbe18a64736f6c634300080f0033",
  "immutableReferences": {},
  "source": "// SPDX-License-Identifier:MIT\n\npragma solidity ^0.8.1;\n\ncontract FundAllocation {\n    uint256 public provinceIndex = 0;\n    uint256 public contractorIndex = 0;\n    address private admin;\n\n    struct Province {\n        uint256 id;\n        string name;\n        uint256 stateNo;\n        string capital;\n        address wallet;\n        bool isApproved;\n        bool isRegistered;\n    }\n\n    struct Contractor {\n        uint256 id;\n        string name;\n        bool isApproved;\n        bool isRegistered;\n    }\n\n    address[] public provinceList;\n    address[] public contractorList;\n\n    mapping(address => Province) provinces;\n    mapping(address => Contractor) contractors;\n    mapping(address => bool) isProvince;\n    mapping(address => bool) isContractor;\n\n    constructor() {\n        admin = msg.sender;\n    }\n\n    modifier excludeAdmin(address _address) {\n        require(_address != admin, \"Admin cannot be registered as Province\");\n        _;\n    }\n\n    modifier verifierAdmin(address _address) {\n        require(_address == admin, \"Only Admin can verify.\");\n        _;\n    }\n\n    modifier verifierProvince(address _address) {\n        require(\n            (isProvince[_address] && provinces[_address].isApproved),\n            \"Only approved Province can verify.\"\n        );\n        _;\n    }\n\n    modifier registeredAndApprovedProvince(address _address) {\n        require(\n            (provinces[_address].isRegistered &&\n                provinces[_address].isApproved),\n            \"You are not registered or approved province\"\n        );\n        _;\n    }\n\n    function findUserRole(address _address)\n        public\n        view\n        returns (string memory user)\n    {\n        if (_address == admin) {\n            return \"admin\";\n        } else if (isProvince[_address] == true) {\n            return \"province\";\n        } else if (isContractor[_address] == true) {\n            return \"contractor\";\n        } else {\n            return \"unAuthorized\";\n        }\n    }\n\n    function registerProvince(\n        string memory _name,\n        uint256 _stateNo,\n        string memory _capital\n    ) public excludeAdmin(msg.sender) returns (bool) {\n        require(bytes(_name).length > 0);\n        require(_stateNo > 0);\n        require(bytes(_capital).length > 0);\n        address _address = msg.sender;\n\n        provinceList.push(_address);\n        provinceIndex += 1;\n\n        provinces[_address].name = _name;\n        provinces[_address].stateNo = _stateNo;\n        provinces[_address].capital = _capital;\n        provinces[_address].wallet = _address;\n        provinces[_address].isRegistered = true;\n        isProvince[_address] = true;\n        return true;\n    }\n\n    function verifyProvince(address _address)\n        public\n        verifierAdmin(msg.sender)\n        returns (bool)\n    {\n        require(\n            !provinces[_address].isApproved,\n            \"The province is already approved\"\n        );\n        provinces[_address].isApproved = true;\n        return true;\n    }\n\n    function allProvince(uint256 _id)\n        public\n        view\n        returns (\n            string memory,\n            uint256,\n            string memory,\n            address,\n            bool,\n            bool\n        )\n    {\n        address _address = provinceList[_id];\n        Province memory currentProvince = provinces[_address];\n        return (\n            currentProvince.name,\n            currentProvince.stateNo,\n            currentProvince.capital,\n            currentProvince.wallet,\n            currentProvince.isRegistered,\n            currentProvince.isApproved\n        );\n    }\n\n    function myProvince()\n        public\n        view\n        registeredAndApprovedProvince(msg.sender)\n        returns (\n            uint256,\n            string memory,\n            uint256,\n            string memory\n        )\n    {\n        Province memory currentProvince = provinces[msg.sender];\n        return (\n            currentProvince.id,\n            currentProvince.name,\n            currentProvince.stateNo,\n            currentProvince.capital\n        );\n    }\n\n    function registerContractor(string memory _name)\n        public\n        excludeAdmin(msg.sender)\n    {\n        require(bytes(_name).length > 0);\n        address _address = msg.sender;\n\n        contractorList.push(_address);\n        contractorIndex += 1;\n\n        contractors[_address].name = _name;\n        contractors[_address].isRegistered = true;\n        isContractor[_address] = true;\n    }\n\n    function verifyContractor(address _address)\n        public\n        verifierProvince(msg.sender)\n        returns (bool)\n    {\n        require(\n            !contractors[_address].isApproved,\n            \"The Contractor is already approved\"\n        );\n        provinces[_address].isApproved = true;\n        return true;\n    }\n\n    // function getTotalStates() public view returns(uint256){\n    //     return stateList.length;\n    // }\n\n    // function stateLogin() public{\n    //     if(states[msg.sender].isApproved == true ){\n\n    //     }\n    // }\n}\n",
  "sourcePath": "/media/iambks/Disk 3/esatya/blockchain-materials/blockchain/GFA/client-side/src/contracts/FundAllocation.sol",
  "compiler": {
    "name": "solc",
    "version": "0.8.15+commit.e14f2714.Emscripten.clang"
  },
  "schemaVersion": "3.4.7",
  "updatedAt": "2022-06-27T15:56:27.497Z",
  "networkType": "ethereum",
  "devdoc": {
    "kind": "dev",
    "methods": {},
    "version": 1
  },
  "userdoc": {
    "kind": "user",
    "methods": {},
    "version": 1
  }
}