{
  "contractName": "FundAllocation",
  "abi": [
    {
      "inputs": [],
      "stateMutability": "nonpayable",
      "type": "constructor"
    },
    {
      "inputs": [],
      "name": "contractorIndex",
      "outputs": [
        {
          "internalType": "uint256",
          "name": "",
          "type": "uint256"
        }
      ],
      "stateMutability": "view",
      "type": "function",
      "constant": true
    },
    {
      "inputs": [
        {
          "internalType": "uint256",
          "name": "",
          "type": "uint256"
        }
      ],
      "name": "contractorList",
      "outputs": [
        {
          "internalType": "address",
          "name": "",
          "type": "address"
        }
      ],
      "stateMutability": "view",
      "type": "function",
      "constant": true
    },
    {
      "inputs": [],
      "name": "provinceIndex",
      "outputs": [
        {
          "internalType": "uint256",
          "name": "",
          "type": "uint256"
        }
      ],
      "stateMutability": "view",
      "type": "function",
      "constant": true
    },
    {
      "inputs": [
        {
          "internalType": "uint256",
          "name": "",
          "type": "uint256"
        }
      ],
      "name": "provinceList",
      "outputs": [
        {
          "internalType": "address",
          "name": "",
          "type": "address"
        }
      ],
      "stateMutability": "view",
      "type": "function",
      "constant": true
    },
    {
      "inputs": [
        {
          "internalType": "address",
          "name": "_address",
          "type": "address"
        }
      ],
      "name": "findUserRole",
      "outputs": [
        {
          "internalType": "string",
          "name": "user",
          "type": "string"
        }
      ],
      "stateMutability": "view",
      "type": "function",
      "constant": true
    },
    {
      "inputs": [
        {
          "internalType": "string",
          "name": "_name",
          "type": "string"
        },
        {
          "internalType": "uint256",
          "name": "_stateNo",
          "type": "uint256"
        },
        {
          "internalType": "string",
          "name": "_capital",
          "type": "string"
        }
      ],
      "name": "registerProvince",
      "outputs": [
        {
          "internalType": "bool",
          "name": "",
          "type": "bool"
        }
      ],
      "stateMutability": "nonpayable",
      "type": "function"
    },
    {
      "inputs": [
        {
          "internalType": "address",
          "name": "_address",
          "type": "address"
        }
      ],
      "name": "verifyProvince",
      "outputs": [
        {
          "internalType": "bool",
          "name": "",
          "type": "bool"
        }
      ],
      "stateMutability": "nonpayable",
      "type": "function"
    },
    {
      "inputs": [
        {
          "internalType": "uint256",
          "name": "_id",
          "type": "uint256"
        }
      ],
      "name": "allProvince",
      "outputs": [
        {
          "internalType": "string",
          "name": "",
          "type": "string"
        },
        {
          "internalType": "uint256",
          "name": "",
          "type": "uint256"
        },
        {
          "internalType": "string",
          "name": "",
          "type": "string"
        },
        {
          "internalType": "address",
          "name": "",
          "type": "address"
        }
      ],
      "stateMutability": "view",
      "type": "function",
      "constant": true
    },
    {
      "inputs": [],
      "name": "myProvince",
      "outputs": [
        {
          "internalType": "uint256",
          "name": "",
          "type": "uint256"
        },
        {
          "internalType": "string",
          "name": "",
          "type": "string"
        },
        {
          "internalType": "uint256",
          "name": "",
          "type": "uint256"
        },
        {
          "internalType": "string",
          "name": "",
          "type": "string"
        }
      ],
      "stateMutability": "view",
      "type": "function",
      "constant": true
    },
    {
      "inputs": [
        {
          "internalType": "string",
          "name": "_name",
          "type": "string"
        }
      ],
      "name": "registerContractor",
      "outputs": [],
      "stateMutability": "nonpayable",
      "type": "function"
    },
    {
      "inputs": [
        {
          "internalType": "address",
          "name": "_address",
          "type": "address"
        }
      ],
      "name": "verifyContractor",
      "outputs": [
        {
          "internalType": "bool",
          "name": "",
          "type": "bool"
        }
      ],
      "stateMutability": "nonpayable",
      "type": "function"
    }
  ],
  "bytecode": "0x608060405260008055600060015534801561001957600080fd5b5033600260006101000a81548173ffffffffffffffffffffffffffffffffffffffff021916908373ffffffffffffffffffffffffffffffffffffffff160217905550611f768061006a6000396000f3fe608060405234801561001057600080fd5b50600436106100a95760003560e01c80639e7f9103116100715780639e7f91031461017b578063bf1f237f1461019c578063d39e55d5146101ba578063d8d77461146101ea578063dc7a72e71461021a578063e1b44d2b1461024a576100a9565b80630701fb5b146100ae57806317a25988146100cc57806330445b48146100fc57806370fb7d19146101185780639455d1f214610148575b600080fd5b6100b661027a565b6040516100c391906113b1565b60405180910390f35b6100e660048036038101906100e1919061140c565b610280565b6040516100f3919061147a565b60405180910390f35b610116600480360381019061011191906115db565b6102bf565b005b610132600480360381019061012d9190611650565b6104e7565b60405161013f9190611705565b60405180910390f35b610162600480360381019061015d919061140c565b6106e3565b6040516101729493929190611727565b60405180910390f35b610183610964565b604051610193949392919061177a565b60405180910390f35b6101a4610c8a565b6040516101b191906113b1565b60405180910390f35b6101d460048036038101906101cf919061140c565b610c90565b6040516101e1919061147a565b60405180910390f35b61020460048036038101906101ff9190611650565b610ccf565b60405161021191906117e8565b60405180910390f35b610234600480360381019061022f9190611650565b610e57565b60405161024191906117e8565b60405180910390f35b610264600480360381019061025f9190611803565b611033565b60405161027191906117e8565b60405180910390f35b60005481565b6004818154811061029057600080fd5b906000526020600020016000915054906101000a900473ffffffffffffffffffffffffffffffffffffffff1681565b33600260009054906101000a900473ffffffffffffffffffffffffffffffffffffffff1673ffffffffffffffffffffffffffffffffffffffff168173ffffffffffffffffffffffffffffffffffffffff1603610350576040517f08c379a000000000000000000000000000000000000000000000000000000000815260040161034790611900565b60405180910390fd5b600082511161035e57600080fd5b60003390506004819080600181540180825580915050600190039060005260206000200160009091909190916101000a81548173ffffffffffffffffffffffffffffffffffffffff021916908373ffffffffffffffffffffffffffffffffffffffff16021790555060018060008282546103d8919061194f565b9250508190555082600660008373ffffffffffffffffffffffffffffffffffffffff1673ffffffffffffffffffffffffffffffffffffffff168152602001908152602001600020600101908161042e9190611bb1565b506001600660008373ffffffffffffffffffffffffffffffffffffffff1673ffffffffffffffffffffffffffffffffffffffff16815260200190815260200160002060020160016101000a81548160ff0219169083151502179055506001600860008373ffffffffffffffffffffffffffffffffffffffff1673ffffffffffffffffffffffffffffffffffffffff16815260200190815260200160002060006101000a81548160ff021916908315150217905550505050565b6060600260009054906101000a900473ffffffffffffffffffffffffffffffffffffffff1673ffffffffffffffffffffffffffffffffffffffff168273ffffffffffffffffffffffffffffffffffffffff160361057b576040518060400160405280600581526020017f61646d696e00000000000000000000000000000000000000000000000000000081525090506106de565b60011515600760008473ffffffffffffffffffffffffffffffffffffffff1673ffffffffffffffffffffffffffffffffffffffff16815260200190815260200160002060009054906101000a900460ff16151503610610576040518060400160405280600881526020017f70726f76696e636500000000000000000000000000000000000000000000000081525090506106de565b60011515600860008473ffffffffffffffffffffffffffffffffffffffff1673ffffffffffffffffffffffffffffffffffffffff16815260200190815260200160002060009054906101000a900460ff161515036106a5576040518060400160405280600a81526020017f636f6e74726163746f720000000000000000000000000000000000000000000081525090506106de565b6040518060400160405280600c81526020017f756e417574686f72697a6564000000000000000000000000000000000000000081525090505b919050565b60606000606060008060038681548110610700576106ff611c83565b5b9060005260206000200160009054906101000a900473ffffffffffffffffffffffffffffffffffffffff1690506000600560008373ffffffffffffffffffffffffffffffffffffffff1673ffffffffffffffffffffffffffffffffffffffff1681526020019081526020016000206040518060e001604052908160008201548152602001600182018054610793906119d4565b80601f01602080910402602001604051908101604052809291908181526020018280546107bf906119d4565b801561080c5780601f106107e15761010080835404028352916020019161080c565b820191906000526020600020905b8154815290600101906020018083116107ef57829003601f168201915b505050505081526020016002820154815260200160038201805461082f906119d4565b80601f016020809104026020016040519081016040528092919081815260200182805461085b906119d4565b80156108a85780601f1061087d576101008083540402835291602001916108a8565b820191906000526020600020905b81548152906001019060200180831161088b57829003601f168201915b505050505081526020016004820160009054906101000a900473ffffffffffffffffffffffffffffffffffffffff1673ffffffffffffffffffffffffffffffffffffffff1673ffffffffffffffffffffffffffffffffffffffff1681526020016004820160149054906101000a900460ff161515151581526020016004820160159054906101000a900460ff16151515158152505090508060200151816040015182606001518360800151955095509550955050509193509193565b600060606000606033600560008273ffffffffffffffffffffffffffffffffffffffff1673ffffffffffffffffffffffffffffffffffffffff16815260200190815260200160002060040160159054906101000a900460ff168015610a155750600560008273ffffffffffffffffffffffffffffffffffffffff1673ffffffffffffffffffffffffffffffffffffffff16815260200190815260200160002060040160149054906101000a900460ff165b610a54576040517f08c379a0000000000000000000000000000000000000000000000000000000008152600401610a4b90611d24565b60405180910390fd5b6000600560003373ffffffffffffffffffffffffffffffffffffffff1673ffffffffffffffffffffffffffffffffffffffff1681526020019081526020016000206040518060e001604052908160008201548152602001600182018054610aba906119d4565b80601f0160208091040260200160405190810160405280929190818152602001828054610ae6906119d4565b8015610b335780601f10610b0857610100808354040283529160200191610b33565b820191906000526020600020905b815481529060010190602001808311610b1657829003601f168201915b5050505050815260200160028201548152602001600382018054610b56906119d4565b80601f0160208091040260200160405190810160405280929190818152602001828054610b82906119d4565b8015610bcf5780601f10610ba457610100808354040283529160200191610bcf565b820191906000526020600020905b815481529060010190602001808311610bb257829003601f168201915b505050505081526020016004820160009054906101000a900473ffffffffffffffffffffffffffffffffffffffff1673ffffffffffffffffffffffffffffffffffffffff1673ffffffffffffffffffffffffffffffffffffffff1681526020016004820160149054906101000a900460ff161515151581526020016004820160159054906101000a900460ff161515151581525050905080600001518160200151826040015183606001519550955095509550505090919293565b60015481565b60038181548110610ca057600080fd5b906000526020600020016000915054906101000a900473ffffffffffffffffffffffffffffffffffffffff1681565b600033600260009054906101000a900473ffffffffffffffffffffffffffffffffffffffff1673ffffffffffffffffffffffffffffffffffffffff168173ffffffffffffffffffffffffffffffffffffffff1614610d62576040517f08c379a0000000000000000000000000000000000000000000000000000000008152600401610d5990611d90565b60405180910390fd5b600560008473ffffffffffffffffffffffffffffffffffffffff1673ffffffffffffffffffffffffffffffffffffffff16815260200190815260200160002060040160149054906101000a900460ff1615610df2576040517f08c379a0000000000000000000000000000000000000000000000000000000008152600401610de990611dfc565b60405180910390fd5b6001600560008573ffffffffffffffffffffffffffffffffffffffff1673ffffffffffffffffffffffffffffffffffffffff16815260200190815260200160002060040160146101000a81548160ff0219169083151502179055506001915050919050565b600033600760008273ffffffffffffffffffffffffffffffffffffffff1673ffffffffffffffffffffffffffffffffffffffff16815260200190815260200160002060009054906101000a900460ff168015610eff5750600560008273ffffffffffffffffffffffffffffffffffffffff1673ffffffffffffffffffffffffffffffffffffffff16815260200190815260200160002060040160149054906101000a900460ff165b610f3e576040517f08c379a0000000000000000000000000000000000000000000000000000000008152600401610f3590611e8e565b60405180910390fd5b600660008473ffffffffffffffffffffffffffffffffffffffff1673ffffffffffffffffffffffffffffffffffffffff16815260200190815260200160002060020160009054906101000a900460ff1615610fce576040517f08c379a0000000000000000000000000000000000000000000000000000000008152600401610fc590611f20565b60405180910390fd5b6001600560008573ffffffffffffffffffffffffffffffffffffffff1673ffffffffffffffffffffffffffffffffffffffff16815260200190815260200160002060040160146101000a81548160ff0219169083151502179055506001915050919050565b600033600260009054906101000a900473ffffffffffffffffffffffffffffffffffffffff1673ffffffffffffffffffffffffffffffffffffffff168173ffffffffffffffffffffffffffffffffffffffff16036110c6576040517f08c379a00000000000000000000000000000000000000000000000000000000081526004016110bd90611900565b60405180910390fd5b60008551116110d457600080fd5b600084116110e157600080fd5b60008351116110ef57600080fd5b60003390506003819080600181540180825580915050600190039060005260206000200160009091909190916101000a81548173ffffffffffffffffffffffffffffffffffffffff021916908373ffffffffffffffffffffffffffffffffffffffff1602179055506001600080828254611169919061194f565b9250508190555085600560008373ffffffffffffffffffffffffffffffffffffffff1673ffffffffffffffffffffffffffffffffffffffff16815260200190815260200160002060010190816111bf9190611bb1565b5084600560008373ffffffffffffffffffffffffffffffffffffffff1673ffffffffffffffffffffffffffffffffffffffff1681526020019081526020016000206002018190555083600560008373ffffffffffffffffffffffffffffffffffffffff1673ffffffffffffffffffffffffffffffffffffffff16815260200190815260200160002060030190816112569190611bb1565b5080600560008373ffffffffffffffffffffffffffffffffffffffff1673ffffffffffffffffffffffffffffffffffffffff16815260200190815260200160002060040160006101000a81548173ffffffffffffffffffffffffffffffffffffffff021916908373ffffffffffffffffffffffffffffffffffffffff1602179055506001600560008373ffffffffffffffffffffffffffffffffffffffff1673ffffffffffffffffffffffffffffffffffffffff16815260200190815260200160002060040160156101000a81548160ff0219169083151502179055506001600760008373ffffffffffffffffffffffffffffffffffffffff1673ffffffffffffffffffffffffffffffffffffffff16815260200190815260200160002060006101000a81548160ff0219169083151502179055506001925050509392505050565b6000819050919050565b6113ab81611398565b82525050565b60006020820190506113c660008301846113a2565b92915050565b6000604051905090565b600080fd5b600080fd5b6113e981611398565b81146113f457600080fd5b50565b600081359050611406816113e0565b92915050565b600060208284031215611422576114216113d6565b5b6000611430848285016113f7565b91505092915050565b600073ffffffffffffffffffffffffffffffffffffffff82169050919050565b600061146482611439565b9050919050565b61147481611459565b82525050565b600060208201905061148f600083018461146b565b92915050565b600080fd5b600080fd5b6000601f19601f8301169050919050565b7f4e487b7100000000000000000000000000000000000000000000000000000000600052604160045260246000fd5b6114e88261149f565b810181811067ffffffffffffffff82111715611507576115066114b0565b5b80604052505050565b600061151a6113cc565b905061152682826114df565b919050565b600067ffffffffffffffff821115611546576115456114b0565b5b61154f8261149f565b9050602081019050919050565b82818337600083830152505050565b600061157e6115798461152b565b611510565b90508281526020810184848401111561159a5761159961149a565b5b6115a584828561155c565b509392505050565b600082601f8301126115c2576115c1611495565b5b81356115d284826020860161156b565b91505092915050565b6000602082840312156115f1576115f06113d6565b5b600082013567ffffffffffffffff81111561160f5761160e6113db565b5b61161b848285016115ad565b91505092915050565b61162d81611459565b811461163857600080fd5b50565b60008135905061164a81611624565b92915050565b600060208284031215611666576116656113d6565b5b60006116748482850161163b565b91505092915050565b600081519050919050565b600082825260208201905092915050565b60005b838110156116b757808201518184015260208101905061169c565b838111156116c6576000848401525b50505050565b60006116d78261167d565b6116e18185611688565b93506116f1818560208601611699565b6116fa8161149f565b840191505092915050565b6000602082019050818103600083015261171f81846116cc565b905092915050565b6000608082019050818103600083015261174181876116cc565b905061175060208301866113a2565b818103604083015261176281856116cc565b9050611771606083018461146b565b95945050505050565b600060808201905061178f60008301876113a2565b81810360208301526117a181866116cc565b90506117b060408301856113a2565b81810360608301526117c281846116cc565b905095945050505050565b60008115159050919050565b6117e2816117cd565b82525050565b60006020820190506117fd60008301846117d9565b92915050565b60008060006060848603121561181c5761181b6113d6565b5b600084013567ffffffffffffffff81111561183a576118396113db565b5b611846868287016115ad565b9350506020611857868287016113f7565b925050604084013567ffffffffffffffff811115611878576118776113db565b5b611884868287016115ad565b9150509250925092565b7f41646d696e2063616e6e6f74206265207265676973746572656420617320507260008201527f6f76696e63650000000000000000000000000000000000000000000000000000602082015250565b60006118ea602683611688565b91506118f58261188e565b604082019050919050565b60006020820190508181036000830152611919816118dd565b9050919050565b7f4e487b7100000000000000000000000000000000000000000000000000000000600052601160045260246000fd5b600061195a82611398565b915061196583611398565b9250827fffffffffffffffffffffffffffffffffffffffffffffffffffffffffffffffff0382111561199a57611999611920565b5b828201905092915050565b7f4e487b7100000000000000000000000000000000000000000000000000000000600052602260045260246000fd5b600060028204905060018216806119ec57607f821691505b6020821081036119ff576119fe6119a5565b5b50919050565b60008190508160005260206000209050919050565b60006020601f8301049050919050565b600082821b905092915050565b600060088302611a677fffffffffffffffffffffffffffffffffffffffffffffffffffffffffffffffff82611a2a565b611a718683611a2a565b95508019841693508086168417925050509392505050565b6000819050919050565b6000611aae611aa9611aa484611398565b611a89565b611398565b9050919050565b6000819050919050565b611ac883611a93565b611adc611ad482611ab5565b848454611a37565b825550505050565b600090565b611af1611ae4565b611afc818484611abf565b505050565b5b81811015611b2057611b15600082611ae9565b600181019050611b02565b5050565b601f821115611b6557611b3681611a05565b611b3f84611a1a565b81016020851015611b4e578190505b611b62611b5a85611a1a565b830182611b01565b50505b505050565b600082821c905092915050565b6000611b8860001984600802611b6a565b1980831691505092915050565b6000611ba18383611b77565b9150826002028217905092915050565b611bba8261167d565b67ffffffffffffffff811115611bd357611bd26114b0565b5b611bdd82546119d4565b611be8828285611b24565b600060209050601f831160018114611c1b5760008415611c09578287015190505b611c138582611b95565b865550611c7b565b601f198416611c2986611a05565b60005b82811015611c5157848901518255600182019150602085019450602081019050611c2c565b86831015611c6e5784890151611c6a601f891682611b77565b8355505b6001600288020188555050505b505050505050565b7f4e487b7100000000000000000000000000000000000000000000000000000000600052603260045260246000fd5b7f596f7520617265206e6f742072656769737465726564206f7220617070726f7660008201527f65642070726f76696e6365000000000000000000000000000000000000000000602082015250565b6000611d0e602b83611688565b9150611d1982611cb2565b604082019050919050565b60006020820190508181036000830152611d3d81611d01565b9050919050565b7f4f6e6c792041646d696e2063616e207665726966792e00000000000000000000600082015250565b6000611d7a601683611688565b9150611d8582611d44565b602082019050919050565b60006020820190508181036000830152611da981611d6d565b9050919050565b7f5468652070726f76696e636520697320616c726561647920617070726f766564600082015250565b6000611de6602083611688565b9150611df182611db0565b602082019050919050565b60006020820190508181036000830152611e1581611dd9565b9050919050565b7f4f6e6c7920617070726f7665642050726f76696e63652063616e20766572696660008201527f792e000000000000000000000000000000000000000000000000000000000000602082015250565b6000611e78602283611688565b9150611e8382611e1c565b604082019050919050565b60006020820190508181036000830152611ea781611e6b565b9050919050565b7f54686520436f6e74726163746f7220697320616c726561647920617070726f7660008201527f6564000000000000000000000000000000000000000000000000000000000000602082015250565b6000611f0a602283611688565b9150611f1582611eae565b604082019050919050565b60006020820190508181036000830152611f3981611efd565b905091905056fea264697066735822122010e6382d81fa3b5da9ec606eda0076216e2555c830e839ee6540b8beb129ae7c64736f6c634300080f0033",
  "immutableReferences": {},
  "source": "// SPDX-License-Identifier:MIT\n\npragma solidity ^0.8.1;\n\ncontract FundAllocation {\n    uint256 public provinceIndex = 0;\n    uint256 public contractorIndex = 0;\n    address private admin;\n\n    struct Province {\n        uint256 id;\n        string name;\n        uint256 stateNo;\n        string capital;\n        address wallet;\n        bool isApproved;\n        bool isRegistered;\n    }\n\n    struct Contractor {\n        uint256 id;\n        string name;\n        bool isApproved;\n        bool isRegistered;\n    }\n\n    address[] public provinceList;\n    address[] public contractorList;\n\n    mapping(address => Province) provinces;\n    mapping(address => Contractor) contractors;\n    mapping(address => bool) isProvince;\n    mapping(address => bool) isContractor;\n\n    constructor() {\n        admin = msg.sender;\n    }\n\n    modifier excludeAdmin(address _address) {\n        require(_address != admin, \"Admin cannot be registered as Province\");\n        _;\n    }\n\n    modifier verifierAdmin(address _address) {\n        require(_address == admin, \"Only Admin can verify.\");\n        _;\n    }\n\n    modifier verifierProvince(address _address) {\n        require(\n            (isProvince[_address] && provinces[_address].isApproved),\n            \"Only approved Province can verify.\"\n        );\n        _;\n    }\n\n    modifier registeredAndApprovedProvince(address _address) {\n        require(\n            (provinces[_address].isRegistered &&\n                provinces[_address].isApproved),\n            \"You are not registered or approved province\"\n        );\n        _;\n    }\n\n    function findUserRole(address _address)\n        public\n        view\n        returns (string memory user)\n    {\n        if (_address == admin) {\n            return \"admin\";\n        } else if (isProvince[_address] == true) {\n            return \"province\";\n        } else if (isContractor[_address] == true) {\n            return \"contractor\";\n        } else {\n            return \"unAuthorized\";\n        }\n    }\n\n    function registerProvince(\n        string memory _name,\n        uint256 _stateNo,\n        string memory _capital\n    ) public excludeAdmin(msg.sender) returns (bool) {\n        require(bytes(_name).length > 0);\n        require(_stateNo > 0);\n        require(bytes(_capital).length > 0);\n        address _address = msg.sender;\n\n        provinceList.push(_address);\n        provinceIndex += 1;\n\n        provinces[_address].name = _name;\n        provinces[_address].stateNo = _stateNo;\n        provinces[_address].capital = _capital;\n        provinces[_address].wallet = _address;\n        provinces[_address].isRegistered = true;\n        isProvince[_address] = true;\n        return true;\n    }\n\n    function verifyProvince(address _address)\n        public\n        verifierAdmin(msg.sender)\n        returns (bool)\n    {\n        require(\n            !provinces[_address].isApproved,\n            \"The province is already approved\"\n        );\n        provinces[_address].isApproved = true;\n        return true;\n    }\n\n    function allProvince(uint256 _id)\n        public\n        view\n        returns (\n            string memory,\n            uint256,\n            string memory,\n            address\n        )\n    {\n        address _address = provinceList[_id];\n        Province memory currentProvince = provinces[_address];\n        return (\n            currentProvince.name,\n            currentProvince.stateNo,\n            currentProvince.capital,\n            currentProvince.wallet\n        );\n    }\n\n    function myProvince()\n        public\n        view\n        registeredAndApprovedProvince(msg.sender)\n        returns (\n            uint256,\n            string memory,\n            uint256,\n            string memory\n        )\n    {\n        Province memory currentProvince = provinces[msg.sender];\n        return (\n            currentProvince.id,\n            currentProvince.name,\n            currentProvince.stateNo,\n            currentProvince.capital\n        );\n    }\n\n    function registerContractor(string memory _name)\n        public\n        excludeAdmin(msg.sender)\n    {\n        require(bytes(_name).length > 0);\n        address _address = msg.sender;\n\n        contractorList.push(_address);\n        contractorIndex += 1;\n\n        contractors[_address].name = _name;\n        contractors[_address].isRegistered = true;\n        isContractor[_address] = true;\n    }\n\n    function verifyContractor(address _address)\n        public\n        verifierProvince(msg.sender)\n        returns (bool)\n    {\n        require(\n            !contractors[_address].isApproved,\n            \"The Contractor is already approved\"\n        );\n        provinces[_address].isApproved = true;\n        return true;\n    }\n\n    // function getTotalStates() public view returns(uint256){\n    //     return stateList.length;\n    // }\n\n    // function stateLogin() public{\n    //     if(states[msg.sender].isApproved == true ){\n\n    //     }\n    // }\n}\n",
  "sourcePath": "/media/iambks/Disk 3/esatya/blockchain-materials/blockchain/GFA/client-side/src/contracts/FundAllocation.sol",
  "compiler": {
    "name": "solc",
    "version": "0.8.15+commit.e14f2714.Emscripten.clang"
  },
  "schemaVersion": "3.4.7",
  "updatedAt": "2022-06-26T18:34:50.091Z",
  "networkType": "ethereum",
  "devdoc": {
    "kind": "dev",
    "methods": {},
    "version": 1
  },
  "userdoc": {
    "kind": "user",
    "methods": {},
    "version": 1
  }
}