{
  "contractName": "FundAllocation",
  "abi": [
    {
      "inputs": [],
      "stateMutability": "nonpayable",
      "type": "constructor"
    },
    {
      "anonymous": false,
      "inputs": [
        {
          "indexed": false,
          "internalType": "address",
          "name": "_address",
          "type": "address"
        },
        {
          "indexed": false,
          "internalType": "uint256",
          "name": "_id",
          "type": "uint256"
        }
      ],
      "name": "appliedForProject",
      "type": "event"
    },
    {
      "anonymous": false,
      "inputs": [
        {
          "indexed": false,
          "internalType": "address",
          "name": "_to",
          "type": "address"
        },
        {
          "indexed": false,
          "internalType": "address",
          "name": "_by",
          "type": "address"
        },
        {
          "indexed": false,
          "internalType": "uint256",
          "name": "_id",
          "type": "uint256"
        }
      ],
      "name": "assignedProject",
      "type": "event"
    },
    {
      "anonymous": false,
      "inputs": [
        {
          "indexed": false,
          "internalType": "address",
          "name": "_address",
          "type": "address"
        },
        {
          "indexed": false,
          "internalType": "string",
          "name": "_contractorname",
          "type": "string"
        }
      ],
      "name": "contractorRegistered",
      "type": "event"
    },
    {
      "anonymous": false,
      "inputs": [
        {
          "indexed": false,
          "internalType": "address",
          "name": "_of",
          "type": "address"
        },
        {
          "indexed": false,
          "internalType": "address",
          "name": "_by",
          "type": "address"
        }
      ],
      "name": "contractorVerified",
      "type": "event"
    },
    {
      "anonymous": false,
      "inputs": [
        {
          "indexed": false,
          "internalType": "address",
          "name": "_address",
          "type": "address"
        },
        {
          "indexed": false,
          "internalType": "string",
          "name": "_projectname",
          "type": "string"
        }
      ],
      "name": "provinceProjectCreated",
      "type": "event"
    },
    {
      "anonymous": false,
      "inputs": [
        {
          "indexed": false,
          "internalType": "address",
          "name": "_address",
          "type": "address"
        },
        {
          "indexed": false,
          "internalType": "string",
          "name": "_provincename",
          "type": "string"
        }
      ],
      "name": "provinceRegistered",
      "type": "event"
    },
    {
      "anonymous": false,
      "inputs": [
        {
          "indexed": false,
          "internalType": "address",
          "name": "_of",
          "type": "address"
        },
        {
          "indexed": false,
          "internalType": "address",
          "name": "_by",
          "type": "address"
        }
      ],
      "name": "provinceVerified",
      "type": "event"
    },
    {
      "inputs": [],
      "name": "contractorIndex",
      "outputs": [
        {
          "internalType": "uint256",
          "name": "",
          "type": "uint256"
        }
      ],
      "stateMutability": "view",
      "type": "function",
      "constant": true
    },
    {
      "inputs": [
        {
          "internalType": "uint256",
          "name": "",
          "type": "uint256"
        }
      ],
      "name": "contractorList",
      "outputs": [
        {
          "internalType": "address",
          "name": "",
          "type": "address"
        }
      ],
      "stateMutability": "view",
      "type": "function",
      "constant": true
    },
    {
      "inputs": [],
      "name": "projectIndex",
      "outputs": [
        {
          "internalType": "uint256",
          "name": "",
          "type": "uint256"
        }
      ],
      "stateMutability": "view",
      "type": "function",
      "constant": true
    },
    {
      "inputs": [],
      "name": "provinceIndex",
      "outputs": [
        {
          "internalType": "uint256",
          "name": "",
          "type": "uint256"
        }
      ],
      "stateMutability": "view",
      "type": "function",
      "constant": true
    },
    {
      "inputs": [
        {
          "internalType": "uint256",
          "name": "",
          "type": "uint256"
        }
      ],
      "name": "provinceList",
      "outputs": [
        {
          "internalType": "address",
          "name": "",
          "type": "address"
        }
      ],
      "stateMutability": "view",
      "type": "function",
      "constant": true
    },
    {
      "inputs": [
        {
          "internalType": "address",
          "name": "_address",
          "type": "address"
        }
      ],
      "name": "findUserRole",
      "outputs": [
        {
          "internalType": "string",
          "name": "user",
          "type": "string"
        }
      ],
      "stateMutability": "view",
      "type": "function",
      "constant": true
    },
    {
      "inputs": [
        {
          "internalType": "string",
          "name": "_name",
          "type": "string"
        },
        {
          "internalType": "uint256",
          "name": "_stateNo",
          "type": "uint256"
        },
        {
          "internalType": "string",
          "name": "_capital",
          "type": "string"
        }
      ],
      "name": "registerProvince",
      "outputs": [
        {
          "internalType": "bool",
          "name": "",
          "type": "bool"
        }
      ],
      "stateMutability": "nonpayable",
      "type": "function"
    },
    {
      "inputs": [
        {
          "internalType": "address",
          "name": "_address",
          "type": "address"
        }
      ],
      "name": "verifyProvince",
      "outputs": [
        {
          "internalType": "bool",
          "name": "",
          "type": "bool"
        }
      ],
      "stateMutability": "nonpayable",
      "type": "function"
    },
    {
      "inputs": [
        {
          "internalType": "uint256",
          "name": "_id",
          "type": "uint256"
        }
      ],
      "name": "allProvince",
      "outputs": [
        {
          "internalType": "string",
          "name": "",
          "type": "string"
        },
        {
          "internalType": "uint256",
          "name": "",
          "type": "uint256"
        },
        {
          "internalType": "string",
          "name": "",
          "type": "string"
        },
        {
          "internalType": "address",
          "name": "",
          "type": "address"
        },
        {
          "internalType": "bool",
          "name": "",
          "type": "bool"
        },
        {
          "internalType": "bool",
          "name": "",
          "type": "bool"
        }
      ],
      "stateMutability": "view",
      "type": "function",
      "constant": true
    },
    {
      "inputs": [],
      "name": "myProvince",
      "outputs": [
        {
          "internalType": "uint256",
          "name": "",
          "type": "uint256"
        },
        {
          "internalType": "string",
          "name": "",
          "type": "string"
        },
        {
          "internalType": "uint256",
          "name": "",
          "type": "uint256"
        },
        {
          "internalType": "string",
          "name": "",
          "type": "string"
        },
        {
          "internalType": "bool",
          "name": "",
          "type": "bool"
        },
        {
          "internalType": "bool",
          "name": "",
          "type": "bool"
        }
      ],
      "stateMutability": "view",
      "type": "function",
      "constant": true
    },
    {
      "inputs": [
        {
          "internalType": "string",
          "name": "_name",
          "type": "string"
        }
      ],
      "name": "registerContractor",
      "outputs": [],
      "stateMutability": "nonpayable",
      "type": "function"
    },
    {
      "inputs": [
        {
          "internalType": "address",
          "name": "_address",
          "type": "address"
        }
      ],
      "name": "verifyContractor",
      "outputs": [
        {
          "internalType": "bool",
          "name": "",
          "type": "bool"
        }
      ],
      "stateMutability": "nonpayable",
      "type": "function"
    },
    {
      "inputs": [
        {
          "internalType": "uint256",
          "name": "_id",
          "type": "uint256"
        }
      ],
      "name": "allContractor",
      "outputs": [
        {
          "internalType": "uint256",
          "name": "",
          "type": "uint256"
        },
        {
          "internalType": "string",
          "name": "",
          "type": "string"
        },
        {
          "internalType": "bool",
          "name": "",
          "type": "bool"
        },
        {
          "internalType": "bool",
          "name": "",
          "type": "bool"
        }
      ],
      "stateMutability": "view",
      "type": "function",
      "constant": true
    },
    {
      "inputs": [],
      "name": "myContractor",
      "outputs": [
        {
          "internalType": "uint256",
          "name": "id",
          "type": "uint256"
        },
        {
          "internalType": "string",
          "name": "name",
          "type": "string"
        },
        {
          "internalType": "bool",
          "name": "isRegistered",
          "type": "bool"
        },
        {
          "internalType": "bool",
          "name": "isApproved",
          "type": "bool"
        }
      ],
      "stateMutability": "view",
      "type": "function",
      "constant": true
    },
    {
      "inputs": [
        {
          "internalType": "string",
          "name": "_name",
          "type": "string"
        }
      ],
      "name": "createProvinceProject",
      "outputs": [
        {
          "internalType": "bool",
          "name": "",
          "type": "bool"
        }
      ],
      "stateMutability": "nonpayable",
      "type": "function"
    },
    {
      "inputs": [
        {
          "internalType": "uint256",
          "name": "_id",
          "type": "uint256"
        }
      ],
      "name": "allProject",
      "outputs": [
        {
          "internalType": "uint256",
          "name": "",
          "type": "uint256"
        },
        {
          "internalType": "string",
          "name": "",
          "type": "string"
        },
        {
          "internalType": "string",
          "name": "",
          "type": "string"
        },
        {
          "internalType": "address",
          "name": "",
          "type": "address"
        },
        {
          "internalType": "address",
          "name": "",
          "type": "address"
        },
        {
          "internalType": "bool",
          "name": "",
          "type": "bool"
        },
        {
          "internalType": "bool",
          "name": "",
          "type": "bool"
        }
      ],
      "stateMutability": "view",
      "type": "function",
      "constant": true
    },
    {
      "inputs": [
        {
          "internalType": "uint256",
          "name": "_id",
          "type": "uint256"
        }
      ],
      "name": "applyForProject",
      "outputs": [
        {
          "internalType": "bool",
          "name": "",
          "type": "bool"
        }
      ],
      "stateMutability": "nonpayable",
      "type": "function"
    },
    {
      "inputs": [
        {
          "internalType": "uint256",
          "name": "_id",
          "type": "uint256"
        }
      ],
      "name": "getProjectApplications",
      "outputs": [
        {
          "internalType": "address[]",
          "name": "",
          "type": "address[]"
        }
      ],
      "stateMutability": "view",
      "type": "function",
      "constant": true
    },
    {
      "inputs": [
        {
          "internalType": "uint256",
          "name": "_id",
          "type": "uint256"
        },
        {
          "internalType": "address",
          "name": "_address",
          "type": "address"
        }
      ],
      "name": "assignProject",
      "outputs": [
        {
          "internalType": "bool",
          "name": "",
          "type": "bool"
        }
      ],
      "stateMutability": "nonpayable",
      "type": "function"
    }
  ],
  "bytecode": "0x6080604052600080556000600155600060025534801561001e57600080fd5b5033600360006101000a81548173ffffffffffffffffffffffffffffffffffffffff021916908373ffffffffffffffffffffffffffffffffffffffff160217905550613a928061006f6000396000f3fe608060405234801561001057600080fd5b50600436106101215760003560e01c80639390539f116100ad578063d39e55d511610071578063d39e55d51461037d578063d8d77461146103ad578063dc7a72e7146103dd578063dead451f1461040d578063e1b44d2b1461042e57610121565b80639390539f146102a75780639455d1f2146102d7578063981e9c2b1461030c5780639e7f91031461033c578063bf1f237f1461035f57610121565b806336e9afb5116100f457806336e9afb5146101c65780635e47dbda146101f9578063631847261461022957806370fb7d19146102475780637e020e061461027757610121565b80630701fb5b1461012657806317a259881461014457806330445b481461017457806336a4fc8e14610190575b600080fd5b61012e61045e565b60405161013b9190612865565b60405180910390f35b61015e600480360381019061015991906128c0565b610464565b60405161016b919061292e565b60405180910390f35b61018e60048036038101906101899190612a8f565b6104a3565b005b6101aa60048036038101906101a591906128c0565b610704565b6040516101bd9796959493929190612b7b565b60405180910390f35b6101e060048036038101906101db91906128c0565b6109cf565b6040516101f09493929190612bf8565b60405180910390f35b610213600480360381019061020e9190612a8f565b610b5e565b6040516102209190612c44565b60405180910390f35b610231610ef3565b60405161023e9190612865565b60405180910390f35b610261600480360381019061025c9190612c8b565b610ef9565b60405161026e9190612cb8565b60405180910390f35b610291600480360381019061028c91906128c0565b6110f5565b60405161029e9190612c44565b60405180910390f35b6102c160048036038101906102bc91906128c0565b61134a565b6040516102ce9190612d98565b60405180910390f35b6102f160048036038101906102ec91906128c0565b61143c565b60405161030396959493929190612dba565b60405180910390f35b61032660048036038101906103219190612e29565b6116d0565b6040516103339190612c44565b60405180910390f35b610344611a5a565b60405161035696959493929190612e69565b60405180910390f35b610367611d93565b6040516103749190612865565b60405180910390f35b610397600480360381019061039291906128c0565b611d99565b6040516103a4919061292e565b60405180910390f35b6103c760048036038101906103c29190612c8b565b611dd8565b6040516103d49190612c44565b60405180910390f35b6103f760048036038101906103f29190612c8b565b611f99565b6040516104049190612c44565b60405180910390f35b6104156121ae565b6040516104259493929190612bf8565b60405180910390f35b61044860048036038101906104439190612ed8565b6123e1565b6040516104559190612c44565b60405180910390f35b60005481565b6007818154811061047457600080fd5b906000526020600020016000915054906101000a900473ffffffffffffffffffffffffffffffffffffffff1681565b33600360009054906101000a900473ffffffffffffffffffffffffffffffffffffffff1673ffffffffffffffffffffffffffffffffffffffff168173ffffffffffffffffffffffffffffffffffffffff1603610534576040517f08c379a000000000000000000000000000000000000000000000000000000000815260040161052b90612fd5565b60405180910390fd5b600082511161054257600080fd5b60003390506007819080600181540180825580915050600190039060005260206000200160009091909190916101000a81548173ffffffffffffffffffffffffffffffffffffffff021916908373ffffffffffffffffffffffffffffffffffffffff16021790555060018060008282546105bc9190613024565b9250508190555082600960008373ffffffffffffffffffffffffffffffffffffffff1673ffffffffffffffffffffffffffffffffffffffff16815260200190815260200160002060010190816106129190613286565b506001600960008373ffffffffffffffffffffffffffffffffffffffff1673ffffffffffffffffffffffffffffffffffffffff16815260200190815260200160002060020160016101000a81548160ff0219169083151502179055506001600b60008373ffffffffffffffffffffffffffffffffffffffff1673ffffffffffffffffffffffffffffffffffffffff16815260200190815260200160002060006101000a81548160ff0219169083151502179055507f5c822d6367bbdf88213afd565d7420c0b55eda015703183e8772aee2a14109b781846040516106f7929190613358565b60405180910390a1505050565b600060608060008060008060008810158015610721575060025488105b610760576040517f08c379a0000000000000000000000000000000000000000000000000000000008152600401610757906133d4565b60405180910390fd5b6000600460008a81526020019081526020016000206040518060e00160405290816000820154815260200160018201805461079a906130a9565b80601f01602080910402602001604051908101604052809291908181526020018280546107c6906130a9565b80156108135780601f106107e857610100808354040283529160200191610813565b820191906000526020600020905b8154815290600101906020018083116107f657829003601f168201915b5050505050815260200160028201805461082c906130a9565b80601f0160208091040260200160405190810160405280929190818152602001828054610858906130a9565b80156108a55780601f1061087a576101008083540402835291602001916108a5565b820191906000526020600020905b81548152906001019060200180831161088857829003601f168201915b505050505081526020016003820160009054906101000a900473ffffffffffffffffffffffffffffffffffffffff1673ffffffffffffffffffffffffffffffffffffffff1673ffffffffffffffffffffffffffffffffffffffff1681526020016004820160009054906101000a900473ffffffffffffffffffffffffffffffffffffffff1673ffffffffffffffffffffffffffffffffffffffff1673ffffffffffffffffffffffffffffffffffffffff1681526020016004820160149054906101000a900460ff161515151581526020016004820160159054906101000a900460ff1615151515815250509050806000015181602001518260400151836060015184608001518560a001518660c00151975097509750975097509750975050919395979092949650565b600060606000806000600786815481106109ec576109eb6133f4565b5b9060005260206000200160009054906101000a900473ffffffffffffffffffffffffffffffffffffffff1690506000600960008373ffffffffffffffffffffffffffffffffffffffff1673ffffffffffffffffffffffffffffffffffffffff16815260200190815260200160002060405180608001604052908160008201548152602001600182018054610a7f906130a9565b80601f0160208091040260200160405190810160405280929190818152602001828054610aab906130a9565b8015610af85780601f10610acd57610100808354040283529160200191610af8565b820191906000526020600020905b815481529060010190602001808311610adb57829003601f168201915b505050505081526020016002820160009054906101000a900460ff161515151581526020016002820160019054906101000a900460ff16151515158152505090508060000151816020015182606001518360400151955095509550955050509193509193565b600033600860008273ffffffffffffffffffffffffffffffffffffffff1673ffffffffffffffffffffffffffffffffffffffff16815260200190815260200160002060040160159054906101000a900460ff168015610c095750600860008273ffffffffffffffffffffffffffffffffffffffff1673ffffffffffffffffffffffffffffffffffffffff16815260200190815260200160002060040160149054906101000a900460ff165b610c48576040517f08c379a0000000000000000000000000000000000000000000000000000000008152600401610c3f90613495565b60405180910390fd5b60006040518060e001604052806002548152602001858152602001600860003373ffffffffffffffffffffffffffffffffffffffff1673ffffffffffffffffffffffffffffffffffffffff1681526020019081526020016000206001018054610cb0906130a9565b80601f0160208091040260200160405190810160405280929190818152602001828054610cdc906130a9565b8015610d295780601f10610cfe57610100808354040283529160200191610d29565b820191906000526020600020905b815481529060010190602001808311610d0c57829003601f168201915b505050505081526020013373ffffffffffffffffffffffffffffffffffffffff1681526020013373ffffffffffffffffffffffffffffffffffffffff16815260200160001515815260200160001515815250905080600460006002548152602001908152602001600020600082015181600001556020820151816001019081610db29190613286565b506040820151816002019081610dc89190613286565b5060608201518160030160006101000a81548173ffffffffffffffffffffffffffffffffffffffff021916908373ffffffffffffffffffffffffffffffffffffffff16021790555060808201518160040160006101000a81548173ffffffffffffffffffffffffffffffffffffffff021916908373ffffffffffffffffffffffffffffffffffffffff16021790555060a08201518160040160146101000a81548160ff02191690831515021790555060c08201518160040160156101000a81548160ff0219169083151502179055509050506001600254610ea99190613024565b6002819055507f3e92ec0db7e61d689cde075034c55846637c9aa5c40d1ed6aef8254928cb1ea53385604051610ee0929190613358565b60405180910390a1600192505050919050565b60025481565b6060600360009054906101000a900473ffffffffffffffffffffffffffffffffffffffff1673ffffffffffffffffffffffffffffffffffffffff168273ffffffffffffffffffffffffffffffffffffffff1603610f8d576040518060400160405280600581526020017f61646d696e00000000000000000000000000000000000000000000000000000081525090506110f0565b60011515600a60008473ffffffffffffffffffffffffffffffffffffffff1673ffffffffffffffffffffffffffffffffffffffff16815260200190815260200160002060009054906101000a900460ff16151503611022576040518060400160405280600881526020017f70726f76696e636500000000000000000000000000000000000000000000000081525090506110f0565b60011515600b60008473ffffffffffffffffffffffffffffffffffffffff1673ffffffffffffffffffffffffffffffffffffffff16815260200190815260200160002060009054906101000a900460ff161515036110b7576040518060400160405280600a81526020017f636f6e74726163746f720000000000000000000000000000000000000000000081525090506110f0565b6040518060400160405280600c81526020017f756e417574686f72697a6564000000000000000000000000000000000000000081525090505b919050565b600033600960008273ffffffffffffffffffffffffffffffffffffffff1673ffffffffffffffffffffffffffffffffffffffff16815260200190815260200160002060020160019054906101000a900460ff1680156111a05750600960008273ffffffffffffffffffffffffffffffffffffffff1673ffffffffffffffffffffffffffffffffffffffff16815260200190815260200160002060020160009054906101000a900460ff165b6111df576040517f08c379a00000000000000000000000000000000000000000000000000000000081526004016111d690613527565b60405180910390fd5b600015156004600085815260200190815260200160002060040160149054906101000a900460ff16151514611249576040517f08c379a0000000000000000000000000000000000000000000000000000000008152600401611240906135b9565b60405180910390fd5b611253833361277f565b15611293576040517f08c379a000000000000000000000000000000000000000000000000000000000815260040161128a9061364b565b60405180910390fd5b60056000848152602001908152602001600020339080600181540180825580915050600190039060005260206000200160009091909190916101000a81548173ffffffffffffffffffffffffffffffffffffffff021916908373ffffffffffffffffffffffffffffffffffffffff1602179055507fd59794f8fcadf4edcc0f14071997ee9ce8cff1bf98c048645126b9d26063f57f338460405161133892919061366b565b60405180910390a16001915050919050565b60606000821015801561135e575060025482105b61139d576040517f08c379a0000000000000000000000000000000000000000000000000000000008152600401611394906133d4565b60405180910390fd5b6005600083815260200190815260200160002080548060200260200160405190810160405280929190818152602001828054801561143057602002820191906000526020600020905b8160009054906101000a900473ffffffffffffffffffffffffffffffffffffffff1673ffffffffffffffffffffffffffffffffffffffff16815260200190600101908083116113e6575b50505050509050919050565b6060600060606000806000806006888154811061145c5761145b6133f4565b5b9060005260206000200160009054906101000a900473ffffffffffffffffffffffffffffffffffffffff1690506000600860008373ffffffffffffffffffffffffffffffffffffffff1673ffffffffffffffffffffffffffffffffffffffff1681526020019081526020016000206040518060e0016040529081600082015481526020016001820180546114ef906130a9565b80601f016020809104026020016040519081016040528092919081815260200182805461151b906130a9565b80156115685780601f1061153d57610100808354040283529160200191611568565b820191906000526020600020905b81548152906001019060200180831161154b57829003601f168201915b505050505081526020016002820154815260200160038201805461158b906130a9565b80601f01602080910402602001604051908101604052809291908181526020018280546115b7906130a9565b80156116045780601f106115d957610100808354040283529160200191611604565b820191906000526020600020905b8154815290600101906020018083116115e757829003601f168201915b505050505081526020016004820160009054906101000a900473ffffffffffffffffffffffffffffffffffffffff1673ffffffffffffffffffffffffffffffffffffffff1673ffffffffffffffffffffffffffffffffffffffff1681526020016004820160149054906101000a900460ff161515151581526020016004820160159054906101000a900460ff161515151581525050905080602001518160400151826060015183608001518460c001518560a00151975097509750975097509750505091939550919395565b600033600860008273ffffffffffffffffffffffffffffffffffffffff1673ffffffffffffffffffffffffffffffffffffffff16815260200190815260200160002060040160159054906101000a900460ff16801561177b5750600860008273ffffffffffffffffffffffffffffffffffffffff1673ffffffffffffffffffffffffffffffffffffffff16815260200190815260200160002060040160149054906101000a900460ff165b6117ba576040517f08c379a00000000000000000000000000000000000000000000000000000000081526004016117b190613495565b60405180910390fd5b82600960008273ffffffffffffffffffffffffffffffffffffffff1673ffffffffffffffffffffffffffffffffffffffff16815260200190815260200160002060020160019054906101000a900460ff1680156118635750600960008273ffffffffffffffffffffffffffffffffffffffff1673ffffffffffffffffffffffffffffffffffffffff16815260200190815260200160002060020160009054906101000a900460ff165b6118a2576040517f08c379a000000000000000000000000000000000000000000000000000000000815260040161189990613527565b60405180910390fd5b6118ac858561277f565b6118eb576040517f08c379a00000000000000000000000000000000000000000000000000000000081526004016118e290613706565b60405180910390fd5b3373ffffffffffffffffffffffffffffffffffffffff166004600087815260200190815260200160002060030160009054906101000a900473ffffffffffffffffffffffffffffffffffffffff1673ffffffffffffffffffffffffffffffffffffffff161461198f576040517f08c379a000000000000000000000000000000000000000000000000000000000815260040161198690613798565b60405180910390fd5b60016004600087815260200190815260200160002060040160146101000a81548160ff021916908315150217905550836004600087815260200190815260200160002060040160006101000a81548173ffffffffffffffffffffffffffffffffffffffff021916908373ffffffffffffffffffffffffffffffffffffffff1602179055507f8b4ce652c2eabaaa6a4a40360121e9c427edb6a6d8d4052198b76e265dfd6094843387604051611a46939291906137b8565b60405180910390a160019250505092915050565b600060606000606060008033600860008273ffffffffffffffffffffffffffffffffffffffff1673ffffffffffffffffffffffffffffffffffffffff16815260200190815260200160002060040160159054906101000a900460ff168015611b0e5750600860008273ffffffffffffffffffffffffffffffffffffffff1673ffffffffffffffffffffffffffffffffffffffff16815260200190815260200160002060040160149054906101000a900460ff165b611b4d576040517f08c379a0000000000000000000000000000000000000000000000000000000008152600401611b4490613495565b60405180910390fd5b6000600860003373ffffffffffffffffffffffffffffffffffffffff1673ffffffffffffffffffffffffffffffffffffffff1681526020019081526020016000206040518060e001604052908160008201548152602001600182018054611bb3906130a9565b80601f0160208091040260200160405190810160405280929190818152602001828054611bdf906130a9565b8015611c2c5780601f10611c0157610100808354040283529160200191611c2c565b820191906000526020600020905b815481529060010190602001808311611c0f57829003601f168201915b5050505050815260200160028201548152602001600382018054611c4f906130a9565b80601f0160208091040260200160405190810160405280929190818152602001828054611c7b906130a9565b8015611cc85780601f10611c9d57610100808354040283529160200191611cc8565b820191906000526020600020905b815481529060010190602001808311611cab57829003601f168201915b505050505081526020016004820160009054906101000a900473ffffffffffffffffffffffffffffffffffffffff1673ffffffffffffffffffffffffffffffffffffffff1673ffffffffffffffffffffffffffffffffffffffff1681526020016004820160149054906101000a900460ff161515151581526020016004820160159054906101000a900460ff161515151581525050905080600001518160200151826040015183606001518460c001518560a001519750975097509750975097505050909192939495565b60015481565b60068181548110611da957600080fd5b906000526020600020016000915054906101000a900473ffffffffffffffffffffffffffffffffffffffff1681565b600033600360009054906101000a900473ffffffffffffffffffffffffffffffffffffffff1673ffffffffffffffffffffffffffffffffffffffff168173ffffffffffffffffffffffffffffffffffffffff1614611e6b576040517f08c379a0000000000000000000000000000000000000000000000000000000008152600401611e629061383b565b60405180910390fd5b600860008473ffffffffffffffffffffffffffffffffffffffff1673ffffffffffffffffffffffffffffffffffffffff16815260200190815260200160002060040160149054906101000a900460ff1615611efb576040517f08c379a0000000000000000000000000000000000000000000000000000000008152600401611ef2906138a7565b60405180910390fd5b6001600860008573ffffffffffffffffffffffffffffffffffffffff1673ffffffffffffffffffffffffffffffffffffffff16815260200190815260200160002060040160146101000a81548160ff0219169083151502179055507fab9900b6135e4a9d59d27af96cbecf873e6dc60d1ee6dd151f3121c987a9c7ae8333604051611f879291906138c7565b60405180910390a16001915050919050565b600033600a60008273ffffffffffffffffffffffffffffffffffffffff1673ffffffffffffffffffffffffffffffffffffffff16815260200190815260200160002060009054906101000a900460ff1680156120415750600860008273ffffffffffffffffffffffffffffffffffffffff1673ffffffffffffffffffffffffffffffffffffffff16815260200190815260200160002060040160149054906101000a900460ff165b612080576040517f08c379a000000000000000000000000000000000000000000000000000000000815260040161207790613962565b60405180910390fd5b600960008473ffffffffffffffffffffffffffffffffffffffff1673ffffffffffffffffffffffffffffffffffffffff16815260200190815260200160002060020160009054906101000a900460ff1615612110576040517f08c379a0000000000000000000000000000000000000000000000000000000008152600401612107906139f4565b60405180910390fd5b6001600960008573ffffffffffffffffffffffffffffffffffffffff1673ffffffffffffffffffffffffffffffffffffffff16815260200190815260200160002060020160006101000a81548160ff0219169083151502179055507ff4f48c376f22eef32d7e0e001a9b5fefd2040b9d01853b9ee2550dfb9062f7f7833360405161219c9291906138c7565b60405180910390a16001915050919050565b6000606060008033600960008273ffffffffffffffffffffffffffffffffffffffff1673ffffffffffffffffffffffffffffffffffffffff16815260200190815260200160002060020160019054906101000a900460ff16801561225e5750600960008273ffffffffffffffffffffffffffffffffffffffff1673ffffffffffffffffffffffffffffffffffffffff16815260200190815260200160002060020160009054906101000a900460ff165b61229d576040517f08c379a000000000000000000000000000000000000000000000000000000000815260040161229490613527565b60405180910390fd5b6000600960003373ffffffffffffffffffffffffffffffffffffffff1673ffffffffffffffffffffffffffffffffffffffff16815260200190815260200160002060405180608001604052908160008201548152602001600182018054612303906130a9565b80601f016020809104026020016040519081016040528092919081815260200182805461232f906130a9565b801561237c5780601f106123515761010080835404028352916020019161237c565b820191906000526020600020905b81548152906001019060200180831161235f57829003601f168201915b505050505081526020016002820160009054906101000a900460ff161515151581526020016002820160019054906101000a900460ff161515151581525050905080600001518160200151826060015183604001519550955095509550505090919293565b600033600360009054906101000a900473ffffffffffffffffffffffffffffffffffffffff1673ffffffffffffffffffffffffffffffffffffffff168173ffffffffffffffffffffffffffffffffffffffff1603612474576040517f08c379a000000000000000000000000000000000000000000000000000000000815260040161246b90612fd5565b60405180910390fd5b600085511161248257600080fd5b6000841161248f57600080fd5b600083511161249d57600080fd5b60003390506006819080600181540180825580915050600190039060005260206000200160009091909190916101000a81548173ffffffffffffffffffffffffffffffffffffffff021916908373ffffffffffffffffffffffffffffffffffffffff16021790555060016000808282546125179190613024565b9250508190555085600860008373ffffffffffffffffffffffffffffffffffffffff1673ffffffffffffffffffffffffffffffffffffffff168152602001908152602001600020600101908161256d9190613286565b5084600860008373ffffffffffffffffffffffffffffffffffffffff1673ffffffffffffffffffffffffffffffffffffffff1681526020019081526020016000206002018190555083600860008373ffffffffffffffffffffffffffffffffffffffff1673ffffffffffffffffffffffffffffffffffffffff16815260200190815260200160002060030190816126049190613286565b5080600860008373ffffffffffffffffffffffffffffffffffffffff1673ffffffffffffffffffffffffffffffffffffffff16815260200190815260200160002060040160006101000a81548173ffffffffffffffffffffffffffffffffffffffff021916908373ffffffffffffffffffffffffffffffffffffffff1602179055506001600860008373ffffffffffffffffffffffffffffffffffffffff1673ffffffffffffffffffffffffffffffffffffffff16815260200190815260200160002060040160156101000a81548160ff0219169083151502179055506001600a60008373ffffffffffffffffffffffffffffffffffffffff1673ffffffffffffffffffffffffffffffffffffffff16815260200190815260200160002060006101000a81548160ff0219169083151502179055507fec9c842f9deef3ca0df726c197b6f6986cb684af715baf9df7a649e0d27604b7818760405161276a929190613358565b60405180910390a16001925050509392505050565b6000806000905060005b6005600086815260200190815260200160002080549050811015612841576005600086815260200190815260200160002081815481106127cc576127cb6133f4565b5b9060005260206000200160009054906101000a900473ffffffffffffffffffffffffffffffffffffffff1673ffffffffffffffffffffffffffffffffffffffff168473ffffffffffffffffffffffffffffffffffffffff160361282e57600191505b808061283990613a14565b915050612789565b508091505092915050565b6000819050919050565b61285f8161284c565b82525050565b600060208201905061287a6000830184612856565b92915050565b6000604051905090565b600080fd5b600080fd5b61289d8161284c565b81146128a857600080fd5b50565b6000813590506128ba81612894565b92915050565b6000602082840312156128d6576128d561288a565b5b60006128e4848285016128ab565b91505092915050565b600073ffffffffffffffffffffffffffffffffffffffff82169050919050565b6000612918826128ed565b9050919050565b6129288161290d565b82525050565b6000602082019050612943600083018461291f565b92915050565b600080fd5b600080fd5b6000601f19601f8301169050919050565b7f4e487b7100000000000000000000000000000000000000000000000000000000600052604160045260246000fd5b61299c82612953565b810181811067ffffffffffffffff821117156129bb576129ba612964565b5b80604052505050565b60006129ce612880565b90506129da8282612993565b919050565b600067ffffffffffffffff8211156129fa576129f9612964565b5b612a0382612953565b9050602081019050919050565b82818337600083830152505050565b6000612a32612a2d846129df565b6129c4565b905082815260208101848484011115612a4e57612a4d61294e565b5b612a59848285612a10565b509392505050565b600082601f830112612a7657612a75612949565b5b8135612a86848260208601612a1f565b91505092915050565b600060208284031215612aa557612aa461288a565b5b600082013567ffffffffffffffff811115612ac357612ac261288f565b5b612acf84828501612a61565b91505092915050565b600081519050919050565b600082825260208201905092915050565b60005b83811015612b12578082015181840152602081019050612af7565b83811115612b21576000848401525b50505050565b6000612b3282612ad8565b612b3c8185612ae3565b9350612b4c818560208601612af4565b612b5581612953565b840191505092915050565b60008115159050919050565b612b7581612b60565b82525050565b600060e082019050612b90600083018a612856565b8181036020830152612ba28189612b27565b90508181036040830152612bb68188612b27565b9050612bc5606083018761291f565b612bd2608083018661291f565b612bdf60a0830185612b6c565b612bec60c0830184612b6c565b98975050505050505050565b6000608082019050612c0d6000830187612856565b8181036020830152612c1f8186612b27565b9050612c2e6040830185612b6c565b612c3b6060830184612b6c565b95945050505050565b6000602082019050612c596000830184612b6c565b92915050565b612c688161290d565b8114612c7357600080fd5b50565b600081359050612c8581612c5f565b92915050565b600060208284031215612ca157612ca061288a565b5b6000612caf84828501612c76565b91505092915050565b60006020820190508181036000830152612cd28184612b27565b905092915050565b600081519050919050565b600082825260208201905092915050565b6000819050602082019050919050565b612d0f8161290d565b82525050565b6000612d218383612d06565b60208301905092915050565b6000602082019050919050565b6000612d4582612cda565b612d4f8185612ce5565b9350612d5a83612cf6565b8060005b83811015612d8b578151612d728882612d15565b9750612d7d83612d2d565b925050600181019050612d5e565b5085935050505092915050565b60006020820190508181036000830152612db28184612d3a565b905092915050565b600060c0820190508181036000830152612dd48189612b27565b9050612de36020830188612856565b8181036040830152612df58187612b27565b9050612e04606083018661291f565b612e116080830185612b6c565b612e1e60a0830184612b6c565b979650505050505050565b60008060408385031215612e4057612e3f61288a565b5b6000612e4e858286016128ab565b9250506020612e5f85828601612c76565b9150509250929050565b600060c082019050612e7e6000830189612856565b8181036020830152612e908188612b27565b9050612e9f6040830187612856565b8181036060830152612eb18186612b27565b9050612ec06080830185612b6c565b612ecd60a0830184612b6c565b979650505050505050565b600080600060608486031215612ef157612ef061288a565b5b600084013567ffffffffffffffff811115612f0f57612f0e61288f565b5b612f1b86828701612a61565b9350506020612f2c868287016128ab565b925050604084013567ffffffffffffffff811115612f4d57612f4c61288f565b5b612f5986828701612a61565b9150509250925092565b7f41646d696e2063616e6e6f74206265207265676973746572656420617320507260008201527f6f76696e63650000000000000000000000000000000000000000000000000000602082015250565b6000612fbf602683612ae3565b9150612fca82612f63565b604082019050919050565b60006020820190508181036000830152612fee81612fb2565b9050919050565b7f4e487b7100000000000000000000000000000000000000000000000000000000600052601160045260246000fd5b600061302f8261284c565b915061303a8361284c565b9250827fffffffffffffffffffffffffffffffffffffffffffffffffffffffffffffffff0382111561306f5761306e612ff5565b5b828201905092915050565b7f4e487b7100000000000000000000000000000000000000000000000000000000600052602260045260246000fd5b600060028204905060018216806130c157607f821691505b6020821081036130d4576130d361307a565b5b50919050565b60008190508160005260206000209050919050565b60006020601f8301049050919050565b600082821b905092915050565b60006008830261313c7fffffffffffffffffffffffffffffffffffffffffffffffffffffffffffffffff826130ff565b61314686836130ff565b95508019841693508086168417925050509392505050565b6000819050919050565b600061318361317e6131798461284c565b61315e565b61284c565b9050919050565b6000819050919050565b61319d83613168565b6131b16131a98261318a565b84845461310c565b825550505050565b600090565b6131c66131b9565b6131d1818484613194565b505050565b5b818110156131f5576131ea6000826131be565b6001810190506131d7565b5050565b601f82111561323a5761320b816130da565b613214846130ef565b81016020851015613223578190505b61323761322f856130ef565b8301826131d6565b50505b505050565b600082821c905092915050565b600061325d6000198460080261323f565b1980831691505092915050565b6000613276838361324c565b9150826002028217905092915050565b61328f82612ad8565b67ffffffffffffffff8111156132a8576132a7612964565b5b6132b282546130a9565b6132bd8282856131f9565b600060209050601f8311600181146132f057600084156132de578287015190505b6132e8858261326a565b865550613350565b601f1984166132fe866130da565b60005b8281101561332657848901518255600182019150602085019450602081019050613301565b86831015613343578489015161333f601f89168261324c565b8355505b6001600288020188555050505b505050505050565b600060408201905061336d600083018561291f565b818103602083015261337f8184612b27565b90509392505050565b7f50726f6a65637420646f65736e27742065786973740000000000000000000000600082015250565b60006133be601583612ae3565b91506133c982613388565b602082019050919050565b600060208201905081810360008301526133ed816133b1565b9050919050565b7f4e487b7100000000000000000000000000000000000000000000000000000000600052603260045260246000fd5b7f204e6f742072656769737465726564206f7220617070726f7665642070726f7660008201527f696e636500000000000000000000000000000000000000000000000000000000602082015250565b600061347f602483612ae3565b915061348a82613423565b604082019050919050565b600060208201905081810360008301526134ae81613472565b9050919050565b7f4e6f742072656769737465726564206f7220617070726f76656420636f6e747260008201527f6163746f72000000000000000000000000000000000000000000000000000000602082015250565b6000613511602583612ae3565b915061351c826134b5565b604082019050919050565b6000602082019050818103600083015261354081613504565b9050919050565b7f50726f6a65637420697320616c72656164792061737369676e65642e20596f7560008201527f2063616e6e6f74206170706c7920666f7220746869732070726f6a6563740000602082015250565b60006135a3603e83612ae3565b91506135ae82613547565b604082019050919050565b600060208201905081810360008301526135d281613596565b9050919050565b7f50726f6a65637420616c7265616479206170706c69656420666f72206279206360008201527f6f6e74726163746f720000000000000000000000000000000000000000000000602082015250565b6000613635602983612ae3565b9150613640826135d9565b604082019050919050565b6000602082019050818103600083015261366481613628565b9050919050565b6000604082019050613680600083018561291f565b61368d6020830184612856565b9392505050565b7f50726f6a656374206973206e6f74206170706c69656420666f7220627920636f60008201527f6e74726163746f72000000000000000000000000000000000000000000000000602082015250565b60006136f0602883612ae3565b91506136fb82613694565b604082019050919050565b6000602082019050818103600083015261371f816136e3565b9050919050565b7f50726f6a656374206e6f74206372656174656420627920746869732070726f7660008201527f696e636500000000000000000000000000000000000000000000000000000000602082015250565b6000613782602483612ae3565b915061378d82613726565b604082019050919050565b600060208201905081810360008301526137b181613775565b9050919050565b60006060820190506137cd600083018661291f565b6137da602083018561291f565b6137e76040830184612856565b949350505050565b7f4f6e6c792041646d696e2063616e207665726966792e00000000000000000000600082015250565b6000613825601683612ae3565b9150613830826137ef565b602082019050919050565b6000602082019050818103600083015261385481613818565b9050919050565b7f5468652070726f76696e636520697320616c726561647920617070726f766564600082015250565b6000613891602083612ae3565b915061389c8261385b565b602082019050919050565b600060208201905081810360008301526138c081613884565b9050919050565b60006040820190506138dc600083018561291f565b6138e9602083018461291f565b9392505050565b7f4f6e6c7920617070726f7665642050726f76696e63652063616e20766572696660008201527f792e000000000000000000000000000000000000000000000000000000000000602082015250565b600061394c602283612ae3565b9150613957826138f0565b604082019050919050565b6000602082019050818103600083015261397b8161393f565b9050919050565b7f54686520436f6e74726163746f7220697320616c726561647920617070726f7660008201527f6564000000000000000000000000000000000000000000000000000000000000602082015250565b60006139de602283612ae3565b91506139e982613982565b604082019050919050565b60006020820190508181036000830152613a0d816139d1565b9050919050565b6000613a1f8261284c565b91507fffffffffffffffffffffffffffffffffffffffffffffffffffffffffffffffff8203613a5157613a50612ff5565b5b60018201905091905056fea264697066735822122081a5892a26fa0ad9ef62edb29f7792b54bed50f41d071fcba1a76d5172e9288664736f6c634300080f0033",
  "immutableReferences": {},
  "source": "// SPDX-License-Identifier:MIT\n\npragma solidity ^0.8.1;\n\ncontract FundAllocation {\n    uint256 public provinceIndex = 0;\n    uint256 public contractorIndex = 0;\n    uint256 public projectIndex = 0;\n    address private admin;\n\n    struct Province {\n        uint256 id;\n        string name;\n        uint256 stateNo;\n        string capital;\n        address wallet;\n        bool isApproved;\n        bool isRegistered;\n    }\n\n    struct Contractor {\n        uint256 id;\n        string name;\n        bool isApproved;\n        bool isRegistered;\n    }\n\n    struct Project {\n        uint256 id;\n        string name;\n        string province;\n        address projectOwner;\n        address projectAssignedTo;\n        bool isAssigned;\n        bool isCompleted;\n    }\n\n    //mapping(address=>uint256) public projectIndex;\n    mapping(uint256 => Project) projects;\n    mapping(uint256 => address[]) projectApplications;\n\n    address[] public provinceList;\n    address[] public contractorList;\n\n    mapping(address => Province) provinces;\n    mapping(address => Contractor) contractors;\n    mapping(address => bool) isProvince;\n    mapping(address => bool) isContractor;\n\n    constructor() {\n        admin = msg.sender;\n    }\n\n    //events\n    event provinceRegistered(address _address,string _provincename);\n    event provinceVerified(address _of,address _by);\n    event contractorRegistered(address _address,string _contractorname);\n    event contractorVerified(address _of,address _by);\n    event provinceProjectCreated(address _address,string _projectname);\n    event appliedForProject(address _address,uint256 _id);\n    event assignedProject(address _to,address _by,uint256 _id);\n\n    modifier excludeAdmin(address _address) {\n        require(_address != admin, \"Admin cannot be registered as Province\");\n        _;\n    }\n\n    modifier verifierAdmin(address _address) {\n        require(_address == admin, \"Only Admin can verify.\");\n        _;\n    }\n\n    modifier verifierProvince(address _address) {\n        require(\n            (isProvince[_address] && provinces[_address].isApproved),\n            \"Only approved Province can verify.\"\n        );\n        _;\n    }\n\n    modifier registeredAndApprovedProvince(address _address) {\n        require(\n            (provinces[_address].isRegistered &&\n                provinces[_address].isApproved),\n            \" Not registered or approved province\"\n        );\n        _;\n    }\n\n    modifier registeredAndApprovedContractor(address _address) {\n        require(\n            (contractors[_address].isRegistered &&\n                contractors[_address].isApproved),\n            \"Not registered or approved contractor\"\n        );\n        _;\n    }\n\n    function findUserRole(address _address)\n        public\n        view\n        returns (string memory user)\n    {\n        if (_address == admin) {\n            return \"admin\";\n        } else if (isProvince[_address] == true) {\n            return \"province\";\n        } else if (isContractor[_address] == true) {\n            return \"contractor\";\n        } else {\n            return \"unAuthorized\";\n        }\n    }\n\n    function registerProvince(\n        string memory _name,\n        uint256 _stateNo,\n        string memory _capital\n    ) public excludeAdmin(msg.sender) returns (bool) {\n        require(bytes(_name).length > 0);\n        require(_stateNo > 0);\n        require(bytes(_capital).length > 0);\n        address _address = msg.sender;\n\n        provinceList.push(_address);\n        provinceIndex += 1;\n\n        provinces[_address].name = _name;\n        provinces[_address].stateNo = _stateNo;\n        provinces[_address].capital = _capital;\n        provinces[_address].wallet = _address;\n        provinces[_address].isRegistered = true;\n        isProvince[_address] = true;\n        emit provinceRegistered(_address, _name);\n        return true;\n    }\n\n    function verifyProvince(address _address)\n        public\n        verifierAdmin(msg.sender)\n        returns (bool)\n    {\n        require(\n            !provinces[_address].isApproved,\n            \"The province is already approved\"\n        );\n        provinces[_address].isApproved = true;\n        emit provinceVerified(_address,msg.sender);\n        return true;\n    }\n\n    function allProvince(uint256 _id)\n        public\n        view\n        returns (\n            string memory,\n            uint256,\n            string memory,\n            address,\n            bool,\n            bool\n        )\n    {\n        address _address = provinceList[_id];\n        Province memory currentProvince = provinces[_address];\n        return (\n            currentProvince.name,\n            currentProvince.stateNo,\n            currentProvince.capital,\n            currentProvince.wallet,\n            currentProvince.isRegistered,\n            currentProvince.isApproved\n        );\n    }\n\n    function myProvince()\n        public\n        view\n        registeredAndApprovedProvince(msg.sender)\n        returns (\n            uint256,\n            string memory,\n            uint256,\n            string memory,\n            bool,\n            bool\n        )\n    {\n        Province memory currentProvince = provinces[msg.sender];\n        return (\n            currentProvince.id,\n            currentProvince.name,\n            currentProvince.stateNo,\n            currentProvince.capital,\n            currentProvince.isRegistered,\n            currentProvince.isApproved\n        );\n    }\n\n    function registerContractor(string memory _name)\n        public\n        excludeAdmin(msg.sender)\n    {\n        require(bytes(_name).length > 0);\n        address _address = msg.sender;\n\n        contractorList.push(_address);\n        contractorIndex += 1;\n\n        contractors[_address].name = _name;\n        contractors[_address].isRegistered = true;\n        isContractor[_address] = true;\n        emit contractorRegistered(_address, _name);\n    }\n\n    function verifyContractor(address _address)\n        public\n        verifierProvince(msg.sender)\n        returns (bool)\n    {\n        require(\n            !contractors[_address].isApproved,\n            \"The Contractor is already approved\"\n        );\n        contractors[_address].isApproved = true;\n        emit contractorVerified(_address, msg.sender);\n        return true;\n    }\n\n    function allContractor(uint256 _id)\n        public\n        view\n        returns (\n            uint256,\n            string memory,\n            bool,\n            bool\n        )\n    {\n        address _address = contractorList[_id];\n        Contractor memory currentContractor = contractors[_address];\n        return (\n            currentContractor.id,\n            currentContractor.name,\n            currentContractor.isRegistered,\n            currentContractor.isApproved\n        );\n    }\n\n    function myContractor()\n        public\n        view\n        registeredAndApprovedContractor(msg.sender)\n        returns (\n            uint256 id,\n            string memory name,\n            bool isRegistered,\n            bool isApproved\n        )\n    {\n        Contractor memory currentContractor = contractors[msg.sender];\n        return (\n            currentContractor.id,\n            currentContractor.name,\n            currentContractor.isRegistered,\n            currentContractor.isApproved\n        );\n    }\n\n    function createProvinceProject(string memory _name)\n        public\n        registeredAndApprovedProvince(msg.sender)\n        returns (bool)\n    {\n        Project memory currentProject = Project(\n            projectIndex,\n            _name,\n            provinces[msg.sender].name,\n            msg.sender,\n            msg.sender,\n            false,\n            false\n        );\n        projects[projectIndex] = currentProject;\n        projectIndex = projectIndex + 1;\n        emit provinceProjectCreated(msg.sender,_name);\n        return true;\n    }\n\n    function allProject(uint256 _id)\n        public\n        view\n        returns (\n            uint256,\n            string memory,\n            string memory,\n            address,\n            address,\n            bool,\n            bool\n        )\n    {\n        require(_id >= 0 && _id < projectIndex, \"Project doesn't exist\");\n        Project memory currentProject = projects[_id];\n        return (\n            currentProject.id,\n            currentProject.name,\n            currentProject.province,\n            currentProject.projectOwner,\n            currentProject.projectAssignedTo,\n            currentProject.isAssigned,\n            currentProject.isCompleted\n        );\n    }\n\n    function applyForProject(uint256 _id)\n        public\n        registeredAndApprovedContractor(msg.sender)\n        returns (bool)\n    {\n        require(\n            projects[_id].isAssigned == false,\n            \"Project is already assigned. You cannot apply for this project\"\n        );\n        require(\n            !_checkIfContractorApplied(_id, msg.sender),\n            \"Project already applied for by contractor\"\n        );\n        projectApplications[_id].push(msg.sender);\n        emit appliedForProject(msg.sender, _id);\n        return true;\n    }\n\n    function getProjectApplications(uint256 _id)\n        public\n        view\n        returns (address[] memory)\n    {\n        require(_id >= 0 && _id < projectIndex, \"Project doesn't exist\");\n        return projectApplications[_id];\n    }\n\n    function assignProject(uint256 _id, address _address)\n        public\n        registeredAndApprovedProvince(msg.sender)\n        registeredAndApprovedContractor(_address)\n        returns (bool)\n    {\n        require(\n            _checkIfContractorApplied(_id, _address),\n            \"Project is not applied for by contractor\"\n        );\n        require(\n            projects[_id].projectOwner == msg.sender,\n            \"Project not created by this province\"\n        );\n        projects[_id].isAssigned = true;\n        projects[_id].projectAssignedTo = _address;\n        emit assignedProject(_address, msg.sender, _id);\n        return true;\n    }\n\n    function _checkIfContractorApplied(uint256 _id, address _address)\n        internal\n        view\n        returns (bool)\n    {\n        bool hasApplied = false;\n        for (uint256 i = 0; i < projectApplications[_id].length; i++) {\n            if (_address == projectApplications[_id][i]) {\n                hasApplied = true;\n            }\n        }\n        return hasApplied;\n    }\n}\n",
  "sourcePath": "/media/iambks/Disk 3/esatya/blockchain-materials/blockchain/GFA/client-side/src/contracts/FundAllocation.sol",
  "compiler": {
    "name": "solc",
    "version": "0.8.15+commit.e14f2714.Emscripten.clang"
  },
  "schemaVersion": "3.4.7",
  "updatedAt": "2022-07-19T10:39:57.689Z",
  "networkType": "ethereum",
  "devdoc": {
    "kind": "dev",
    "methods": {},
    "version": 1
  },
  "userdoc": {
    "kind": "user",
    "methods": {},
    "version": 1
  }
}