{
  "contractName": "FundAllocation",
  "abi": [
    {
      "inputs": [],
      "stateMutability": "nonpayable",
      "type": "constructor"
    },
    {
      "inputs": [],
      "name": "contractorIndex",
      "outputs": [
        {
          "internalType": "uint256",
          "name": "",
          "type": "uint256"
        }
      ],
      "stateMutability": "view",
      "type": "function",
      "constant": true
    },
    {
      "inputs": [
        {
          "internalType": "uint256",
          "name": "",
          "type": "uint256"
        }
      ],
      "name": "contractorList",
      "outputs": [
        {
          "internalType": "address",
          "name": "",
          "type": "address"
        }
      ],
      "stateMutability": "view",
      "type": "function",
      "constant": true
    },
    {
      "inputs": [
        {
          "internalType": "address",
          "name": "",
          "type": "address"
        }
      ],
      "name": "projectIndex",
      "outputs": [
        {
          "internalType": "uint256",
          "name": "",
          "type": "uint256"
        }
      ],
      "stateMutability": "view",
      "type": "function",
      "constant": true
    },
    {
      "inputs": [],
      "name": "provinceIndex",
      "outputs": [
        {
          "internalType": "uint256",
          "name": "",
          "type": "uint256"
        }
      ],
      "stateMutability": "view",
      "type": "function",
      "constant": true
    },
    {
      "inputs": [
        {
          "internalType": "uint256",
          "name": "",
          "type": "uint256"
        }
      ],
      "name": "provinceList",
      "outputs": [
        {
          "internalType": "address",
          "name": "",
          "type": "address"
        }
      ],
      "stateMutability": "view",
      "type": "function",
      "constant": true
    },
    {
      "inputs": [
        {
          "internalType": "address",
          "name": "_address",
          "type": "address"
        }
      ],
      "name": "findUserRole",
      "outputs": [
        {
          "internalType": "string",
          "name": "user",
          "type": "string"
        }
      ],
      "stateMutability": "view",
      "type": "function",
      "constant": true
    },
    {
      "inputs": [
        {
          "internalType": "string",
          "name": "_name",
          "type": "string"
        },
        {
          "internalType": "uint256",
          "name": "_stateNo",
          "type": "uint256"
        },
        {
          "internalType": "string",
          "name": "_capital",
          "type": "string"
        }
      ],
      "name": "registerProvince",
      "outputs": [
        {
          "internalType": "bool",
          "name": "",
          "type": "bool"
        }
      ],
      "stateMutability": "nonpayable",
      "type": "function"
    },
    {
      "inputs": [
        {
          "internalType": "address",
          "name": "_address",
          "type": "address"
        }
      ],
      "name": "verifyProvince",
      "outputs": [
        {
          "internalType": "bool",
          "name": "",
          "type": "bool"
        }
      ],
      "stateMutability": "nonpayable",
      "type": "function"
    },
    {
      "inputs": [
        {
          "internalType": "uint256",
          "name": "_id",
          "type": "uint256"
        }
      ],
      "name": "allProvince",
      "outputs": [
        {
          "internalType": "string",
          "name": "",
          "type": "string"
        },
        {
          "internalType": "uint256",
          "name": "",
          "type": "uint256"
        },
        {
          "internalType": "string",
          "name": "",
          "type": "string"
        },
        {
          "internalType": "address",
          "name": "",
          "type": "address"
        },
        {
          "internalType": "bool",
          "name": "",
          "type": "bool"
        },
        {
          "internalType": "bool",
          "name": "",
          "type": "bool"
        }
      ],
      "stateMutability": "view",
      "type": "function",
      "constant": true
    },
    {
      "inputs": [],
      "name": "myProvince",
      "outputs": [
        {
          "internalType": "uint256",
          "name": "",
          "type": "uint256"
        },
        {
          "internalType": "string",
          "name": "",
          "type": "string"
        },
        {
          "internalType": "uint256",
          "name": "",
          "type": "uint256"
        },
        {
          "internalType": "string",
          "name": "",
          "type": "string"
        }
      ],
      "stateMutability": "view",
      "type": "function",
      "constant": true
    },
    {
      "inputs": [
        {
          "internalType": "string",
          "name": "_name",
          "type": "string"
        }
      ],
      "name": "registerContractor",
      "outputs": [],
      "stateMutability": "nonpayable",
      "type": "function"
    },
    {
      "inputs": [
        {
          "internalType": "address",
          "name": "_address",
          "type": "address"
        }
      ],
      "name": "verifyContractor",
      "outputs": [
        {
          "internalType": "bool",
          "name": "",
          "type": "bool"
        }
      ],
      "stateMutability": "nonpayable",
      "type": "function"
    },
    {
      "inputs": [
        {
          "internalType": "uint256",
          "name": "_id",
          "type": "uint256"
        }
      ],
      "name": "allContractor",
      "outputs": [
        {
          "internalType": "string",
          "name": "",
          "type": "string"
        },
        {
          "internalType": "bool",
          "name": "",
          "type": "bool"
        },
        {
          "internalType": "bool",
          "name": "",
          "type": "bool"
        }
      ],
      "stateMutability": "view",
      "type": "function",
      "constant": true
    },
    {
      "inputs": [
        {
          "internalType": "string",
          "name": "_name",
          "type": "string"
        }
      ],
      "name": "createProvinceProject",
      "outputs": [
        {
          "internalType": "bool",
          "name": "",
          "type": "bool"
        }
      ],
      "stateMutability": "nonpayable",
      "type": "function"
    },
    {
      "inputs": [
        {
          "internalType": "address",
          "name": "_address",
          "type": "address"
        },
        {
          "internalType": "uint256",
          "name": "_id",
          "type": "uint256"
        }
      ],
      "name": "allProject",
      "outputs": [
        {
          "internalType": "string",
          "name": "",
          "type": "string"
        },
        {
          "internalType": "bool",
          "name": "",
          "type": "bool"
        }
      ],
      "stateMutability": "view",
      "type": "function",
      "constant": true
    }
  ],
  "bytecode": "0x608060405260008055600060015534801561001957600080fd5b5033600260006101000a81548173ffffffffffffffffffffffffffffffffffffffff021916908373ffffffffffffffffffffffffffffffffffffffff16021790555061285b8061006a6000396000f3fe608060405234801561001057600080fd5b50600436106100f55760003560e01c80637242fe4b11610097578063d39e55d511610066578063d39e55d5146102cb578063d8d77461146102fb578063dc7a72e71461032b578063e1b44d2b1461035b576100f5565b80637242fe4b146102265780639455d1f2146102575780639e7f91031461028c578063bf1f237f146102ad576100f5565b806330445b48116100d357806330445b481461017857806336e9afb5146101945780635e47dbda146101c657806370fb7d19146101f6576100f5565b80630701fb5b146100fa57806316b7114b1461011857806317a2598814610148575b600080fd5b61010261038b565b60405161010f9190611b60565b60405180910390f35b610132600480360381019061012d9190611bed565b610391565b60405161013f9190611b60565b60405180910390f35b610162600480360381019061015d9190611c46565b6103a9565b60405161016f9190611c82565b60405180910390f35b610192600480360381019061018d9190611de3565b6103e8565b005b6101ae60048036038101906101a99190611c46565b610610565b6040516101bd93929190611ecf565b60405180910390f35b6101e060048036038101906101db9190611de3565b610796565b6040516101ed9190611f0d565b60405180910390f35b610210600480360381019061020b9190611bed565b6109d7565b60405161021d9190611f28565b60405180910390f35b610240600480360381019061023b9190611f4a565b610bd3565b60405161024e929190611f8a565b60405180910390f35b610271600480360381019061026c9190611c46565b610e7f565b60405161028396959493929190611fba565b60405180910390f35b610294611113565b6040516102a49493929190612029565b60405180910390f35b6102b5611439565b6040516102c29190611b60565b60405180910390f35b6102e560048036038101906102e09190611c46565b61143f565b6040516102f29190611c82565b60405180910390f35b61031560048036038101906103109190611bed565b61147e565b6040516103229190611f0d565b60405180910390f35b61034560048036038101906103409190611bed565b611606565b6040516103529190611f0d565b60405180910390f35b6103756004803603810190610370919061207c565b6117e2565b6040516103829190611f0d565b60405180910390f35b60005481565b60036020528060005260406000206000915090505481565b600681815481106103b957600080fd5b906000526020600020016000915054906101000a900473ffffffffffffffffffffffffffffffffffffffff1681565b33600260009054906101000a900473ffffffffffffffffffffffffffffffffffffffff1673ffffffffffffffffffffffffffffffffffffffff168173ffffffffffffffffffffffffffffffffffffffff1603610479576040517f08c379a000000000000000000000000000000000000000000000000000000000815260040161047090612179565b60405180910390fd5b600082511161048757600080fd5b60003390506006819080600181540180825580915050600190039060005260206000200160009091909190916101000a81548173ffffffffffffffffffffffffffffffffffffffff021916908373ffffffffffffffffffffffffffffffffffffffff160217905550600180600082825461050191906121c8565b9250508190555082600860008373ffffffffffffffffffffffffffffffffffffffff1673ffffffffffffffffffffffffffffffffffffffff1681526020019081526020016000206001019081610557919061242a565b506001600860008373ffffffffffffffffffffffffffffffffffffffff1673ffffffffffffffffffffffffffffffffffffffff16815260200190815260200160002060020160016101000a81548160ff0219169083151502179055506001600a60008373ffffffffffffffffffffffffffffffffffffffff1673ffffffffffffffffffffffffffffffffffffffff16815260200190815260200160002060006101000a81548160ff021916908315150217905550505050565b606060008060006006858154811061062b5761062a6124fc565b5b9060005260206000200160009054906101000a900473ffffffffffffffffffffffffffffffffffffffff1690506000600860008373ffffffffffffffffffffffffffffffffffffffff1673ffffffffffffffffffffffffffffffffffffffff168152602001908152602001600020604051806080016040529081600082015481526020016001820180546106be9061224d565b80601f01602080910402602001604051908101604052809291908181526020018280546106ea9061224d565b80156107375780601f1061070c57610100808354040283529160200191610737565b820191906000526020600020905b81548152906001019060200180831161071a57829003601f168201915b505050505081526020016002820160009054906101000a900460ff161515151581526020016002820160019054906101000a900460ff161515151581525050905080602001518160600151826040015194509450945050509193909250565b600033600760008273ffffffffffffffffffffffffffffffffffffffff1673ffffffffffffffffffffffffffffffffffffffff16815260200190815260200160002060040160159054906101000a900460ff1680156108415750600760008273ffffffffffffffffffffffffffffffffffffffff1673ffffffffffffffffffffffffffffffffffffffff16815260200190815260200160002060040160149054906101000a900460ff165b610880576040517f08c379a00000000000000000000000000000000000000000000000000000000081526004016108779061259d565b60405180910390fd5b60006040518060400160405280858152602001600015158152509050600460003373ffffffffffffffffffffffffffffffffffffffff1673ffffffffffffffffffffffffffffffffffffffff168152602001908152602001600020819080600181540180825580915050600190039060005260206000209060020201600090919091909150600082015181600001908161091a919061242a565b5060208201518160010160006101000a81548160ff02191690831515021790555050506001600360003373ffffffffffffffffffffffffffffffffffffffff1673ffffffffffffffffffffffffffffffffffffffff1681526020019081526020016000205461098991906121c8565b600360003373ffffffffffffffffffffffffffffffffffffffff1673ffffffffffffffffffffffffffffffffffffffff16815260200190815260200160002081905550600192505050919050565b6060600260009054906101000a900473ffffffffffffffffffffffffffffffffffffffff1673ffffffffffffffffffffffffffffffffffffffff168273ffffffffffffffffffffffffffffffffffffffff1603610a6b576040518060400160405280600581526020017f61646d696e0000000000000000000000000000000000000000000000000000008152509050610bce565b60011515600960008473ffffffffffffffffffffffffffffffffffffffff1673ffffffffffffffffffffffffffffffffffffffff16815260200190815260200160002060009054906101000a900460ff16151503610b00576040518060400160405280600881526020017f70726f76696e63650000000000000000000000000000000000000000000000008152509050610bce565b60011515600a60008473ffffffffffffffffffffffffffffffffffffffff1673ffffffffffffffffffffffffffffffffffffffff16815260200190815260200160002060009054906101000a900460ff16151503610b95576040518060400160405280600a81526020017f636f6e74726163746f72000000000000000000000000000000000000000000008152509050610bce565b6040518060400160405280600c81526020017f756e417574686f72697a6564000000000000000000000000000000000000000081525090505b919050565b6060600083600760008273ffffffffffffffffffffffffffffffffffffffff1673ffffffffffffffffffffffffffffffffffffffff16815260200190815260200160002060040160159054906101000a900460ff168015610c805750600760008273ffffffffffffffffffffffffffffffffffffffff1673ffffffffffffffffffffffffffffffffffffffff16815260200190815260200160002060040160149054906101000a900460ff165b610cbf576040517f08c379a0000000000000000000000000000000000000000000000000000000008152600401610cb69061259d565b60405180910390fd5b600360008673ffffffffffffffffffffffffffffffffffffffff1673ffffffffffffffffffffffffffffffffffffffff1681526020019081526020016000205484108015610d0e575060008410155b610d4d576040517f08c379a0000000000000000000000000000000000000000000000000000000008152600401610d4490612609565b60405180910390fd5b6000600460008773ffffffffffffffffffffffffffffffffffffffff1673ffffffffffffffffffffffffffffffffffffffff1681526020019081526020016000208581548110610da057610d9f6124fc565b5b9060005260206000209060020201604051806040016040529081600082018054610dc99061224d565b80601f0160208091040260200160405190810160405280929190818152602001828054610df59061224d565b8015610e425780601f10610e1757610100808354040283529160200191610e42565b820191906000526020600020905b815481529060010190602001808311610e2557829003601f168201915b505050505081526020016001820160009054906101000a900460ff1615151515815250509050806000015181602001519350935050509250929050565b60606000606060008060008060058881548110610e9f57610e9e6124fc565b5b9060005260206000200160009054906101000a900473ffffffffffffffffffffffffffffffffffffffff1690506000600760008373ffffffffffffffffffffffffffffffffffffffff1673ffffffffffffffffffffffffffffffffffffffff1681526020019081526020016000206040518060e001604052908160008201548152602001600182018054610f329061224d565b80601f0160208091040260200160405190810160405280929190818152602001828054610f5e9061224d565b8015610fab5780601f10610f8057610100808354040283529160200191610fab565b820191906000526020600020905b815481529060010190602001808311610f8e57829003601f168201915b5050505050815260200160028201548152602001600382018054610fce9061224d565b80601f0160208091040260200160405190810160405280929190818152602001828054610ffa9061224d565b80156110475780601f1061101c57610100808354040283529160200191611047565b820191906000526020600020905b81548152906001019060200180831161102a57829003601f168201915b505050505081526020016004820160009054906101000a900473ffffffffffffffffffffffffffffffffffffffff1673ffffffffffffffffffffffffffffffffffffffff1673ffffffffffffffffffffffffffffffffffffffff1681526020016004820160149054906101000a900460ff161515151581526020016004820160159054906101000a900460ff161515151581525050905080602001518160400151826060015183608001518460c001518560a00151975097509750975097509750505091939550919395565b600060606000606033600760008273ffffffffffffffffffffffffffffffffffffffff1673ffffffffffffffffffffffffffffffffffffffff16815260200190815260200160002060040160159054906101000a900460ff1680156111c45750600760008273ffffffffffffffffffffffffffffffffffffffff1673ffffffffffffffffffffffffffffffffffffffff16815260200190815260200160002060040160149054906101000a900460ff165b611203576040517f08c379a00000000000000000000000000000000000000000000000000000000081526004016111fa9061259d565b60405180910390fd5b6000600760003373ffffffffffffffffffffffffffffffffffffffff1673ffffffffffffffffffffffffffffffffffffffff1681526020019081526020016000206040518060e0016040529081600082015481526020016001820180546112699061224d565b80601f01602080910402602001604051908101604052809291908181526020018280546112959061224d565b80156112e25780601f106112b7576101008083540402835291602001916112e2565b820191906000526020600020905b8154815290600101906020018083116112c557829003601f168201915b50505050508152602001600282015481526020016003820180546113059061224d565b80601f01602080910402602001604051908101604052809291908181526020018280546113319061224d565b801561137e5780601f106113535761010080835404028352916020019161137e565b820191906000526020600020905b81548152906001019060200180831161136157829003601f168201915b505050505081526020016004820160009054906101000a900473ffffffffffffffffffffffffffffffffffffffff1673ffffffffffffffffffffffffffffffffffffffff1673ffffffffffffffffffffffffffffffffffffffff1681526020016004820160149054906101000a900460ff161515151581526020016004820160159054906101000a900460ff161515151581525050905080600001518160200151826040015183606001519550955095509550505090919293565b60015481565b6005818154811061144f57600080fd5b906000526020600020016000915054906101000a900473ffffffffffffffffffffffffffffffffffffffff1681565b600033600260009054906101000a900473ffffffffffffffffffffffffffffffffffffffff1673ffffffffffffffffffffffffffffffffffffffff168173ffffffffffffffffffffffffffffffffffffffff1614611511576040517f08c379a000000000000000000000000000000000000000000000000000000000815260040161150890612675565b60405180910390fd5b600760008473ffffffffffffffffffffffffffffffffffffffff1673ffffffffffffffffffffffffffffffffffffffff16815260200190815260200160002060040160149054906101000a900460ff16156115a1576040517f08c379a0000000000000000000000000000000000000000000000000000000008152600401611598906126e1565b60405180910390fd5b6001600760008573ffffffffffffffffffffffffffffffffffffffff1673ffffffffffffffffffffffffffffffffffffffff16815260200190815260200160002060040160146101000a81548160ff0219169083151502179055506001915050919050565b600033600960008273ffffffffffffffffffffffffffffffffffffffff1673ffffffffffffffffffffffffffffffffffffffff16815260200190815260200160002060009054906101000a900460ff1680156116ae5750600760008273ffffffffffffffffffffffffffffffffffffffff1673ffffffffffffffffffffffffffffffffffffffff16815260200190815260200160002060040160149054906101000a900460ff165b6116ed576040517f08c379a00000000000000000000000000000000000000000000000000000000081526004016116e490612773565b60405180910390fd5b600860008473ffffffffffffffffffffffffffffffffffffffff1673ffffffffffffffffffffffffffffffffffffffff16815260200190815260200160002060020160009054906101000a900460ff161561177d576040517f08c379a000000000000000000000000000000000000000000000000000000000815260040161177490612805565b60405180910390fd5b6001600760008573ffffffffffffffffffffffffffffffffffffffff1673ffffffffffffffffffffffffffffffffffffffff16815260200190815260200160002060040160146101000a81548160ff0219169083151502179055506001915050919050565b600033600260009054906101000a900473ffffffffffffffffffffffffffffffffffffffff1673ffffffffffffffffffffffffffffffffffffffff168173ffffffffffffffffffffffffffffffffffffffff1603611875576040517f08c379a000000000000000000000000000000000000000000000000000000000815260040161186c90612179565b60405180910390fd5b600085511161188357600080fd5b6000841161189057600080fd5b600083511161189e57600080fd5b60003390506005819080600181540180825580915050600190039060005260206000200160009091909190916101000a81548173ffffffffffffffffffffffffffffffffffffffff021916908373ffffffffffffffffffffffffffffffffffffffff160217905550600160008082825461191891906121c8565b9250508190555085600760008373ffffffffffffffffffffffffffffffffffffffff1673ffffffffffffffffffffffffffffffffffffffff168152602001908152602001600020600101908161196e919061242a565b5084600760008373ffffffffffffffffffffffffffffffffffffffff1673ffffffffffffffffffffffffffffffffffffffff1681526020019081526020016000206002018190555083600760008373ffffffffffffffffffffffffffffffffffffffff1673ffffffffffffffffffffffffffffffffffffffff1681526020019081526020016000206003019081611a05919061242a565b5080600760008373ffffffffffffffffffffffffffffffffffffffff1673ffffffffffffffffffffffffffffffffffffffff16815260200190815260200160002060040160006101000a81548173ffffffffffffffffffffffffffffffffffffffff021916908373ffffffffffffffffffffffffffffffffffffffff1602179055506001600760008373ffffffffffffffffffffffffffffffffffffffff1673ffffffffffffffffffffffffffffffffffffffff16815260200190815260200160002060040160156101000a81548160ff0219169083151502179055506001600960008373ffffffffffffffffffffffffffffffffffffffff1673ffffffffffffffffffffffffffffffffffffffff16815260200190815260200160002060006101000a81548160ff0219169083151502179055506001925050509392505050565b6000819050919050565b611b5a81611b47565b82525050565b6000602082019050611b756000830184611b51565b92915050565b6000604051905090565b600080fd5b600080fd5b600073ffffffffffffffffffffffffffffffffffffffff82169050919050565b6000611bba82611b8f565b9050919050565b611bca81611baf565b8114611bd557600080fd5b50565b600081359050611be781611bc1565b92915050565b600060208284031215611c0357611c02611b85565b5b6000611c1184828501611bd8565b91505092915050565b611c2381611b47565b8114611c2e57600080fd5b50565b600081359050611c4081611c1a565b92915050565b600060208284031215611c5c57611c5b611b85565b5b6000611c6a84828501611c31565b91505092915050565b611c7c81611baf565b82525050565b6000602082019050611c976000830184611c73565b92915050565b600080fd5b600080fd5b6000601f19601f8301169050919050565b7f4e487b7100000000000000000000000000000000000000000000000000000000600052604160045260246000fd5b611cf082611ca7565b810181811067ffffffffffffffff82111715611d0f57611d0e611cb8565b5b80604052505050565b6000611d22611b7b565b9050611d2e8282611ce7565b919050565b600067ffffffffffffffff821115611d4e57611d4d611cb8565b5b611d5782611ca7565b9050602081019050919050565b82818337600083830152505050565b6000611d86611d8184611d33565b611d18565b905082815260208101848484011115611da257611da1611ca2565b5b611dad848285611d64565b509392505050565b600082601f830112611dca57611dc9611c9d565b5b8135611dda848260208601611d73565b91505092915050565b600060208284031215611df957611df8611b85565b5b600082013567ffffffffffffffff811115611e1757611e16611b8a565b5b611e2384828501611db5565b91505092915050565b600081519050919050565b600082825260208201905092915050565b60005b83811015611e66578082015181840152602081019050611e4b565b83811115611e75576000848401525b50505050565b6000611e8682611e2c565b611e908185611e37565b9350611ea0818560208601611e48565b611ea981611ca7565b840191505092915050565b60008115159050919050565b611ec981611eb4565b82525050565b60006060820190508181036000830152611ee98186611e7b565b9050611ef86020830185611ec0565b611f056040830184611ec0565b949350505050565b6000602082019050611f226000830184611ec0565b92915050565b60006020820190508181036000830152611f428184611e7b565b905092915050565b60008060408385031215611f6157611f60611b85565b5b6000611f6f85828601611bd8565b9250506020611f8085828601611c31565b9150509250929050565b60006040820190508181036000830152611fa48185611e7b565b9050611fb36020830184611ec0565b9392505050565b600060c0820190508181036000830152611fd48189611e7b565b9050611fe36020830188611b51565b8181036040830152611ff58187611e7b565b90506120046060830186611c73565b6120116080830185611ec0565b61201e60a0830184611ec0565b979650505050505050565b600060808201905061203e6000830187611b51565b81810360208301526120508186611e7b565b905061205f6040830185611b51565b81810360608301526120718184611e7b565b905095945050505050565b60008060006060848603121561209557612094611b85565b5b600084013567ffffffffffffffff8111156120b3576120b2611b8a565b5b6120bf86828701611db5565b93505060206120d086828701611c31565b925050604084013567ffffffffffffffff8111156120f1576120f0611b8a565b5b6120fd86828701611db5565b9150509250925092565b7f41646d696e2063616e6e6f74206265207265676973746572656420617320507260008201527f6f76696e63650000000000000000000000000000000000000000000000000000602082015250565b6000612163602683611e37565b915061216e82612107565b604082019050919050565b6000602082019050818103600083015261219281612156565b9050919050565b7f4e487b7100000000000000000000000000000000000000000000000000000000600052601160045260246000fd5b60006121d382611b47565b91506121de83611b47565b9250827fffffffffffffffffffffffffffffffffffffffffffffffffffffffffffffffff0382111561221357612212612199565b5b828201905092915050565b7f4e487b7100000000000000000000000000000000000000000000000000000000600052602260045260246000fd5b6000600282049050600182168061226557607f821691505b6020821081036122785761227761221e565b5b50919050565b60008190508160005260206000209050919050565b60006020601f8301049050919050565b600082821b905092915050565b6000600883026122e07fffffffffffffffffffffffffffffffffffffffffffffffffffffffffffffffff826122a3565b6122ea86836122a3565b95508019841693508086168417925050509392505050565b6000819050919050565b600061232761232261231d84611b47565b612302565b611b47565b9050919050565b6000819050919050565b6123418361230c565b61235561234d8261232e565b8484546122b0565b825550505050565b600090565b61236a61235d565b612375818484612338565b505050565b5b818110156123995761238e600082612362565b60018101905061237b565b5050565b601f8211156123de576123af8161227e565b6123b884612293565b810160208510156123c7578190505b6123db6123d385612293565b83018261237a565b50505b505050565b600082821c905092915050565b6000612401600019846008026123e3565b1980831691505092915050565b600061241a83836123f0565b9150826002028217905092915050565b61243382611e2c565b67ffffffffffffffff81111561244c5761244b611cb8565b5b612456825461224d565b61246182828561239d565b600060209050601f8311600181146124945760008415612482578287015190505b61248c858261240e565b8655506124f4565b601f1984166124a28661227e565b60005b828110156124ca578489015182556001820191506020850194506020810190506124a5565b868310156124e757848901516124e3601f8916826123f0565b8355505b6001600288020188555050505b505050505050565b7f4e487b7100000000000000000000000000000000000000000000000000000000600052603260045260246000fd5b7f596f7520617265206e6f742072656769737465726564206f7220617070726f7660008201527f65642070726f76696e6365000000000000000000000000000000000000000000602082015250565b6000612587602b83611e37565b91506125928261252b565b604082019050919050565b600060208201905081810360008301526125b68161257a565b9050919050565b7f50726f6a65637420646f65736e27742065786973740000000000000000000000600082015250565b60006125f3601583611e37565b91506125fe826125bd565b602082019050919050565b60006020820190508181036000830152612622816125e6565b9050919050565b7f4f6e6c792041646d696e2063616e207665726966792e00000000000000000000600082015250565b600061265f601683611e37565b915061266a82612629565b602082019050919050565b6000602082019050818103600083015261268e81612652565b9050919050565b7f5468652070726f76696e636520697320616c726561647920617070726f766564600082015250565b60006126cb602083611e37565b91506126d682612695565b602082019050919050565b600060208201905081810360008301526126fa816126be565b9050919050565b7f4f6e6c7920617070726f7665642050726f76696e63652063616e20766572696660008201527f792e000000000000000000000000000000000000000000000000000000000000602082015250565b600061275d602283611e37565b915061276882612701565b604082019050919050565b6000602082019050818103600083015261278c81612750565b9050919050565b7f54686520436f6e74726163746f7220697320616c726561647920617070726f7660008201527f6564000000000000000000000000000000000000000000000000000000000000602082015250565b60006127ef602283611e37565b91506127fa82612793565b604082019050919050565b6000602082019050818103600083015261281e816127e2565b905091905056fea2646970667358221220a4f0ac73a6115809830ccd66871077b7869d809f381a94c589193a6d1a071e4464736f6c634300080f0033",
  "immutableReferences": {},
  "source": "// SPDX-License-Identifier:MIT\r\n\r\npragma solidity ^0.8.1;\r\n\r\ncontract FundAllocation {\r\n    uint256 public provinceIndex = 0;\r\n    uint256 public contractorIndex = 0;\r\n    address private admin;\r\n\r\n    struct Province {\r\n        uint256 id;\r\n        string name;\r\n        uint256 stateNo;\r\n        string capital;\r\n        address wallet;\r\n        bool isApproved;\r\n        bool isRegistered;\r\n    }\r\n\r\n    struct Contractor {\r\n        uint256 id;\r\n        string name;\r\n        bool isApproved;\r\n        bool isRegistered;\r\n    }\r\n\r\n    struct Project{\r\n        string name;\r\n        bool isAssigned;\r\n    }\r\n\r\n    mapping(address=>uint256) public projectIndex;\r\n    mapping(address=>Project[]) provinceProjects;\r\n\r\n\r\n    address[] public provinceList;\r\n    address[] public contractorList;\r\n\r\n    mapping(address => Province) provinces;\r\n    mapping(address => Contractor) contractors;\r\n    mapping(address => bool) isProvince;\r\n    mapping(address => bool) isContractor;\r\n\r\n    constructor() {\r\n        admin = msg.sender;\r\n    }\r\n\r\n    modifier excludeAdmin(address _address) {\r\n        require(_address != admin, \"Admin cannot be registered as Province\");\r\n        _;\r\n    }\r\n\r\n    modifier verifierAdmin(address _address) {\r\n        require(_address == admin, \"Only Admin can verify.\");\r\n        _;\r\n    }\r\n\r\n    modifier verifierProvince(address _address) {\r\n        require(\r\n            (isProvince[_address] && provinces[_address].isApproved),\r\n            \"Only approved Province can verify.\"\r\n        );\r\n        _;\r\n    }\r\n\r\n    modifier registeredAndApprovedProvince(address _address) {\r\n        require(\r\n            (provinces[_address].isRegistered &&\r\n                provinces[_address].isApproved),\r\n            \"You are not registered or approved province\"\r\n        );\r\n        _;\r\n    }\r\n\r\n    function findUserRole(address _address)\r\n        public\r\n        view\r\n        returns (string memory user)\r\n    {\r\n        if (_address == admin) {\r\n            return \"admin\";\r\n        } else if (isProvince[_address] == true) {\r\n            return \"province\";\r\n        } else if (isContractor[_address] == true) {\r\n            return \"contractor\";\r\n        } else {\r\n            return \"unAuthorized\";\r\n        }\r\n    }\r\n\r\n    function registerProvince(\r\n        string memory _name,\r\n        uint256 _stateNo,\r\n        string memory _capital\r\n    ) public excludeAdmin(msg.sender) returns (bool) {\r\n        require(bytes(_name).length > 0);\r\n        require(_stateNo > 0);\r\n        require(bytes(_capital).length > 0);\r\n        address _address = msg.sender;\r\n\r\n        provinceList.push(_address);\r\n        provinceIndex += 1;\r\n\r\n        provinces[_address].name = _name;\r\n        provinces[_address].stateNo = _stateNo;\r\n        provinces[_address].capital = _capital;\r\n        provinces[_address].wallet = _address;\r\n        provinces[_address].isRegistered = true;\r\n        isProvince[_address] = true;\r\n        return true;\r\n    }\r\n\r\n    function verifyProvince(address _address)\r\n        public\r\n        verifierAdmin(msg.sender)\r\n        returns (bool)\r\n    {\r\n        require(\r\n            !provinces[_address].isApproved,\r\n            \"The province is already approved\"\r\n        );\r\n        provinces[_address].isApproved = true;\r\n        return true;\r\n    }\r\n\r\n    function allProvince(uint256 _id)\r\n        public\r\n        view\r\n        returns (\r\n            string memory,\r\n            uint256,\r\n            string memory,\r\n            address,\r\n            bool,\r\n            bool\r\n        )\r\n    {\r\n        address _address = provinceList[_id];\r\n        Province memory currentProvince = provinces[_address];\r\n        return (\r\n            currentProvince.name,\r\n            currentProvince.stateNo,\r\n            currentProvince.capital,\r\n            currentProvince.wallet,\r\n            currentProvince.isRegistered,\r\n            currentProvince.isApproved\r\n        );\r\n    }\r\n\r\n    function myProvince()\r\n        public\r\n        view\r\n        registeredAndApprovedProvince(msg.sender)\r\n        returns (\r\n            uint256,\r\n            string memory,\r\n            uint256,\r\n            string memory\r\n        )\r\n    {\r\n        Province memory currentProvince = provinces[msg.sender];\r\n        return (\r\n            currentProvince.id,\r\n            currentProvince.name,\r\n            currentProvince.stateNo,\r\n            currentProvince.capital\r\n        );\r\n    }\r\n\r\n    function registerContractor(string memory _name)\r\n        public\r\n        excludeAdmin(msg.sender)\r\n    {\r\n        require(bytes(_name).length > 0);\r\n        address _address = msg.sender;\r\n\r\n        contractorList.push(_address);\r\n        contractorIndex += 1;\r\n\r\n        contractors[_address].name = _name;\r\n        contractors[_address].isRegistered = true;\r\n        isContractor[_address] = true;\r\n    }\r\n\r\n    function verifyContractor(address _address)\r\n        public\r\n        verifierProvince(msg.sender)\r\n        returns (bool)\r\n    {\r\n        require(\r\n            !contractors[_address].isApproved,\r\n            \"The Contractor is already approved\"\r\n        );\r\n        provinces[_address].isApproved = true;\r\n        return true;\r\n    }\r\n\r\n    function allContractor(uint256 _id)public view returns(string memory,bool,bool){\r\n        address _address=contractorList[_id];\r\n        Contractor memory currentContractor=contractors[_address];\r\n        return (currentContractor.name,currentContractor.isRegistered,currentContractor.isApproved);\r\n\r\n    }\r\n\r\n    function createProvinceProject(string memory _name) public registeredAndApprovedProvince(msg.sender) returns(bool){\r\n        Project memory currentProject=Project(_name,false);\r\n        provinceProjects[msg.sender].push(currentProject);\r\n        projectIndex[msg.sender]=projectIndex[msg.sender]+1;\r\n        return true;\r\n       \r\n    }\r\n\r\n    function allProject(address _address,uint256 _id)public view registeredAndApprovedProvince(_address) returns(string memory,bool){\r\n        require(_id<projectIndex[_address] && _id>=0,\"Project doesn't exist\");\r\n        Project memory currentProject=provinceProjects[_address][_id];\r\n        return (currentProject.name,currentProject.isAssigned);\r\n    }\r\n\r\n   \r\n}",
  "sourcePath": "C:\\Miscs\\Outside\\Esatya\\GFATS\\src\\contracts\\FundAllocation.sol",
  "compiler": {
    "name": "solc",
    "version": "0.8.15+commit.e14f2714.Emscripten.clang"
  },
  "schemaVersion": "3.4.7",
  "updatedAt": "2022-06-28T01:45:59.733Z",
  "networkType": "ethereum",
  "devdoc": {
    "kind": "dev",
    "methods": {},
    "version": 1
  },
  "userdoc": {
    "kind": "user",
    "methods": {},
    "version": 1
  }
}