{
  "contractName": "FundAllocation",
  "abi": [
    {
      "inputs": [],
      "stateMutability": "nonpayable",
      "type": "constructor"
    },
    {
      "inputs": [],
      "name": "contractorIndex",
      "outputs": [
        {
          "internalType": "uint256",
          "name": "",
          "type": "uint256"
        }
      ],
      "stateMutability": "view",
      "type": "function",
      "constant": true
    },
    {
      "inputs": [
        {
          "internalType": "uint256",
          "name": "",
          "type": "uint256"
        }
      ],
      "name": "contractorList",
      "outputs": [
        {
          "internalType": "address",
          "name": "",
          "type": "address"
        }
      ],
      "stateMutability": "view",
      "type": "function",
      "constant": true
    },
    {
      "inputs": [],
      "name": "provinceIndex",
      "outputs": [
        {
          "internalType": "uint256",
          "name": "",
          "type": "uint256"
        }
      ],
      "stateMutability": "view",
      "type": "function",
      "constant": true
    },
    {
      "inputs": [
        {
          "internalType": "uint256",
          "name": "",
          "type": "uint256"
        }
      ],
      "name": "provinceList",
      "outputs": [
        {
          "internalType": "address",
          "name": "",
          "type": "address"
        }
      ],
      "stateMutability": "view",
      "type": "function",
      "constant": true
    },
    {
      "inputs": [
        {
          "internalType": "address",
          "name": "_address",
          "type": "address"
        }
      ],
      "name": "findUserRole",
      "outputs": [
        {
          "internalType": "string",
          "name": "user",
          "type": "string"
        }
      ],
      "stateMutability": "view",
      "type": "function",
      "constant": true
    },
    {
      "inputs": [
        {
          "internalType": "string",
          "name": "_name",
          "type": "string"
        },
        {
          "internalType": "uint256",
          "name": "_stateNo",
          "type": "uint256"
        },
        {
          "internalType": "string",
          "name": "_capital",
          "type": "string"
        }
      ],
      "name": "registerProvince",
      "outputs": [
        {
          "internalType": "bool",
          "name": "",
          "type": "bool"
        }
      ],
      "stateMutability": "nonpayable",
      "type": "function"
    },
    {
      "inputs": [
        {
          "internalType": "address",
          "name": "_address",
          "type": "address"
        }
      ],
      "name": "verifyProvince",
      "outputs": [
        {
          "internalType": "bool",
          "name": "",
          "type": "bool"
        }
      ],
      "stateMutability": "nonpayable",
      "type": "function"
    },
    {
      "inputs": [
        {
          "internalType": "uint256",
          "name": "_id",
          "type": "uint256"
        }
      ],
      "name": "allProvince",
      "outputs": [
        {
          "internalType": "string",
          "name": "",
          "type": "string"
        },
        {
          "internalType": "uint256",
          "name": "",
          "type": "uint256"
        },
        {
          "internalType": "string",
          "name": "",
          "type": "string"
        },
        {
          "internalType": "address",
          "name": "",
          "type": "address"
        },
        {
          "internalType": "bool",
          "name": "",
          "type": "bool"
        },
        {
          "internalType": "bool",
          "name": "",
          "type": "bool"
        }
      ],
      "stateMutability": "view",
      "type": "function",
      "constant": true
    },
    {
      "inputs": [],
      "name": "myProvince",
      "outputs": [
        {
          "internalType": "uint256",
          "name": "",
          "type": "uint256"
        },
        {
          "internalType": "string",
          "name": "",
          "type": "string"
        },
        {
          "internalType": "uint256",
          "name": "",
          "type": "uint256"
        },
        {
          "internalType": "string",
          "name": "",
          "type": "string"
        }
      ],
      "stateMutability": "view",
      "type": "function",
      "constant": true
    },
    {
      "inputs": [
        {
          "internalType": "string",
          "name": "_name",
          "type": "string"
        }
      ],
      "name": "registerContractor",
      "outputs": [],
      "stateMutability": "nonpayable",
      "type": "function"
    },
    {
      "inputs": [
        {
          "internalType": "address",
          "name": "_address",
          "type": "address"
        }
      ],
      "name": "verifyContractor",
      "outputs": [
        {
          "internalType": "bool",
          "name": "",
          "type": "bool"
        }
      ],
      "stateMutability": "nonpayable",
      "type": "function"
    },
    {
      "inputs": [
        {
          "internalType": "uint256",
          "name": "_id",
          "type": "uint256"
        }
      ],
      "name": "allContractor",
      "outputs": [
        {
          "internalType": "string",
          "name": "",
          "type": "string"
        },
        {
          "internalType": "bool",
          "name": "",
          "type": "bool"
        },
        {
          "internalType": "bool",
          "name": "",
          "type": "bool"
        }
      ],
      "stateMutability": "view",
      "type": "function",
      "constant": true
    }
  ],
  "bytecode": "0x608060405260008055600060015534801561001957600080fd5b5033600260006101000a81548173ffffffffffffffffffffffffffffffffffffffff021916908373ffffffffffffffffffffffffffffffffffffffff1602179055506121a88061006a6000396000f3fe608060405234801561001057600080fd5b50600436106100b45760003560e01c80639e7f9103116100715780639e7f9103146101ba578063bf1f237f146101db578063d39e55d5146101f9578063d8d7746114610229578063dc7a72e714610259578063e1b44d2b14610289576100b4565b80630701fb5b146100b957806317a25988146100d757806330445b481461010757806336e9afb51461012357806370fb7d19146101555780639455d1f214610185575b600080fd5b6100c16102b9565b6040516100ce9190611589565b60405180910390f35b6100f160048036038101906100ec91906115e4565b6102bf565b6040516100fe9190611652565b60405180910390f35b610121600480360381019061011c91906117b3565b6102fe565b005b61013d600480360381019061013891906115e4565b610526565b60405161014c9392919061189f565b60405180910390f35b61016f600480360381019061016a9190611909565b6106ac565b60405161017c9190611936565b60405180910390f35b61019f600480360381019061019a91906115e4565b6108a8565b6040516101b196959493929190611958565b60405180910390f35b6101c2610b3c565b6040516101d294939291906119c7565b60405180910390f35b6101e3610e62565b6040516101f09190611589565b60405180910390f35b610213600480360381019061020e91906115e4565b610e68565b6040516102209190611652565b60405180910390f35b610243600480360381019061023e9190611909565b610ea7565b6040516102509190611a1a565b60405180910390f35b610273600480360381019061026e9190611909565b61102f565b6040516102809190611a1a565b60405180910390f35b6102a3600480360381019061029e9190611a35565b61120b565b6040516102b09190611a1a565b60405180910390f35b60005481565b600481815481106102cf57600080fd5b906000526020600020016000915054906101000a900473ffffffffffffffffffffffffffffffffffffffff1681565b33600260009054906101000a900473ffffffffffffffffffffffffffffffffffffffff1673ffffffffffffffffffffffffffffffffffffffff168173ffffffffffffffffffffffffffffffffffffffff160361038f576040517f08c379a000000000000000000000000000000000000000000000000000000000815260040161038690611b32565b60405180910390fd5b600082511161039d57600080fd5b60003390506004819080600181540180825580915050600190039060005260206000200160009091909190916101000a81548173ffffffffffffffffffffffffffffffffffffffff021916908373ffffffffffffffffffffffffffffffffffffffff16021790555060018060008282546104179190611b81565b9250508190555082600660008373ffffffffffffffffffffffffffffffffffffffff1673ffffffffffffffffffffffffffffffffffffffff168152602001908152602001600020600101908161046d9190611de3565b506001600660008373ffffffffffffffffffffffffffffffffffffffff1673ffffffffffffffffffffffffffffffffffffffff16815260200190815260200160002060020160016101000a81548160ff0219169083151502179055506001600860008373ffffffffffffffffffffffffffffffffffffffff1673ffffffffffffffffffffffffffffffffffffffff16815260200190815260200160002060006101000a81548160ff021916908315150217905550505050565b606060008060006004858154811061054157610540611eb5565b5b9060005260206000200160009054906101000a900473ffffffffffffffffffffffffffffffffffffffff1690506000600660008373ffffffffffffffffffffffffffffffffffffffff1673ffffffffffffffffffffffffffffffffffffffff168152602001908152602001600020604051806080016040529081600082015481526020016001820180546105d490611c06565b80601f016020809104026020016040519081016040528092919081815260200182805461060090611c06565b801561064d5780601f106106225761010080835404028352916020019161064d565b820191906000526020600020905b81548152906001019060200180831161063057829003601f168201915b505050505081526020016002820160009054906101000a900460ff161515151581526020016002820160019054906101000a900460ff161515151581525050905080602001518160600151826040015194509450945050509193909250565b6060600260009054906101000a900473ffffffffffffffffffffffffffffffffffffffff1673ffffffffffffffffffffffffffffffffffffffff168273ffffffffffffffffffffffffffffffffffffffff1603610740576040518060400160405280600581526020017f61646d696e00000000000000000000000000000000000000000000000000000081525090506108a3565b60011515600760008473ffffffffffffffffffffffffffffffffffffffff1673ffffffffffffffffffffffffffffffffffffffff16815260200190815260200160002060009054906101000a900460ff161515036107d5576040518060400160405280600881526020017f70726f76696e636500000000000000000000000000000000000000000000000081525090506108a3565b60011515600860008473ffffffffffffffffffffffffffffffffffffffff1673ffffffffffffffffffffffffffffffffffffffff16815260200190815260200160002060009054906101000a900460ff1615150361086a576040518060400160405280600a81526020017f636f6e74726163746f720000000000000000000000000000000000000000000081525090506108a3565b6040518060400160405280600c81526020017f756e417574686f72697a6564000000000000000000000000000000000000000081525090505b919050565b606060006060600080600080600388815481106108c8576108c7611eb5565b5b9060005260206000200160009054906101000a900473ffffffffffffffffffffffffffffffffffffffff1690506000600560008373ffffffffffffffffffffffffffffffffffffffff1673ffffffffffffffffffffffffffffffffffffffff1681526020019081526020016000206040518060e00160405290816000820154815260200160018201805461095b90611c06565b80601f016020809104026020016040519081016040528092919081815260200182805461098790611c06565b80156109d45780601f106109a9576101008083540402835291602001916109d4565b820191906000526020600020905b8154815290600101906020018083116109b757829003601f168201915b50505050508152602001600282015481526020016003820180546109f790611c06565b80601f0160208091040260200160405190810160405280929190818152602001828054610a2390611c06565b8015610a705780601f10610a4557610100808354040283529160200191610a70565b820191906000526020600020905b815481529060010190602001808311610a5357829003601f168201915b505050505081526020016004820160009054906101000a900473ffffffffffffffffffffffffffffffffffffffff1673ffffffffffffffffffffffffffffffffffffffff1673ffffffffffffffffffffffffffffffffffffffff1681526020016004820160149054906101000a900460ff161515151581526020016004820160159054906101000a900460ff161515151581525050905080602001518160400151826060015183608001518460c001518560a00151975097509750975097509750505091939550919395565b600060606000606033600560008273ffffffffffffffffffffffffffffffffffffffff1673ffffffffffffffffffffffffffffffffffffffff16815260200190815260200160002060040160159054906101000a900460ff168015610bed5750600560008273ffffffffffffffffffffffffffffffffffffffff1673ffffffffffffffffffffffffffffffffffffffff16815260200190815260200160002060040160149054906101000a900460ff165b610c2c576040517f08c379a0000000000000000000000000000000000000000000000000000000008152600401610c2390611f56565b60405180910390fd5b6000600560003373ffffffffffffffffffffffffffffffffffffffff1673ffffffffffffffffffffffffffffffffffffffff1681526020019081526020016000206040518060e001604052908160008201548152602001600182018054610c9290611c06565b80601f0160208091040260200160405190810160405280929190818152602001828054610cbe90611c06565b8015610d0b5780601f10610ce057610100808354040283529160200191610d0b565b820191906000526020600020905b815481529060010190602001808311610cee57829003601f168201915b5050505050815260200160028201548152602001600382018054610d2e90611c06565b80601f0160208091040260200160405190810160405280929190818152602001828054610d5a90611c06565b8015610da75780601f10610d7c57610100808354040283529160200191610da7565b820191906000526020600020905b815481529060010190602001808311610d8a57829003601f168201915b505050505081526020016004820160009054906101000a900473ffffffffffffffffffffffffffffffffffffffff1673ffffffffffffffffffffffffffffffffffffffff1673ffffffffffffffffffffffffffffffffffffffff1681526020016004820160149054906101000a900460ff161515151581526020016004820160159054906101000a900460ff161515151581525050905080600001518160200151826040015183606001519550955095509550505090919293565b60015481565b60038181548110610e7857600080fd5b906000526020600020016000915054906101000a900473ffffffffffffffffffffffffffffffffffffffff1681565b600033600260009054906101000a900473ffffffffffffffffffffffffffffffffffffffff1673ffffffffffffffffffffffffffffffffffffffff168173ffffffffffffffffffffffffffffffffffffffff1614610f3a576040517f08c379a0000000000000000000000000000000000000000000000000000000008152600401610f3190611fc2565b60405180910390fd5b600560008473ffffffffffffffffffffffffffffffffffffffff1673ffffffffffffffffffffffffffffffffffffffff16815260200190815260200160002060040160149054906101000a900460ff1615610fca576040517f08c379a0000000000000000000000000000000000000000000000000000000008152600401610fc19061202e565b60405180910390fd5b6001600560008573ffffffffffffffffffffffffffffffffffffffff1673ffffffffffffffffffffffffffffffffffffffff16815260200190815260200160002060040160146101000a81548160ff0219169083151502179055506001915050919050565b600033600760008273ffffffffffffffffffffffffffffffffffffffff1673ffffffffffffffffffffffffffffffffffffffff16815260200190815260200160002060009054906101000a900460ff1680156110d75750600560008273ffffffffffffffffffffffffffffffffffffffff1673ffffffffffffffffffffffffffffffffffffffff16815260200190815260200160002060040160149054906101000a900460ff165b611116576040517f08c379a000000000000000000000000000000000000000000000000000000000815260040161110d906120c0565b60405180910390fd5b600660008473ffffffffffffffffffffffffffffffffffffffff1673ffffffffffffffffffffffffffffffffffffffff16815260200190815260200160002060020160009054906101000a900460ff16156111a6576040517f08c379a000000000000000000000000000000000000000000000000000000000815260040161119d90612152565b60405180910390fd5b6001600560008573ffffffffffffffffffffffffffffffffffffffff1673ffffffffffffffffffffffffffffffffffffffff16815260200190815260200160002060040160146101000a81548160ff0219169083151502179055506001915050919050565b600033600260009054906101000a900473ffffffffffffffffffffffffffffffffffffffff1673ffffffffffffffffffffffffffffffffffffffff168173ffffffffffffffffffffffffffffffffffffffff160361129e576040517f08c379a000000000000000000000000000000000000000000000000000000000815260040161129590611b32565b60405180910390fd5b60008551116112ac57600080fd5b600084116112b957600080fd5b60008351116112c757600080fd5b60003390506003819080600181540180825580915050600190039060005260206000200160009091909190916101000a81548173ffffffffffffffffffffffffffffffffffffffff021916908373ffffffffffffffffffffffffffffffffffffffff16021790555060016000808282546113419190611b81565b9250508190555085600560008373ffffffffffffffffffffffffffffffffffffffff1673ffffffffffffffffffffffffffffffffffffffff16815260200190815260200160002060010190816113979190611de3565b5084600560008373ffffffffffffffffffffffffffffffffffffffff1673ffffffffffffffffffffffffffffffffffffffff1681526020019081526020016000206002018190555083600560008373ffffffffffffffffffffffffffffffffffffffff1673ffffffffffffffffffffffffffffffffffffffff168152602001908152602001600020600301908161142e9190611de3565b5080600560008373ffffffffffffffffffffffffffffffffffffffff1673ffffffffffffffffffffffffffffffffffffffff16815260200190815260200160002060040160006101000a81548173ffffffffffffffffffffffffffffffffffffffff021916908373ffffffffffffffffffffffffffffffffffffffff1602179055506001600560008373ffffffffffffffffffffffffffffffffffffffff1673ffffffffffffffffffffffffffffffffffffffff16815260200190815260200160002060040160156101000a81548160ff0219169083151502179055506001600760008373ffffffffffffffffffffffffffffffffffffffff1673ffffffffffffffffffffffffffffffffffffffff16815260200190815260200160002060006101000a81548160ff0219169083151502179055506001925050509392505050565b6000819050919050565b61158381611570565b82525050565b600060208201905061159e600083018461157a565b92915050565b6000604051905090565b600080fd5b600080fd5b6115c181611570565b81146115cc57600080fd5b50565b6000813590506115de816115b8565b92915050565b6000602082840312156115fa576115f96115ae565b5b6000611608848285016115cf565b91505092915050565b600073ffffffffffffffffffffffffffffffffffffffff82169050919050565b600061163c82611611565b9050919050565b61164c81611631565b82525050565b60006020820190506116676000830184611643565b92915050565b600080fd5b600080fd5b6000601f19601f8301169050919050565b7f4e487b7100000000000000000000000000000000000000000000000000000000600052604160045260246000fd5b6116c082611677565b810181811067ffffffffffffffff821117156116df576116de611688565b5b80604052505050565b60006116f26115a4565b90506116fe82826116b7565b919050565b600067ffffffffffffffff82111561171e5761171d611688565b5b61172782611677565b9050602081019050919050565b82818337600083830152505050565b600061175661175184611703565b6116e8565b90508281526020810184848401111561177257611771611672565b5b61177d848285611734565b509392505050565b600082601f83011261179a5761179961166d565b5b81356117aa848260208601611743565b91505092915050565b6000602082840312156117c9576117c86115ae565b5b600082013567ffffffffffffffff8111156117e7576117e66115b3565b5b6117f384828501611785565b91505092915050565b600081519050919050565b600082825260208201905092915050565b60005b8381101561183657808201518184015260208101905061181b565b83811115611845576000848401525b50505050565b6000611856826117fc565b6118608185611807565b9350611870818560208601611818565b61187981611677565b840191505092915050565b60008115159050919050565b61189981611884565b82525050565b600060608201905081810360008301526118b9818661184b565b90506118c86020830185611890565b6118d56040830184611890565b949350505050565b6118e681611631565b81146118f157600080fd5b50565b600081359050611903816118dd565b92915050565b60006020828403121561191f5761191e6115ae565b5b600061192d848285016118f4565b91505092915050565b60006020820190508181036000830152611950818461184b565b905092915050565b600060c0820190508181036000830152611972818961184b565b9050611981602083018861157a565b8181036040830152611993818761184b565b90506119a26060830186611643565b6119af6080830185611890565b6119bc60a0830184611890565b979650505050505050565b60006080820190506119dc600083018761157a565b81810360208301526119ee818661184b565b90506119fd604083018561157a565b8181036060830152611a0f818461184b565b905095945050505050565b6000602082019050611a2f6000830184611890565b92915050565b600080600060608486031215611a4e57611a4d6115ae565b5b600084013567ffffffffffffffff811115611a6c57611a6b6115b3565b5b611a7886828701611785565b9350506020611a89868287016115cf565b925050604084013567ffffffffffffffff811115611aaa57611aa96115b3565b5b611ab686828701611785565b9150509250925092565b7f41646d696e2063616e6e6f74206265207265676973746572656420617320507260008201527f6f76696e63650000000000000000000000000000000000000000000000000000602082015250565b6000611b1c602683611807565b9150611b2782611ac0565b604082019050919050565b60006020820190508181036000830152611b4b81611b0f565b9050919050565b7f4e487b7100000000000000000000000000000000000000000000000000000000600052601160045260246000fd5b6000611b8c82611570565b9150611b9783611570565b9250827fffffffffffffffffffffffffffffffffffffffffffffffffffffffffffffffff03821115611bcc57611bcb611b52565b5b828201905092915050565b7f4e487b7100000000000000000000000000000000000000000000000000000000600052602260045260246000fd5b60006002820490506001821680611c1e57607f821691505b602082108103611c3157611c30611bd7565b5b50919050565b60008190508160005260206000209050919050565b60006020601f8301049050919050565b600082821b905092915050565b600060088302611c997fffffffffffffffffffffffffffffffffffffffffffffffffffffffffffffffff82611c5c565b611ca38683611c5c565b95508019841693508086168417925050509392505050565b6000819050919050565b6000611ce0611cdb611cd684611570565b611cbb565b611570565b9050919050565b6000819050919050565b611cfa83611cc5565b611d0e611d0682611ce7565b848454611c69565b825550505050565b600090565b611d23611d16565b611d2e818484611cf1565b505050565b5b81811015611d5257611d47600082611d1b565b600181019050611d34565b5050565b601f821115611d9757611d6881611c37565b611d7184611c4c565b81016020851015611d80578190505b611d94611d8c85611c4c565b830182611d33565b50505b505050565b600082821c905092915050565b6000611dba60001984600802611d9c565b1980831691505092915050565b6000611dd38383611da9565b9150826002028217905092915050565b611dec826117fc565b67ffffffffffffffff811115611e0557611e04611688565b5b611e0f8254611c06565b611e1a828285611d56565b600060209050601f831160018114611e4d5760008415611e3b578287015190505b611e458582611dc7565b865550611ead565b601f198416611e5b86611c37565b60005b82811015611e8357848901518255600182019150602085019450602081019050611e5e565b86831015611ea05784890151611e9c601f891682611da9565b8355505b6001600288020188555050505b505050505050565b7f4e487b7100000000000000000000000000000000000000000000000000000000600052603260045260246000fd5b7f596f7520617265206e6f742072656769737465726564206f7220617070726f7660008201527f65642070726f76696e6365000000000000000000000000000000000000000000602082015250565b6000611f40602b83611807565b9150611f4b82611ee4565b604082019050919050565b60006020820190508181036000830152611f6f81611f33565b9050919050565b7f4f6e6c792041646d696e2063616e207665726966792e00000000000000000000600082015250565b6000611fac601683611807565b9150611fb782611f76565b602082019050919050565b60006020820190508181036000830152611fdb81611f9f565b9050919050565b7f5468652070726f76696e636520697320616c726561647920617070726f766564600082015250565b6000612018602083611807565b915061202382611fe2565b602082019050919050565b600060208201905081810360008301526120478161200b565b9050919050565b7f4f6e6c7920617070726f7665642050726f76696e63652063616e20766572696660008201527f792e000000000000000000000000000000000000000000000000000000000000602082015250565b60006120aa602283611807565b91506120b58261204e565b604082019050919050565b600060208201905081810360008301526120d98161209d565b9050919050565b7f54686520436f6e74726163746f7220697320616c726561647920617070726f7660008201527f6564000000000000000000000000000000000000000000000000000000000000602082015250565b600061213c602283611807565b9150612147826120e0565b604082019050919050565b6000602082019050818103600083015261216b8161212f565b905091905056fea264697066735822122002a2cb349922b9a3bbf074c3fa7fadd4421c4abb15be11aace1319355daa759e64736f6c634300080f0033",
  "immutableReferences": {},
  "source": "// SPDX-License-Identifier:MIT\r\n\r\npragma solidity ^0.8.1;\r\n\r\ncontract FundAllocation {\r\n    uint256 public provinceIndex = 0;\r\n    uint256 public contractorIndex = 0;\r\n    address private admin;\r\n\r\n    struct Province {\r\n        uint256 id;\r\n        string name;\r\n        uint256 stateNo;\r\n        string capital;\r\n        address wallet;\r\n        bool isApproved;\r\n        bool isRegistered;\r\n    }\r\n\r\n    struct Contractor {\r\n        uint256 id;\r\n        string name;\r\n        bool isApproved;\r\n        bool isRegistered;\r\n    }\r\n\r\n    address[] public provinceList;\r\n    address[] public contractorList;\r\n\r\n    mapping(address => Province) provinces;\r\n    mapping(address => Contractor) contractors;\r\n    mapping(address => bool) isProvince;\r\n    mapping(address => bool) isContractor;\r\n\r\n    constructor() {\r\n        admin = msg.sender;\r\n    }\r\n\r\n    modifier excludeAdmin(address _address) {\r\n        require(_address != admin, \"Admin cannot be registered as Province\");\r\n        _;\r\n    }\r\n\r\n    modifier verifierAdmin(address _address) {\r\n        require(_address == admin, \"Only Admin can verify.\");\r\n        _;\r\n    }\r\n\r\n    modifier verifierProvince(address _address) {\r\n        require(\r\n            (isProvince[_address] && provinces[_address].isApproved),\r\n            \"Only approved Province can verify.\"\r\n        );\r\n        _;\r\n    }\r\n\r\n    modifier registeredAndApprovedProvince(address _address) {\r\n        require(\r\n            (provinces[_address].isRegistered &&\r\n                provinces[_address].isApproved),\r\n            \"You are not registered or approved province\"\r\n        );\r\n        _;\r\n    }\r\n\r\n    function findUserRole(address _address)\r\n        public\r\n        view\r\n        returns (string memory user)\r\n    {\r\n        if (_address == admin) {\r\n            return \"admin\";\r\n        } else if (isProvince[_address] == true) {\r\n            return \"province\";\r\n        } else if (isContractor[_address] == true) {\r\n            return \"contractor\";\r\n        } else {\r\n            return \"unAuthorized\";\r\n        }\r\n    }\r\n\r\n    function registerProvince(\r\n        string memory _name,\r\n        uint256 _stateNo,\r\n        string memory _capital\r\n    ) public excludeAdmin(msg.sender) returns (bool) {\r\n        require(bytes(_name).length > 0);\r\n        require(_stateNo > 0);\r\n        require(bytes(_capital).length > 0);\r\n        address _address = msg.sender;\r\n\r\n        provinceList.push(_address);\r\n        provinceIndex += 1;\r\n\r\n        provinces[_address].name = _name;\r\n        provinces[_address].stateNo = _stateNo;\r\n        provinces[_address].capital = _capital;\r\n        provinces[_address].wallet = _address;\r\n        provinces[_address].isRegistered = true;\r\n        isProvince[_address] = true;\r\n        return true;\r\n    }\r\n\r\n    function verifyProvince(address _address)\r\n        public\r\n        verifierAdmin(msg.sender)\r\n        returns (bool)\r\n    {\r\n        require(\r\n            !provinces[_address].isApproved,\r\n            \"The province is already approved\"\r\n        );\r\n        provinces[_address].isApproved = true;\r\n        return true;\r\n    }\r\n\r\n    function allProvince(uint256 _id)\r\n        public\r\n        view\r\n        returns (\r\n            string memory,\r\n            uint256,\r\n            string memory,\r\n            address,\r\n            bool,\r\n            bool\r\n        )\r\n    {\r\n        address _address = provinceList[_id];\r\n        Province memory currentProvince = provinces[_address];\r\n        return (\r\n            currentProvince.name,\r\n            currentProvince.stateNo,\r\n            currentProvince.capital,\r\n            currentProvince.wallet,\r\n            currentProvince.isRegistered,\r\n            currentProvince.isApproved\r\n        );\r\n    }\r\n\r\n    function myProvince()\r\n        public\r\n        view\r\n        registeredAndApprovedProvince(msg.sender)\r\n        returns (\r\n            uint256,\r\n            string memory,\r\n            uint256,\r\n            string memory\r\n        )\r\n    {\r\n        Province memory currentProvince = provinces[msg.sender];\r\n        return (\r\n            currentProvince.id,\r\n            currentProvince.name,\r\n            currentProvince.stateNo,\r\n            currentProvince.capital\r\n        );\r\n    }\r\n\r\n    function registerContractor(string memory _name)\r\n        public\r\n        excludeAdmin(msg.sender)\r\n    {\r\n        require(bytes(_name).length > 0);\r\n        address _address = msg.sender;\r\n\r\n        contractorList.push(_address);\r\n        contractorIndex += 1;\r\n\r\n        contractors[_address].name = _name;\r\n        contractors[_address].isRegistered = true;\r\n        isContractor[_address] = true;\r\n    }\r\n\r\n    function verifyContractor(address _address)\r\n        public\r\n        verifierProvince(msg.sender)\r\n        returns (bool)\r\n    {\r\n        require(\r\n            !contractors[_address].isApproved,\r\n            \"The Contractor is already approved\"\r\n        );\r\n        provinces[_address].isApproved = true;\r\n        return true;\r\n    }\r\n\r\n    function allContractor(uint256 _id)public view returns(string memory,bool,bool){\r\n        address _address=contractorList[_id];\r\n        Contractor memory currentContractor=contractors[_address];\r\n        return (currentContractor.name,currentContractor.isRegistered,currentContractor.isApproved);\r\n\r\n    }\r\n\r\n    // function getTotalStates() public view returns(uint256){\r\n    //     return stateList.length;\r\n    // }\r\n\r\n    // function stateLogin() public{\r\n    //     if(states[msg.sender].isApproved == true ){\r\n\r\n    //     }\r\n    // }\r\n}\r\n",
  "sourcePath": "C:\\Miscs\\Outside\\Esatya\\GFATS\\src\\contracts\\FundAllocation.sol",
  "compiler": {
    "name": "solc",
    "version": "0.8.15+commit.e14f2714.Emscripten.clang"
  },
  "schemaVersion": "3.4.7",
  "updatedAt": "2022-06-27T12:57:56.081Z",
  "networkType": "ethereum",
  "devdoc": {
    "kind": "dev",
    "methods": {},
    "version": 1
  },
  "userdoc": {
    "kind": "user",
    "methods": {},
    "version": 1
  }
}