{
  "contractName": "FundAllocation",
  "abi": [
    {
      "inputs": [],
      "stateMutability": "nonpayable",
      "type": "constructor"
    },
    {
      "inputs": [],
      "name": "contractorIndex",
      "outputs": [
        {
          "internalType": "uint256",
          "name": "",
          "type": "uint256"
        }
      ],
      "stateMutability": "view",
      "type": "function",
      "constant": true
    },
    {
      "inputs": [
        {
          "internalType": "uint256",
          "name": "",
          "type": "uint256"
        }
      ],
      "name": "contractorList",
      "outputs": [
        {
          "internalType": "address",
          "name": "",
          "type": "address"
        }
      ],
      "stateMutability": "view",
      "type": "function",
      "constant": true
    },
    {
      "inputs": [],
      "name": "projectIndex",
      "outputs": [
        {
          "internalType": "uint256",
          "name": "",
          "type": "uint256"
        }
      ],
      "stateMutability": "view",
      "type": "function",
      "constant": true
    },
    {
      "inputs": [],
      "name": "provinceIndex",
      "outputs": [
        {
          "internalType": "uint256",
          "name": "",
          "type": "uint256"
        }
      ],
      "stateMutability": "view",
      "type": "function",
      "constant": true
    },
    {
      "inputs": [
        {
          "internalType": "uint256",
          "name": "",
          "type": "uint256"
        }
      ],
      "name": "provinceList",
      "outputs": [
        {
          "internalType": "address",
          "name": "",
          "type": "address"
        }
      ],
      "stateMutability": "view",
      "type": "function",
      "constant": true
    },
    {
      "inputs": [
        {
          "internalType": "address",
          "name": "_address",
          "type": "address"
        }
      ],
      "name": "findUserRole",
      "outputs": [
        {
          "internalType": "string",
          "name": "user",
          "type": "string"
        }
      ],
      "stateMutability": "view",
      "type": "function",
      "constant": true
    },
    {
      "inputs": [
        {
          "internalType": "string",
          "name": "_name",
          "type": "string"
        },
        {
          "internalType": "uint256",
          "name": "_stateNo",
          "type": "uint256"
        },
        {
          "internalType": "string",
          "name": "_capital",
          "type": "string"
        }
      ],
      "name": "registerProvince",
      "outputs": [
        {
          "internalType": "bool",
          "name": "",
          "type": "bool"
        }
      ],
      "stateMutability": "nonpayable",
      "type": "function"
    },
    {
      "inputs": [
        {
          "internalType": "address",
          "name": "_address",
          "type": "address"
        }
      ],
      "name": "verifyProvince",
      "outputs": [
        {
          "internalType": "bool",
          "name": "",
          "type": "bool"
        }
      ],
      "stateMutability": "nonpayable",
      "type": "function"
    },
    {
      "inputs": [
        {
          "internalType": "uint256",
          "name": "_id",
          "type": "uint256"
        }
      ],
      "name": "allProvince",
      "outputs": [
        {
          "internalType": "string",
          "name": "",
          "type": "string"
        },
        {
          "internalType": "uint256",
          "name": "",
          "type": "uint256"
        },
        {
          "internalType": "string",
          "name": "",
          "type": "string"
        },
        {
          "internalType": "address",
          "name": "",
          "type": "address"
        },
        {
          "internalType": "bool",
          "name": "",
          "type": "bool"
        },
        {
          "internalType": "bool",
          "name": "",
          "type": "bool"
        }
      ],
      "stateMutability": "view",
      "type": "function",
      "constant": true
    },
    {
      "inputs": [],
      "name": "myProvince",
      "outputs": [
        {
          "internalType": "uint256",
          "name": "",
          "type": "uint256"
        },
        {
          "internalType": "string",
          "name": "",
          "type": "string"
        },
        {
          "internalType": "uint256",
          "name": "",
          "type": "uint256"
        },
        {
          "internalType": "string",
          "name": "",
          "type": "string"
        }
      ],
      "stateMutability": "view",
      "type": "function",
      "constant": true
    },
    {
      "inputs": [
        {
          "internalType": "string",
          "name": "_name",
          "type": "string"
        }
      ],
      "name": "registerContractor",
      "outputs": [],
      "stateMutability": "nonpayable",
      "type": "function"
    },
    {
      "inputs": [
        {
          "internalType": "address",
          "name": "_address",
          "type": "address"
        }
      ],
      "name": "verifyContractor",
      "outputs": [
        {
          "internalType": "bool",
          "name": "",
          "type": "bool"
        }
      ],
      "stateMutability": "nonpayable",
      "type": "function"
    },
    {
      "inputs": [
        {
          "internalType": "uint256",
          "name": "_id",
          "type": "uint256"
        }
      ],
      "name": "allContractor",
      "outputs": [
        {
          "internalType": "string",
          "name": "",
          "type": "string"
        },
        {
          "internalType": "bool",
          "name": "",
          "type": "bool"
        },
        {
          "internalType": "bool",
          "name": "",
          "type": "bool"
        }
      ],
      "stateMutability": "view",
      "type": "function",
      "constant": true
    },
    {
      "inputs": [
        {
          "internalType": "string",
          "name": "_name",
          "type": "string"
        }
      ],
      "name": "createProvinceProject",
      "outputs": [
        {
          "internalType": "bool",
          "name": "",
          "type": "bool"
        }
      ],
      "stateMutability": "nonpayable",
      "type": "function"
    },
    {
      "inputs": [
        {
          "internalType": "uint256",
          "name": "_id",
          "type": "uint256"
        }
      ],
      "name": "allProject",
      "outputs": [
        {
          "internalType": "string",
          "name": "",
          "type": "string"
        },
        {
          "internalType": "string",
          "name": "",
          "type": "string"
        },
        {
          "internalType": "address",
          "name": "",
          "type": "address"
        },
        {
          "internalType": "address",
          "name": "",
          "type": "address"
        },
        {
          "internalType": "bool",
          "name": "",
          "type": "bool"
        },
        {
          "internalType": "bool",
          "name": "",
          "type": "bool"
        }
      ],
      "stateMutability": "view",
      "type": "function",
      "constant": true
    },
    {
      "inputs": [
        {
          "internalType": "uint256",
          "name": "_id",
          "type": "uint256"
        }
      ],
      "name": "applyForProject",
      "outputs": [
        {
          "internalType": "bool",
          "name": "",
          "type": "bool"
        }
      ],
      "stateMutability": "nonpayable",
      "type": "function"
    },
    {
      "inputs": [
        {
          "internalType": "uint256",
          "name": "_id",
          "type": "uint256"
        }
      ],
      "name": "getProjectApplications",
      "outputs": [
        {
          "internalType": "address[]",
          "name": "",
          "type": "address[]"
        }
      ],
      "stateMutability": "view",
      "type": "function",
      "constant": true
    },
    {
      "inputs": [
        {
          "internalType": "uint256",
          "name": "_id",
          "type": "uint256"
        },
        {
          "internalType": "address",
          "name": "_address",
          "type": "address"
        }
      ],
      "name": "assignProject",
      "outputs": [
        {
          "internalType": "bool",
          "name": "",
          "type": "bool"
        }
      ],
      "stateMutability": "nonpayable",
      "type": "function"
    }
  ],
  "bytecode": "0x6080604052600080556000600155600060025534801561001e57600080fd5b5033600360006101000a81548173ffffffffffffffffffffffffffffffffffffffff021916908373ffffffffffffffffffffffffffffffffffffffff16021790555061335c8061006f6000396000f3fe608060405234801561001057600080fd5b50600436106101165760003560e01c80639390539f116100a2578063bf1f237f11610071578063bf1f237f14610350578063d39e55d51461036e578063d8d774611461039e578063dc7a72e7146103ce578063e1b44d2b146103fe57610116565b80639390539f1461029a5780639455d1f2146102ca578063981e9c2b146102ff5780639e7f91031461032f57610116565b806336e9afb5116100e957806336e9afb5146101ba5780635e47dbda146101ec578063631847261461021c57806370fb7d191461023a5780637e020e061461026a57610116565b80630701fb5b1461011b57806317a259881461013957806330445b481461016957806336a4fc8e14610185575b600080fd5b61012361042e565b6040516101309190612344565b60405180910390f35b610153600480360381019061014e919061239f565b610434565b604051610160919061240d565b60405180910390f35b610183600480360381019061017e919061256e565b610473565b005b61019f600480360381019061019a919061239f565b61069b565b6040516101b19695949392919061265a565b60405180910390f35b6101d460048036038101906101cf919061239f565b610951565b6040516101e3939291906126c9565b60405180910390f35b6102066004803603810190610201919061256e565b610ad7565b6040516102139190612707565b60405180910390f35b610224610e21565b6040516102319190612344565b60405180910390f35b610254600480360381019061024f919061274e565b610e27565b604051610261919061277b565b60405180910390f35b610284600480360381019061027f919061239f565b611023565b6040516102919190612707565b60405180910390f35b6102b460048036038101906102af919061239f565b6111f5565b6040516102c1919061285b565b60405180910390f35b6102e460048036038101906102df919061239f565b6112e7565b6040516102f69695949392919061287d565b60405180910390f35b610319600480360381019061031491906128ec565b61157b565b6040516103269190612707565b60405180910390f35b610337611826565b604051610347949392919061292c565b60405180910390f35b610358611b4c565b6040516103659190612344565b60405180910390f35b6103886004803603810190610383919061239f565b611b52565b604051610395919061240d565b60405180910390f35b6103b860048036038101906103b3919061274e565b611b91565b6040516103c59190612707565b60405180910390f35b6103e860048036038101906103e3919061274e565b611d19565b6040516103f59190612707565b60405180910390f35b6104186004803603810190610413919061297f565b611ef5565b6040516104259190612707565b60405180910390f35b60005481565b6007818154811061044457600080fd5b906000526020600020016000915054906101000a900473ffffffffffffffffffffffffffffffffffffffff1681565b33600360009054906101000a900473ffffffffffffffffffffffffffffffffffffffff1673ffffffffffffffffffffffffffffffffffffffff168173ffffffffffffffffffffffffffffffffffffffff1603610504576040517f08c379a00000000000000000000000000000000000000000000000000000000081526004016104fb90612a7c565b60405180910390fd5b600082511161051257600080fd5b60003390506007819080600181540180825580915050600190039060005260206000200160009091909190916101000a81548173ffffffffffffffffffffffffffffffffffffffff021916908373ffffffffffffffffffffffffffffffffffffffff160217905550600180600082825461058c9190612acb565b9250508190555082600960008373ffffffffffffffffffffffffffffffffffffffff1673ffffffffffffffffffffffffffffffffffffffff16815260200190815260200160002060010190816105e29190612d2d565b506001600960008373ffffffffffffffffffffffffffffffffffffffff1673ffffffffffffffffffffffffffffffffffffffff16815260200190815260200160002060020160016101000a81548160ff0219169083151502179055506001600b60008373ffffffffffffffffffffffffffffffffffffffff1673ffffffffffffffffffffffffffffffffffffffff16815260200190815260200160002060006101000a81548160ff021916908315150217905550505050565b606080600080600080600087101580156106b6575060025487105b6106f5576040517f08c379a00000000000000000000000000000000000000000000000000000000081526004016106ec90612e4b565b60405180910390fd5b6000600460008981526020019081526020016000206040518060c001604052908160008201805461072590612b50565b80601f016020809104026020016040519081016040528092919081815260200182805461075190612b50565b801561079e5780601f106107735761010080835404028352916020019161079e565b820191906000526020600020905b81548152906001019060200180831161078157829003601f168201915b505050505081526020016001820180546107b790612b50565b80601f01602080910402602001604051908101604052809291908181526020018280546107e390612b50565b80156108305780601f1061080557610100808354040283529160200191610830565b820191906000526020600020905b81548152906001019060200180831161081357829003601f168201915b505050505081526020016002820160009054906101000a900473ffffffffffffffffffffffffffffffffffffffff1673ffffffffffffffffffffffffffffffffffffffff1673ffffffffffffffffffffffffffffffffffffffff1681526020016003820160009054906101000a900473ffffffffffffffffffffffffffffffffffffffff1673ffffffffffffffffffffffffffffffffffffffff1673ffffffffffffffffffffffffffffffffffffffff1681526020016003820160149054906101000a900460ff161515151581526020016003820160159054906101000a900460ff1615151515815250509050806000015181602001518260400151836060015184608001518560a001519650965096509650965096505091939550919395565b606060008060006007858154811061096c5761096b612e6b565b5b9060005260206000200160009054906101000a900473ffffffffffffffffffffffffffffffffffffffff1690506000600960008373ffffffffffffffffffffffffffffffffffffffff1673ffffffffffffffffffffffffffffffffffffffff168152602001908152602001600020604051806080016040529081600082015481526020016001820180546109ff90612b50565b80601f0160208091040260200160405190810160405280929190818152602001828054610a2b90612b50565b8015610a785780601f10610a4d57610100808354040283529160200191610a78565b820191906000526020600020905b815481529060010190602001808311610a5b57829003601f168201915b505050505081526020016002820160009054906101000a900460ff161515151581526020016002820160019054906101000a900460ff161515151581525050905080602001518160600151826040015194509450945050509193909250565b600033600860008273ffffffffffffffffffffffffffffffffffffffff1673ffffffffffffffffffffffffffffffffffffffff16815260200190815260200160002060040160159054906101000a900460ff168015610b825750600860008273ffffffffffffffffffffffffffffffffffffffff1673ffffffffffffffffffffffffffffffffffffffff16815260200190815260200160002060040160149054906101000a900460ff165b610bc1576040517f08c379a0000000000000000000000000000000000000000000000000000000008152600401610bb890612f0c565b60405180910390fd5b60006040518060c00160405280858152602001600860003373ffffffffffffffffffffffffffffffffffffffff1673ffffffffffffffffffffffffffffffffffffffff1681526020019081526020016000206001018054610c2190612b50565b80601f0160208091040260200160405190810160405280929190818152602001828054610c4d90612b50565b8015610c9a5780601f10610c6f57610100808354040283529160200191610c9a565b820191906000526020600020905b815481529060010190602001808311610c7d57829003601f168201915b505050505081526020013373ffffffffffffffffffffffffffffffffffffffff1681526020013373ffffffffffffffffffffffffffffffffffffffff168152602001600015158152602001600015158152509050806004600060025481526020019081526020016000206000820151816000019081610d199190612d2d565b506020820151816001019081610d2f9190612d2d565b5060408201518160020160006101000a81548173ffffffffffffffffffffffffffffffffffffffff021916908373ffffffffffffffffffffffffffffffffffffffff16021790555060608201518160030160006101000a81548173ffffffffffffffffffffffffffffffffffffffff021916908373ffffffffffffffffffffffffffffffffffffffff16021790555060808201518160030160146101000a81548160ff02191690831515021790555060a08201518160030160156101000a81548160ff0219169083151502179055509050506001600254610e109190612acb565b600281905550600192505050919050565b60025481565b6060600360009054906101000a900473ffffffffffffffffffffffffffffffffffffffff1673ffffffffffffffffffffffffffffffffffffffff168273ffffffffffffffffffffffffffffffffffffffff1603610ebb576040518060400160405280600581526020017f61646d696e000000000000000000000000000000000000000000000000000000815250905061101e565b60011515600a60008473ffffffffffffffffffffffffffffffffffffffff1673ffffffffffffffffffffffffffffffffffffffff16815260200190815260200160002060009054906101000a900460ff16151503610f50576040518060400160405280600881526020017f70726f76696e6365000000000000000000000000000000000000000000000000815250905061101e565b60011515600b60008473ffffffffffffffffffffffffffffffffffffffff1673ffffffffffffffffffffffffffffffffffffffff16815260200190815260200160002060009054906101000a900460ff16151503610fe5576040518060400160405280600a81526020017f636f6e74726163746f7200000000000000000000000000000000000000000000815250905061101e565b6040518060400160405280600c81526020017f756e417574686f72697a6564000000000000000000000000000000000000000081525090505b919050565b600033600960008273ffffffffffffffffffffffffffffffffffffffff1673ffffffffffffffffffffffffffffffffffffffff16815260200190815260200160002060020160019054906101000a900460ff1680156110ce5750600960008273ffffffffffffffffffffffffffffffffffffffff1673ffffffffffffffffffffffffffffffffffffffff16815260200190815260200160002060020160009054906101000a900460ff165b61110d576040517f08c379a000000000000000000000000000000000000000000000000000000000815260040161110490612f9e565b60405180910390fd5b600015156004600085815260200190815260200160002060030160149054906101000a900460ff16151514611177576040517f08c379a000000000000000000000000000000000000000000000000000000000815260040161116e90613030565b60405180910390fd5b60056000848152602001908152602001600020339080600181540180825580915050600190039060005260206000200160009091909190916101000a81548173ffffffffffffffffffffffffffffffffffffffff021916908373ffffffffffffffffffffffffffffffffffffffff1602179055506001915050919050565b606060008210158015611209575060025482105b611248576040517f08c379a000000000000000000000000000000000000000000000000000000000815260040161123f90612e4b565b60405180910390fd5b600560008381526020019081526020016000208054806020026020016040519081016040528092919081815260200182805480156112db57602002820191906000526020600020905b8160009054906101000a900473ffffffffffffffffffffffffffffffffffffffff1673ffffffffffffffffffffffffffffffffffffffff1681526020019060010190808311611291575b50505050509050919050565b6060600060606000806000806006888154811061130757611306612e6b565b5b9060005260206000200160009054906101000a900473ffffffffffffffffffffffffffffffffffffffff1690506000600860008373ffffffffffffffffffffffffffffffffffffffff1673ffffffffffffffffffffffffffffffffffffffff1681526020019081526020016000206040518060e00160405290816000820154815260200160018201805461139a90612b50565b80601f01602080910402602001604051908101604052809291908181526020018280546113c690612b50565b80156114135780601f106113e857610100808354040283529160200191611413565b820191906000526020600020905b8154815290600101906020018083116113f657829003601f168201915b505050505081526020016002820154815260200160038201805461143690612b50565b80601f016020809104026020016040519081016040528092919081815260200182805461146290612b50565b80156114af5780601f10611484576101008083540402835291602001916114af565b820191906000526020600020905b81548152906001019060200180831161149257829003601f168201915b505050505081526020016004820160009054906101000a900473ffffffffffffffffffffffffffffffffffffffff1673ffffffffffffffffffffffffffffffffffffffff1673ffffffffffffffffffffffffffffffffffffffff1681526020016004820160149054906101000a900460ff161515151581526020016004820160159054906101000a900460ff161515151581525050905080602001518160400151826060015183608001518460c001518560a00151975097509750975097509750505091939550919395565b600033600860008273ffffffffffffffffffffffffffffffffffffffff1673ffffffffffffffffffffffffffffffffffffffff16815260200190815260200160002060040160159054906101000a900460ff1680156116265750600860008273ffffffffffffffffffffffffffffffffffffffff1673ffffffffffffffffffffffffffffffffffffffff16815260200190815260200160002060040160149054906101000a900460ff165b611665576040517f08c379a000000000000000000000000000000000000000000000000000000000815260040161165c90612f0c565b60405180910390fd5b82600960008273ffffffffffffffffffffffffffffffffffffffff1673ffffffffffffffffffffffffffffffffffffffff16815260200190815260200160002060020160019054906101000a900460ff16801561170e5750600960008273ffffffffffffffffffffffffffffffffffffffff1673ffffffffffffffffffffffffffffffffffffffff16815260200190815260200160002060020160009054906101000a900460ff165b61174d576040517f08c379a000000000000000000000000000000000000000000000000000000000815260040161174490612f9e565b60405180910390fd5b611757858561225a565b611796576040517f08c379a000000000000000000000000000000000000000000000000000000000815260040161178d906130c2565b60405180910390fd5b60016004600087815260200190815260200160002060030160146101000a81548160ff021916908315150217905550836004600087815260200190815260200160002060030160006101000a81548173ffffffffffffffffffffffffffffffffffffffff021916908373ffffffffffffffffffffffffffffffffffffffff16021790555060019250505092915050565b600060606000606033600860008273ffffffffffffffffffffffffffffffffffffffff1673ffffffffffffffffffffffffffffffffffffffff16815260200190815260200160002060040160159054906101000a900460ff1680156118d75750600860008273ffffffffffffffffffffffffffffffffffffffff1673ffffffffffffffffffffffffffffffffffffffff16815260200190815260200160002060040160149054906101000a900460ff165b611916576040517f08c379a000000000000000000000000000000000000000000000000000000000815260040161190d90612f0c565b60405180910390fd5b6000600860003373ffffffffffffffffffffffffffffffffffffffff1673ffffffffffffffffffffffffffffffffffffffff1681526020019081526020016000206040518060e00160405290816000820154815260200160018201805461197c90612b50565b80601f01602080910402602001604051908101604052809291908181526020018280546119a890612b50565b80156119f55780601f106119ca576101008083540402835291602001916119f5565b820191906000526020600020905b8154815290600101906020018083116119d857829003601f168201915b5050505050815260200160028201548152602001600382018054611a1890612b50565b80601f0160208091040260200160405190810160405280929190818152602001828054611a4490612b50565b8015611a915780601f10611a6657610100808354040283529160200191611a91565b820191906000526020600020905b815481529060010190602001808311611a7457829003601f168201915b505050505081526020016004820160009054906101000a900473ffffffffffffffffffffffffffffffffffffffff1673ffffffffffffffffffffffffffffffffffffffff1673ffffffffffffffffffffffffffffffffffffffff1681526020016004820160149054906101000a900460ff161515151581526020016004820160159054906101000a900460ff161515151581525050905080600001518160200151826040015183606001519550955095509550505090919293565b60015481565b60068181548110611b6257600080fd5b906000526020600020016000915054906101000a900473ffffffffffffffffffffffffffffffffffffffff1681565b600033600360009054906101000a900473ffffffffffffffffffffffffffffffffffffffff1673ffffffffffffffffffffffffffffffffffffffff168173ffffffffffffffffffffffffffffffffffffffff1614611c24576040517f08c379a0000000000000000000000000000000000000000000000000000000008152600401611c1b9061312e565b60405180910390fd5b600860008473ffffffffffffffffffffffffffffffffffffffff1673ffffffffffffffffffffffffffffffffffffffff16815260200190815260200160002060040160149054906101000a900460ff1615611cb4576040517f08c379a0000000000000000000000000000000000000000000000000000000008152600401611cab9061319a565b60405180910390fd5b6001600860008573ffffffffffffffffffffffffffffffffffffffff1673ffffffffffffffffffffffffffffffffffffffff16815260200190815260200160002060040160146101000a81548160ff0219169083151502179055506001915050919050565b600033600a60008273ffffffffffffffffffffffffffffffffffffffff1673ffffffffffffffffffffffffffffffffffffffff16815260200190815260200160002060009054906101000a900460ff168015611dc15750600860008273ffffffffffffffffffffffffffffffffffffffff1673ffffffffffffffffffffffffffffffffffffffff16815260200190815260200160002060040160149054906101000a900460ff165b611e00576040517f08c379a0000000000000000000000000000000000000000000000000000000008152600401611df79061322c565b60405180910390fd5b600960008473ffffffffffffffffffffffffffffffffffffffff1673ffffffffffffffffffffffffffffffffffffffff16815260200190815260200160002060020160009054906101000a900460ff1615611e90576040517f08c379a0000000000000000000000000000000000000000000000000000000008152600401611e87906132be565b60405180910390fd5b6001600960008573ffffffffffffffffffffffffffffffffffffffff1673ffffffffffffffffffffffffffffffffffffffff16815260200190815260200160002060020160006101000a81548160ff0219169083151502179055506001915050919050565b600033600360009054906101000a900473ffffffffffffffffffffffffffffffffffffffff1673ffffffffffffffffffffffffffffffffffffffff168173ffffffffffffffffffffffffffffffffffffffff1603611f88576040517f08c379a0000000000000000000000000000000000000000000000000000000008152600401611f7f90612a7c565b60405180910390fd5b6000855111611f9657600080fd5b60008411611fa357600080fd5b6000835111611fb157600080fd5b60003390506006819080600181540180825580915050600190039060005260206000200160009091909190916101000a81548173ffffffffffffffffffffffffffffffffffffffff021916908373ffffffffffffffffffffffffffffffffffffffff160217905550600160008082825461202b9190612acb565b9250508190555085600860008373ffffffffffffffffffffffffffffffffffffffff1673ffffffffffffffffffffffffffffffffffffffff16815260200190815260200160002060010190816120819190612d2d565b5084600860008373ffffffffffffffffffffffffffffffffffffffff1673ffffffffffffffffffffffffffffffffffffffff1681526020019081526020016000206002018190555083600860008373ffffffffffffffffffffffffffffffffffffffff1673ffffffffffffffffffffffffffffffffffffffff16815260200190815260200160002060030190816121189190612d2d565b5080600860008373ffffffffffffffffffffffffffffffffffffffff1673ffffffffffffffffffffffffffffffffffffffff16815260200190815260200160002060040160006101000a81548173ffffffffffffffffffffffffffffffffffffffff021916908373ffffffffffffffffffffffffffffffffffffffff1602179055506001600860008373ffffffffffffffffffffffffffffffffffffffff1673ffffffffffffffffffffffffffffffffffffffff16815260200190815260200160002060040160156101000a81548160ff0219169083151502179055506001600a60008373ffffffffffffffffffffffffffffffffffffffff1673ffffffffffffffffffffffffffffffffffffffff16815260200190815260200160002060006101000a81548160ff0219169083151502179055506001925050509392505050565b6000806000905060005b6005600086815260200190815260200160002080549050811015612320576005600086815260200190815260200160002081815481106122a7576122a6612e6b565b5b9060005260206000200160009054906101000a900473ffffffffffffffffffffffffffffffffffffffff1673ffffffffffffffffffffffffffffffffffffffff168473ffffffffffffffffffffffffffffffffffffffff160361230d5760019150612320565b8080612318906132de565b915050612264565b508091505092915050565b6000819050919050565b61233e8161232b565b82525050565b60006020820190506123596000830184612335565b92915050565b6000604051905090565b600080fd5b600080fd5b61237c8161232b565b811461238757600080fd5b50565b60008135905061239981612373565b92915050565b6000602082840312156123b5576123b4612369565b5b60006123c38482850161238a565b91505092915050565b600073ffffffffffffffffffffffffffffffffffffffff82169050919050565b60006123f7826123cc565b9050919050565b612407816123ec565b82525050565b600060208201905061242260008301846123fe565b92915050565b600080fd5b600080fd5b6000601f19601f8301169050919050565b7f4e487b7100000000000000000000000000000000000000000000000000000000600052604160045260246000fd5b61247b82612432565b810181811067ffffffffffffffff8211171561249a57612499612443565b5b80604052505050565b60006124ad61235f565b90506124b98282612472565b919050565b600067ffffffffffffffff8211156124d9576124d8612443565b5b6124e282612432565b9050602081019050919050565b82818337600083830152505050565b600061251161250c846124be565b6124a3565b90508281526020810184848401111561252d5761252c61242d565b5b6125388482856124ef565b509392505050565b600082601f83011261255557612554612428565b5b81356125658482602086016124fe565b91505092915050565b60006020828403121561258457612583612369565b5b600082013567ffffffffffffffff8111156125a2576125a161236e565b5b6125ae84828501612540565b91505092915050565b600081519050919050565b600082825260208201905092915050565b60005b838110156125f15780820151818401526020810190506125d6565b83811115612600576000848401525b50505050565b6000612611826125b7565b61261b81856125c2565b935061262b8185602086016125d3565b61263481612432565b840191505092915050565b60008115159050919050565b6126548161263f565b82525050565b600060c08201905081810360008301526126748189612606565b905081810360208301526126888188612606565b905061269760408301876123fe565b6126a460608301866123fe565b6126b1608083018561264b565b6126be60a083018461264b565b979650505050505050565b600060608201905081810360008301526126e38186612606565b90506126f2602083018561264b565b6126ff604083018461264b565b949350505050565b600060208201905061271c600083018461264b565b92915050565b61272b816123ec565b811461273657600080fd5b50565b60008135905061274881612722565b92915050565b60006020828403121561276457612763612369565b5b600061277284828501612739565b91505092915050565b600060208201905081810360008301526127958184612606565b905092915050565b600081519050919050565b600082825260208201905092915050565b6000819050602082019050919050565b6127d2816123ec565b82525050565b60006127e483836127c9565b60208301905092915050565b6000602082019050919050565b60006128088261279d565b61281281856127a8565b935061281d836127b9565b8060005b8381101561284e57815161283588826127d8565b9750612840836127f0565b925050600181019050612821565b5085935050505092915050565b6000602082019050818103600083015261287581846127fd565b905092915050565b600060c08201905081810360008301526128978189612606565b90506128a66020830188612335565b81810360408301526128b88187612606565b90506128c760608301866123fe565b6128d4608083018561264b565b6128e160a083018461264b565b979650505050505050565b6000806040838503121561290357612902612369565b5b60006129118582860161238a565b925050602061292285828601612739565b9150509250929050565b60006080820190506129416000830187612335565b81810360208301526129538186612606565b90506129626040830185612335565b81810360608301526129748184612606565b905095945050505050565b60008060006060848603121561299857612997612369565b5b600084013567ffffffffffffffff8111156129b6576129b561236e565b5b6129c286828701612540565b93505060206129d38682870161238a565b925050604084013567ffffffffffffffff8111156129f4576129f361236e565b5b612a0086828701612540565b9150509250925092565b7f41646d696e2063616e6e6f74206265207265676973746572656420617320507260008201527f6f76696e63650000000000000000000000000000000000000000000000000000602082015250565b6000612a666026836125c2565b9150612a7182612a0a565b604082019050919050565b60006020820190508181036000830152612a9581612a59565b9050919050565b7f4e487b7100000000000000000000000000000000000000000000000000000000600052601160045260246000fd5b6000612ad68261232b565b9150612ae18361232b565b9250827fffffffffffffffffffffffffffffffffffffffffffffffffffffffffffffffff03821115612b1657612b15612a9c565b5b828201905092915050565b7f4e487b7100000000000000000000000000000000000000000000000000000000600052602260045260246000fd5b60006002820490506001821680612b6857607f821691505b602082108103612b7b57612b7a612b21565b5b50919050565b60008190508160005260206000209050919050565b60006020601f8301049050919050565b600082821b905092915050565b600060088302612be37fffffffffffffffffffffffffffffffffffffffffffffffffffffffffffffffff82612ba6565b612bed8683612ba6565b95508019841693508086168417925050509392505050565b6000819050919050565b6000612c2a612c25612c208461232b565b612c05565b61232b565b9050919050565b6000819050919050565b612c4483612c0f565b612c58612c5082612c31565b848454612bb3565b825550505050565b600090565b612c6d612c60565b612c78818484612c3b565b505050565b5b81811015612c9c57612c91600082612c65565b600181019050612c7e565b5050565b601f821115612ce157612cb281612b81565b612cbb84612b96565b81016020851015612cca578190505b612cde612cd685612b96565b830182612c7d565b50505b505050565b600082821c905092915050565b6000612d0460001984600802612ce6565b1980831691505092915050565b6000612d1d8383612cf3565b9150826002028217905092915050565b612d36826125b7565b67ffffffffffffffff811115612d4f57612d4e612443565b5b612d598254612b50565b612d64828285612ca0565b600060209050601f831160018114612d975760008415612d85578287015190505b612d8f8582612d11565b865550612df7565b601f198416612da586612b81565b60005b82811015612dcd57848901518255600182019150602085019450602081019050612da8565b86831015612dea5784890151612de6601f891682612cf3565b8355505b6001600288020188555050505b505050505050565b7f50726f6a65637420646f65736e27742065786973740000000000000000000000600082015250565b6000612e356015836125c2565b9150612e4082612dff565b602082019050919050565b60006020820190508181036000830152612e6481612e28565b9050919050565b7f4e487b7100000000000000000000000000000000000000000000000000000000600052603260045260246000fd5b7f204e6f742072656769737465726564206f7220617070726f7665642070726f7660008201527f696e636500000000000000000000000000000000000000000000000000000000602082015250565b6000612ef66024836125c2565b9150612f0182612e9a565b604082019050919050565b60006020820190508181036000830152612f2581612ee9565b9050919050565b7f4e6f742072656769737465726564206f7220617070726f76656420636f6e747260008201527f6163746f72000000000000000000000000000000000000000000000000000000602082015250565b6000612f886025836125c2565b9150612f9382612f2c565b604082019050919050565b60006020820190508181036000830152612fb781612f7b565b9050919050565b7f50726f6a65637420697320616c72656164792061737369676e65642e20596f7560008201527f2063616e6e6f74206170706c7920666f7220746869732070726f6a6563740000602082015250565b600061301a603e836125c2565b915061302582612fbe565b604082019050919050565b600060208201905081810360008301526130498161300d565b9050919050565b7f50726f6a656374206973206e6f74206170706c69656420666f7220627920636f60008201527f6e74726163746f72000000000000000000000000000000000000000000000000602082015250565b60006130ac6028836125c2565b91506130b782613050565b604082019050919050565b600060208201905081810360008301526130db8161309f565b9050919050565b7f4f6e6c792041646d696e2063616e207665726966792e00000000000000000000600082015250565b60006131186016836125c2565b9150613123826130e2565b602082019050919050565b600060208201905081810360008301526131478161310b565b9050919050565b7f5468652070726f76696e636520697320616c726561647920617070726f766564600082015250565b60006131846020836125c2565b915061318f8261314e565b602082019050919050565b600060208201905081810360008301526131b381613177565b9050919050565b7f4f6e6c7920617070726f7665642050726f76696e63652063616e20766572696660008201527f792e000000000000000000000000000000000000000000000000000000000000602082015250565b60006132166022836125c2565b9150613221826131ba565b604082019050919050565b6000602082019050818103600083015261324581613209565b9050919050565b7f54686520436f6e74726163746f7220697320616c726561647920617070726f7660008201527f6564000000000000000000000000000000000000000000000000000000000000602082015250565b60006132a86022836125c2565b91506132b38261324c565b604082019050919050565b600060208201905081810360008301526132d78161329b565b9050919050565b60006132e98261232b565b91507fffffffffffffffffffffffffffffffffffffffffffffffffffffffffffffffff820361331b5761331a612a9c565b5b60018201905091905056fea2646970667358221220c788c35e8282ffff0cb85fad0c80df8f855d063e4dc4ffc1aea2df655db32d4464736f6c634300080f0033",
  "immutableReferences": {},
  "source": "// SPDX-License-Identifier:MIT\r\n\r\npragma solidity ^0.8.1;\r\n\r\ncontract FundAllocation {\r\n    uint256 public provinceIndex = 0;\r\n    uint256 public contractorIndex = 0;\r\n    uint256 public projectIndex=0;\r\n    address private admin;\r\n\r\n    struct Province {\r\n        uint256 id;\r\n        string name;\r\n        uint256 stateNo;\r\n        string capital;\r\n        address wallet;\r\n        bool isApproved;\r\n        bool isRegistered;\r\n    }\r\n\r\n    struct Contractor {\r\n        uint256 id;\r\n        string name;\r\n        bool isApproved;\r\n        bool isRegistered;\r\n    }\r\n\r\n    struct Project{\r\n        string name;\r\n        string province;\r\n        address projectOwner;\r\n        address projectAssignedTo;\r\n        bool isAssigned;\r\n        bool isCompleted;\r\n    }\r\n\r\n    //mapping(address=>uint256) public projectIndex;\r\n    mapping(uint256=>Project) projects;\r\n    mapping(uint256=>address[]) projectApplications;\r\n\r\n\r\n    address[] public provinceList;\r\n    address[] public contractorList;\r\n\r\n    mapping(address => Province) provinces;\r\n    mapping(address => Contractor) contractors;\r\n    mapping(address => bool) isProvince;\r\n    mapping(address => bool) isContractor;\r\n\r\n    constructor() {\r\n        admin = msg.sender;\r\n    }\r\n\r\n    modifier excludeAdmin(address _address) {\r\n        require(_address != admin, \"Admin cannot be registered as Province\");\r\n        _;\r\n    }\r\n\r\n    modifier verifierAdmin(address _address) {\r\n        require(_address == admin, \"Only Admin can verify.\");\r\n        _;\r\n    }\r\n\r\n    modifier verifierProvince(address _address) {\r\n        require(\r\n            (isProvince[_address] && provinces[_address].isApproved),\r\n            \"Only approved Province can verify.\"\r\n        );\r\n        _;\r\n    }\r\n\r\n    modifier registeredAndApprovedProvince(address _address) {\r\n        require(\r\n            (provinces[_address].isRegistered &&\r\n                provinces[_address].isApproved),\r\n            \" Not registered or approved province\"\r\n        );\r\n        _;\r\n    }\r\n\r\n     modifier registeredAndApprovedContractor(address _address) {\r\n        require(\r\n            (contractors[_address].isRegistered &&\r\n                contractors[_address].isApproved),\r\n            \"Not registered or approved contractor\"\r\n        );\r\n        _;\r\n    }\r\n\r\n    function findUserRole(address _address)\r\n        public\r\n        view\r\n        returns (string memory user)\r\n    {\r\n        if (_address == admin) {\r\n            return \"admin\";\r\n        } else if (isProvince[_address] == true) {\r\n            return \"province\";\r\n        } else if (isContractor[_address] == true) {\r\n            return \"contractor\";\r\n        } else {\r\n            return \"unAuthorized\";\r\n        }\r\n    }\r\n\r\n    function registerProvince(\r\n        string memory _name,\r\n        uint256 _stateNo,\r\n        string memory _capital\r\n    ) public excludeAdmin(msg.sender) returns (bool) {\r\n        require(bytes(_name).length > 0);\r\n        require(_stateNo > 0);\r\n        require(bytes(_capital).length > 0);\r\n        address _address = msg.sender;\r\n\r\n        provinceList.push(_address);\r\n        provinceIndex += 1;\r\n\r\n        provinces[_address].name = _name;\r\n        provinces[_address].stateNo = _stateNo;\r\n        provinces[_address].capital = _capital;\r\n        provinces[_address].wallet = _address;\r\n        provinces[_address].isRegistered = true;\r\n        isProvince[_address] = true;\r\n        return true;\r\n    }\r\n\r\n    function verifyProvince(address _address)\r\n        public\r\n        verifierAdmin(msg.sender)\r\n        returns (bool)\r\n    {\r\n        require(\r\n            !provinces[_address].isApproved,\r\n            \"The province is already approved\"\r\n        );\r\n        provinces[_address].isApproved = true;\r\n        return true;\r\n    }\r\n\r\n    function allProvince(uint256 _id)\r\n        public\r\n        view\r\n        returns (\r\n            string memory,\r\n            uint256,\r\n            string memory,\r\n            address,\r\n            bool,\r\n            bool\r\n        )\r\n    {\r\n        address _address = provinceList[_id];\r\n        Province memory currentProvince = provinces[_address];\r\n        return (\r\n            currentProvince.name,\r\n            currentProvince.stateNo,\r\n            currentProvince.capital,\r\n            currentProvince.wallet,\r\n            currentProvince.isRegistered,\r\n            currentProvince.isApproved\r\n        );\r\n    }\r\n\r\n    function myProvince()\r\n        public\r\n        view\r\n        registeredAndApprovedProvince(msg.sender)\r\n        returns (\r\n            uint256,\r\n            string memory,\r\n            uint256,\r\n            string memory\r\n        )\r\n    {\r\n        Province memory currentProvince = provinces[msg.sender];\r\n        return (\r\n            currentProvince.id,\r\n            currentProvince.name,\r\n            currentProvince.stateNo,\r\n            currentProvince.capital\r\n        );\r\n    }\r\n\r\n    function registerContractor(string memory _name)\r\n        public\r\n        excludeAdmin(msg.sender)\r\n    {\r\n        require(bytes(_name).length > 0);\r\n        address _address = msg.sender;\r\n\r\n        contractorList.push(_address);\r\n        contractorIndex += 1;\r\n\r\n        contractors[_address].name = _name;\r\n        contractors[_address].isRegistered = true;\r\n        isContractor[_address] = true;\r\n    }\r\n\r\n    function verifyContractor(address _address)\r\n        public\r\n        verifierProvince(msg.sender)\r\n        returns (bool)\r\n    {\r\n        require(\r\n            !contractors[_address].isApproved,\r\n            \"The Contractor is already approved\"\r\n        );\r\n        contractors[_address].isApproved = true;\r\n        return true;\r\n    }\r\n\r\n    function allContractor(uint256 _id)public view returns(string memory,bool,bool){\r\n        address _address=contractorList[_id];\r\n        Contractor memory currentContractor=contractors[_address];\r\n        return (currentContractor.name,currentContractor.isRegistered,currentContractor.isApproved);\r\n\r\n    }\r\n\r\n    function createProvinceProject(string memory _name) public registeredAndApprovedProvince(msg.sender) returns(bool){\r\n        Project memory currentProject=Project(_name,provinces[msg.sender].name,msg.sender,msg.sender,false,false);\r\n        projects[projectIndex]=currentProject;\r\n        projectIndex=projectIndex+1;\r\n        return true;\r\n       \r\n    }\r\n\r\n    function allProject(uint256 _id)public view returns(string memory,string memory,address,address,bool,bool){\r\n        require(_id>=0 && _id<projectIndex,\"Project doesn't exist\");\r\n        Project memory currentProject=projects[_id];\r\n        return (currentProject.name,currentProject.province,currentProject.projectOwner,currentProject.projectAssignedTo,currentProject.isAssigned,currentProject.isCompleted);\r\n    }\r\n\r\n    function applyForProject(uint256 _id)public registeredAndApprovedContractor(msg.sender) returns(bool){\r\n        require(projects[_id].isAssigned==false,\"Project is already assigned. You cannot apply for this project\");\r\n        projectApplications[_id].push(msg.sender);\r\n        return true;\r\n    }\r\n\r\n    function getProjectApplications(uint256 _id)public view returns(address[] memory){\r\n        require(_id>=0 && _id<projectIndex,\"Project doesn't exist\");\r\n        return projectApplications[_id];\r\n    }\r\n\r\n    function assignProject(uint256 _id,address _address)public registeredAndApprovedProvince(msg.sender) registeredAndApprovedContractor(_address) returns(bool){\r\n        require(_checkIfContractorApplied(_id,_address),\"Project is not applied for by contractor\");\r\n        projects[_id].isAssigned=true;\r\n        projects[_id].projectAssignedTo=_address;\r\n        return true;\r\n\r\n    }\r\n\r\n    function _checkIfContractorApplied(uint256 _id,address _address)internal view returns(bool){\r\n        bool hasApplied=false;\r\n        for (uint i=0; i < projectApplications[_id].length; i++) {\r\n    if (_address == projectApplications[_id][i]) {\r\n        hasApplied=true;\r\n\r\n        break;\r\n    }\r\n    }\r\n     return hasApplied;\r\n    }\r\n\r\n   \r\n\r\n   \r\n}",
  "sourcePath": "C:\\Miscs\\Outside\\Esatya\\GFATS\\src\\contracts\\FundAllocation.sol",
  "compiler": {
    "name": "solc",
    "version": "0.8.15+commit.e14f2714.Emscripten.clang"
  },
  "schemaVersion": "3.4.7",
  "updatedAt": "2022-06-28T13:44:35.494Z",
  "networkType": "ethereum",
  "devdoc": {
    "kind": "dev",
    "methods": {},
    "version": 1
  },
  "userdoc": {
    "kind": "user",
    "methods": {},
    "version": 1
  }
}